:100000000C9483030C94A0030C94A0030C94A00301
:100010000C94A0030C94A0030C94A0030C94A003D4
:100020000C94A0030C94A0030C94E8120C942A12D4
:100030000C94CF1F0C94A0030C94A0030C94A00369
:100040000C94A0030C94A0030C94A0030C94A003A4
:100050000C94A0030C948E1F0C94A0030C94A0038A
:100060000C94A0030C94A0030C94A0030C94A00384
:100070000C94A0030C94A0030C94A0030C94A00374
:100080000C94A0030C94A0030C94A0030C94A00364
:100090000C94A0030C94A0030C94A0030C94A00354
:1000A0000C94A0030C94A0030C94A0032F0435041B
:1000B0003B04410447044D04530459045F046504A0
:1000C0006B04710477047D04830489048F045C0548
:1000D000D00564052E053205680535056B057605E6
:1000E0004005C60544057A0548057E05A8054C056A
:1000F0008205B20552058805920539056F053C0554
:10010000720557058D059E05BE05C0052A056005CB
:10011000D90578067806A706A706230739083908FF
:1001200039084107B507C607C607180D1D0D270D6D
:100130001B0D200D250D230D36105D1012125D10C4
:100140001212A910CC101212CD11DD110102E20120
:1001500001140103E2000102E201011E0103E200B9
:100160000102E201011F0103E2000102E20101219B
:100170000103E2000102E20102E101012C0103E1BD
:100180000103E2000102E10101640103E100010257
:10019000E60101270103E6000102E6010126010351
:1001A000E6000102E60101240103E6000102E60186
:1001B00001300103E601043130307C01012C0001E3
:1001C00002E60101640103E6000102E10102E60129
:1001D00001230103E60103E1000102E601011F0121
:1001E00003E6000102E40101200103E4000102E64C
:1001F00001012D0103E6000102E60101210103E6F0
:10020000000102E10101300103E101043130307CE1
:1002100001012C0005010980A101850319012AB7FC
:1002200000150126B700950175108100C0050C0965
:1002300001A101850419012AA002150126A0029539
:100240000175108100C005010906A1018506050799
:1002500019E029E7150025019508750181020507B8
:10026000190029EF1500250195F075018102050897
:1002700019012905950575019102950175039101F3
:10028000C00660FF0961A1010962150026FF009503
:1002900020750881020963150026FF009520750866
:1002A0009102C005010906A101050719E029E7151A
:1002B00000250195087501810295017508810105E8
:1002C00007190029FF150026FF0095067508810013
:1002D00005081901290515002501950575019102EB
:1002E000950175039101C009025B00030100A0FAAA
:1002F000090400000103010100092111010001228C
:1003000044000705810308000109040100020300FD
:1003100000000921110100012222000705820320AB
:100320000001070503032000010904020001030086
:100330000000092111010001226D0007058403203E
:100340000001120100020000000897327449000108
:10035000010203011A0359006C004D0035003400FE
:100360002F003600610030003300610042000000C1
:1003700016034500720067006F0064006F0078008C
:10038000200045005A00000028035A005300410095
:10039000200054006500630068006E006F006C0070
:1003A0006F006700790020004C006100620073005C
:1003B0000000040309041E00140004001D000100D5
:1003C00000001F001A0016221B000100010020007F
:1003D00008000743060001002C24210015000941F4
:1003E000190001002A21220017000A00054201001D
:1003F00001002800390029004C0000000100010024
:1004000001000000010000000100010001000000E7
:1004100001000000010001002B0037003600000041
:10042000010023001C000B00114201000100240008
:1004300018000D4110000100283225000C000E4369
:10044000010001002C24260012000F3233000100AD
:100450000100270013002F003400010000003A00C3
:100460002102067E087E010000003B00037E077E1D
:100470002302010001003C00047E2D002702010040
:1004800001003D00200201003802010001003E0091
:10049000057E1E022D0201000100010031002E0226
:1004A0000100000001000100010000000100000047
:1004B00001000100010000000100000001003F00F8
:1004C0001F020A7E010000000100400024022502F4
:1004D0002602010001004100220201000C7E010001
:1004E0000100420031020B7E0D7E0100010043003D
:1004F000097E64000E7E01000100005744004500A3
:10050000010001000000010001004600010001009F
:10051000000001000100AC00010001000100010029
:10052000BE0001570100010001000100BD0002579B
:1005300001000100010001000100AB000100010009
:100540000100A500A700010001000000010001005A
:100550000100000001000000010001000100000096
:100560000100000001000100010001000100000085
:100570000100010001000457010001000100010019
:1005800001000557010001000100010001000657AC
:1005900001000100010001000100075701000100F6
:1005A00001000357010001000100010000000100EB
:1005B0002304220401000100000001002404107E35
:1005C00001000100010001002504010001000100FB
:1005D000010001002604117E01000100010001005C
:1005E0002704127E0100010001000F7E0857010060
:1005F00001000000010001000100000001000000F6
:1006000001000100010000000100000001000100E4
:100610000100010001000000010001000100137E43
:1006200001000100010001000100010001000100C2
:1006300001000100010001000100010001000100B2
:1006400001000100010001000100010001000100A2
:100650000100010000000000000000000000000098
:10066000000000000000000000000000000000008A
:10067000000000000000000000007E0F00D4FFFF1B
:10068000FFC70000007800000000000000002A2BD7
:100690002800000000000000000000000000000032
:1006A0000029000000002C1E34202122243426279B
:1006B000252E362D3738271E1F20212223242526BC
:1006C0003333362E37381F0405060708090A0B0C8A
:1006D0000D0E0F101112131415161718191A1B1CD2
:1006E0001D2F3130232D350405060708090A0B0C90
:1006F0000D0E0F101112131415161718191A1B1CB2
:100700001D2F3130354C11241FBECFEFDAE0DEBF94
:10071000CDBF12E0A0E0B1E0E4E4F8E402C005904F
:100720000D92A431B107D9F723E0A4E1B2E001C0F2
:100730001D92A534B207E1F70E94F2130C94202415
:100740000C940000A0E0B0E0E8EAF3E00C9487230A
:10075000DC0114962C91222309F40DC58C0161E073
:100760000E941A0CEC01F8018581882309F45EC20D
:100770008091360390913703009709F45EC0C81743
:10078000D90709F45AC0992764E0880F991F6A9520
:10079000E1F7FC01EE5EFE4F208124602083835F41
:1007A0009E4FDC01CD93DC930E94D3201092340342
:1007B00061E0C8010E941A0CEC0181159E4709F006
:1007C00040C0F8018581882309F435C29091530215
:1007D00081E0890F8770987F853020F4892B809382
:1007E000530202C090935302809153028770FFEF2F
:1007F0008F9FC00111249595879595958795992789
:10080000909389008093880090938B0080938A0056
:1008100090938D0080938C0040915302509154022C
:1008200060915502709156028FE090E00E94EB2398
:10083000809152020E94FC0CFEC1C115FEE7DF0749
:1008400029F2FE01E350FE47D80115968C91E13163
:10085000F10508F06CC0EA5AFF4F0C940D24882370
:1008600009F4D7C081E092E05FC0882309F4D1C0C9
:1008700087EF91E059C0882309F4CBC08DEE91E059
:1008800053C0882309F4C5C083EE91E04DC088238E
:1008900009F4BFC089ED91E047C0882309F4B9C0CD
:1008A00089EC91E041C0882309F4B3C08FEB91E05B
:1008B0003BC0882309F4ADC08CEA91E035C08823A1
:1008C00009F4A7C082EA91E02FC0882309F4A1C0EF
:1008D00088E991E029C0882309F49BC08EE891E063
:1008E00023C0882309F495C084E891E01DC08823C3
:1008F00009F48FC084E791E017C0882309F489C008
:100900008AE691E011C0882309F483C080E691E073
:100910000BC0882309F47DC086E591E005C08823DB
:1009200009F477C08CE491E00E94FD2072C09E0122
:1009300037552F3F310511F008F06BC06E01DD24F3
:10094000960144E0220F331F4A95E1F7F901E35F76
:10095000FE4F7F01A9014E5E5E4F6A01DA019C9154
:1009600080FB90F99C93F80185818823A1F10E9476
:10097000C31F9093750280937402D70112968C91D5
:1009800012978F5F12968C931297909134038091F7
:100990003503892B13968C9313978091BC02149680
:1009A0008C93149716964D915C9117971E966D91A6
:1009B0007C911F97C7010E94B420F601808181FFBE
:1009C00003C090E080E002C09C2F8D2F90933603EF
:1009D000809337031EC0D7011C964D915C911D97E3
:1009E0001E966D917C911F97C7010E94B420F6015D
:1009F000808181FF0EC0C7010E94BA20809136031A
:100A0000909137038C179D0721F4109237031092B1
:100A10003603D80115968C91882309F40FC1CE01B5
:100A20009057839708F0DBC084E090E00E94C323D6
:100A300090933F0380933E03FE01E150F047E23282
:100A4000F10520F4E959FF4F0C940D2480913E03E9
:100A50008160ACC080913F038860B4C080913E0348
:100A60008260A4C080913E0320C080913E038860D4
:100A70009DC080913F031EC080913F038260A2C051
:100A800080913E03806192C080913E0380628EC05F
:100A900080913E0380648AC00E94181E80913E03AC
:100AA000806884C080913E03886084607FC08091AC
:100AB0003F038260816086C080913E038E7F76C056
:100AC00080913F03877F7EC080913E038D7F6EC003
:100AD00080913E0320C080913E03877F67C0809154
:100AE0003F031EC080913F038D7F6CC080913E0309
:100AF0008F7E5CC080913E038F7D58C080913E0305
:100B00008F7B54C00E94181E80913E038F774EC089
:100B100080913E03877F8B7F49C080913F038D7F0B
:100B20008E7F50C080913E0382FB222720F991E006
:100B3000922790FB82F990FB83F938C080913F03A4
:100B4000982F909591708E7F892B90FB81F93AC0F8
:100B500080913E0386FB222720F991E0922790FBAB
:100B600086F924C00E94181E80913E0387FB22272D
:100B700020F991E0922790FB87F918C061E001C04D
:100B800060E08EE090E00E94D9231EC080913E0379
:100B900084FB222720F991E0922790FB84F906C07C
:100BA00080913E03982F909590FB80F980933E03AF
:100BB0000BC080913F0383FB222720F991E092270D
:100BC00090FB83F980933F0360913E0370913F0354
:100BD00084E090E00E94F7230E94181E14C0C631E2
:100BE0004CE7D40709F072C2809135038A7A91E00C
:100BF00009F490E0909316028111BBC289E20E9431
:100C000026200E94161A8091BB02877009F4B3C295
:100C1000D80115968C91882309F4ADC280913F03C9
:100C200082FFA9C282E00E94681AA5C2C1155EE7D0
:100C3000D50709F006CEC0E0DEE7EBCEC631DC47D3
:100C400009F43AC2F8018581C081D181882349F035
:100C5000CE010E942F1DF82E682FCE010E949F1DED
:100C600004C0CE010E946B1DF82EBE018F2D0E9484
:100C7000CE180E94EB18D82FC92FC82EF801F58086
:100C8000E680E2949FE0E9228091BB02877001F147
:100C9000FF20F1F08C2F807F803469F080E28D0F8F
:100CA0008830B0F08C2F807E803229F4F1E0FD177F
:100CB00078F4EE2069F080913F0382FF09C082E062
:100CC0000E94681A8091BB028770DD24D394811141
:100CD000D12CBC2EB2948FE0B8228B2D90E08C30BA
:100CE000910508F0C6C1FC01E757FF4F0C940D2495
:100CF0008C2F807FCF70882311F0C295C07FFF209A
:100D0000B9F0CC2309F4A3C180E28D0F883010F034
:100D1000C11006C090913503C92BC093350305C09F
:100D200090913403C92BC09334030E94161A8FC1CB
:100D30008D2F0E945C1ECC2309F49BC1D05E8C2FAA
:100D4000D83068F1CC2059F10E94081A2AC08C2FA3
:100D5000807FCF70803211F0C295C07FCC2029F007
:100D600021E0C21609F44CC055C080913F0382FDBA
:100D70001BC0FF2069F0CC2339F090913503C92BBB
:100D8000C09335030E94161A80E00E94861E71C12E
:100D900080E00E945C1ECC2309F46BC18C2F0E9462
:100DA0000F1A0E94161A65C1FF2081F0EE20B1F1E2
:100DB00041E0E4125EC19091BC028C2F8923C817D8
:100DC00009F457C1C92BC093BC0253C1E11051C1F2
:100DD0008C2F0E944B1E8091BC029C2F982329F0DF
:100DE0009C2F909589238093BC02209117028C2F11
:100DF000822309F43EC1C0952C232093170239C1E8
:100E0000FF2029F051E05E1508F433C107C0E1105E
:100E100030C115C0FF2031F0E11019C18C2F0E94A4
:100E2000521E27C1EE2059F0D93309F01FC18FEFB0
:100E300097EEA3E081509040A040E1F715C18C2FC0
:100E40000E944B1E16C18C2F86958695837019F0D3
:100E5000813061F00EC1FF2021F08D2F9C2F937007
:100E600002C080E090E00E94822009C1FF2021F0B2
:100E70008D2F9C2F937002C080E090E00E945D2037
:100E8000FEC08C2F8370A9F5F110F7C04D2F42954D
:100E900046954770440F440F8D2F8F7090E09C0152
:100EA000042E01C0220F0A94EAF7D4FF08C08FE095
:100EB00090E001C0880F4A95EAF7809501C080E074
:100EC000C695C695C370C23069F088F490915102FE
:100ED000C13019F0822B892302C0922B892B0E94EA
:100EE000F21DCBC0822B909151028927F8CF822B23
:100EF000F6CFFF2019F08C2F817001C086958823D2
:100F000009F4BBC04D2F429546954770440F440FDE
:100F10008D2F8F7090E09C01042E01C0220F0A9447
:100F2000EAF7D4FF08C08FE090E001C0880F4A952F
:100F3000EAF7809501C080E0C695C695C370C230BF
:100F400059F078F490915202C13019F0822B892324
:100F500009C0922B892B06C0822B909152028927BF
:100F600001C0822B0E94D41D88C0CF70FF2039F0B1
:100F70008C2F0E94E61D8D2F0E94521E7EC08D2F49
:100F80000E944B1E8C2F0E94D91D77C08D2FB2EF6F
:100F9000CB1669F1BC1538F0E0EFCE1659F0F1EF41
:100FA000CF1601F150C023EFC21641F144EFC41631
:100FB000A9F049C0FF2069F0E1105BC0CF7181E06A
:100FC00090E001C0880FCA95EAF7909152028927F4
:100FD0001FC051E05E1508F44CC0F0CF80913F0374
:100FE00082FD19C0FF2029F08C2F8F711FC0FF20B8
:100FF000D9F38C2F8F710E94D91D3BC0FF2039F08F
:10100000CF7181E001C0880FCA95EAF701C080E086
:101010000E94D41D2EC0FF2061F08C2F8F7198E0AC
:10102000899F9001112423602093BB020E94E61D3A
:1010300020C081E00E94681AA1E0AE15D0F482E0E1
:101040000E94681A16C0FF2021F0EE2069F28D2F51
:101050009CCEEE2071F2893349F4BFEFE7EEF3E066
:10106000B150E040F040E1F700C000008D2F0E9439
:101070005C1E88EF8B0D843010F40E94A720DD20C9
:10108000B1F08091BB0280FD12C0D80115961C9270
:101090008695869586950E94E61DC8010E94A2034A
:1010A0008091BB028695869586950E94D91D60E049
:1010B000C8010E941A0C5FC080911602811104C001
:1010C00089E20E94F81F9DCD85E3FBCFC330BCE7CA
:1010D000DB0779F190F4C115FCE7DF07E1F0C130DF
:1010E000DC4709F0AFCD0E94181EEFEFF4E32CE0CF
:1010F000E150F0402040E1F72BC0CB354CE7D4075E
:10110000A1F1CC355CE7D50741F1CA35DC4709F0E0
:1011100099CD81E02BC00E94181E9FEFA4E3BCE094
:101120009150A040B040E1F700C000000E945C1F59
:101130006ACD6FEF7FEF80E090E00E94F7230E947E
:10114000181E4FEF54E38CE0415050408040E1F7CF
:1011500000C000000E94511F56CD80913F0382FBCA
:10116000882780F991E0892701C080E00E947F1ADA
:1011700069CD85E344CDCDB7DEB7E9E00C94A32378
:10118000982F92959F7019F0892F24E001C020E0DC
:10119000982F9695969511F02E5F892F982F9695FA
:1011A00009F02F5F822F08959C013A9521153F4148
:1011B00030F5BC0166277270AC01442754709C0165
:1011C0002227387094FF0FC090FF02C080E101C059
:1011D00080E0672B09F08062452B09F08064232BA7
:1011E00079F080680895892F8170672B09F08260FB
:1011F000452B09F08460232B19F08860089580E066
:101200000895FC018281813039F4958192FD12C0EC
:1012100090FF10C082E00895823039F4858182FD0C
:1012200006C080FD06C083E0089586E0089585E04D
:10123000089584E0089590E0FC01EF54FE4F208172
:1012400021111AC0F894FC01ED55FE4F8081E82F62
:10125000E295EF70F0E031A1282F2F7081E090E04F
:1012600001C0880F2A95EAF7982F9095932391A3B0
:1012700092A1892B82A3789408958FE39CE901972A
:10128000F1F700C000001092210208958FE39CE95D
:101290000197F1F700C0000010921B020895CF9350
:1012A000DF93EC010E945C1ECE01805E91090897DD
:1012B00010F0209731F4CE010E94D4080E944B1EFA
:1012C00005C0CE010E94D4080E943A1EDF91CF9142
:1012D00008958FE39CE90197F1F700C00000809129
:1012E0002B02833029F0853031F0813041F403C086
:1012F00089E096E002C089E094E00E944F091092D4
:101300002B0208958FE39CE90197F1F700C00000DC
:1013100080912902823049F018F4813049F00CC0E4
:10132000833031F0853021F007C08DE490E002C0B9
:101330008FE490E00E944F091092290208958FE3F4
:101340009CE90197F1F700C00000809127028230EC
:1013500049F018F4813049F00CC0833031F0853009
:1013600021F007C08BE490E002C082E590E00E948B
:101370004F091092270208958FE39CE90197F1F736
:1013800000C0000080912502823049F018F48130BD
:1013900049F00CC0833031F0853021F007C08EE475
:1013A00090E002C081E590E00E944F091092250272
:1013B00008958FE39CE90197F1F700C00000809148
:1013C0002302823049F018F4813049F00CC0833098
:1013D00031F0853021F007C08AE490E002C080E55A
:1013E00090E00E944F091092230208958FE39CE938
:1013F0000197F1F700C0000080911F02833061F077
:1014000018F4813049F00CC0843019F0853021F097
:1014100007C08EEA90E002C089EA90E00E944F097E
:1014200010921F0208958FE39CE90197F1F700C025
:10143000000080911D02833061F018F4813049F082
:101440000CC0843019F0853021F007C088EA90E0A4
:1014500002C08AEA90E00E944F0910921D0208958E
:10146000CF93DF93EC01805E9109089710F02097ED
:1014700031F4CE010E94D4080E94521E05C0CE0154
:101480000E94D4080E94411E8C2F0E94861EDF916C
:10149000CF9108950F931F93CF93DF938C01C9973A
:1014A00019F0C0E0D0E002C0C0E5D0E0C8010E9461
:1014B000300A209741F08FE99FE00197F1F700C0D3
:1014C00000002197F6CFC8010E944F09DF91CF910C
:1014D0001F910F910895CF93DF93EC018A818330A0
:1014E00061F489E094E00E944A0A89E094E00E9455
:1014F0004A0A89E094E00E944A0A8A81843020F0F6
:1015000089E094E00E944A0ADF91CF910895CF9339
:10151000DF93EC018A81833061F48FE490E00E94D4
:101520004A0A8FE490E00E944A0A8FE490E00E9409
:101530004A0A8A81843020F08FE490E00E944A0AAF
:10154000DF91CF910895CF93DF93EC018A818330AF
:1015500061F482E590E00E944A0A82E590E00E94F0
:101560004A0A82E590E00E944A0A8A81843020F08B
:1015700082E590E00E944A0ADF91CF910895CF93CF
:10158000DF93EC018A81833061F481E590E00E9471
:101590004A0A81E590E00E944A0A81E590E00E94B3
:1015A0004A0A8A81843020F081E590E00E944A0A4C
:1015B000DF91CF910895CF93DF93EC018A8183303F
:1015C00061F480E590E00E944A0A80E590E00E9484
:1015D0004A0A80E590E00E944A0A8A81843020F01D
:1015E00080E590E00E944A0ADF91CF910895CF9361
:1015F000DF93EC018A81833061F489EA90E00E94F4
:101600004A0A89EA90E00E944A0A89EA90E00E9428
:101610004A0A8A81843020F089EA90E00E944A0ACE
:10162000DF91CF910895CF93DF93EC018A818330CE
:1016300061F48AEA90E00E944A0A8AEA90E00E94F5
:101640004A0A8AEA90E00E944A0A8A81843020F09D
:101650008AEA90E00E944A0ADF91CF9108950E94A1
:10166000010980932B02833029F0853031F08130DD
:1016700061F407C089E096E006C089E094E00E942A
:101680004A0A89E094E00E94300A08950E94010904
:1016900080932902823049F018F4813091F0089546
:1016A000833031F0853049F008958DE490E00BC02F
:1016B0008FE490E00E94300A04C08FE490E00E9422
:1016C0004A0A8FE490E00E94300A08950E940109BE
:1016D00080932702823049F018F4813091F0089508
:1016E000833031F0853049F008958BE490E00BC0F1
:1016F00082E590E00E94300A04C082E590E00E94FA
:101700004A0A82E590E00E94300A08950E94010989
:1017100080932502823049F018F4813091F00895C9
:10172000833031F0853049F008958EE490E00BC0AD
:1017300081E590E00E94300A04C081E590E00E94BB
:101740004A0A81E590E00E94300A08950E9401094A
:1017500080932302823049F018F4813091F008958B
:10176000833031F0853049F008958AE490E00BC071
:1017700080E590E00E94300A04C080E590E00E947D
:101780004A0A80E590E00E94300A08950E9401090B
:1017900080931F02833049F018F4813091F008954E
:1017A000843041F0853049F0089589EA90E00E9444
:1017B000300A07C08EEA90E006C089EA90E00E94F5
:1017C0004A0A89EA90E00E94300A08950E940109BD
:1017D00080931D02833049F018F4813091F0089510
:1017E000843041F0853049F008958AEA90E00E9403
:1017F000300A07C088EA90E006C08AEA90E00E94BA
:101800004A0A8AEA90E00E94300A08950E9401097B
:1018100080932102833019F481E00E94D41D089541
:101820000E94010980931B02833019F481E00E9419
:10183000D41D0895A6E0B0E0E0E2FCE00C948D2316
:1018400026E0FC01DE01119601900D922A95E1F748
:10185000FC01258189819A81222359F0662349F070
:101860000E942F1D182F682F89819A810E949F1D29
:1018700003C00E946B1D182F69817A81812F0E94FD
:10188000CE182696E3E00C94A923A4E3B0E0EBE4A1
:10189000FCE00C948D234FA758AB69AB7AAB8BABB4
:1018A0009CAB911110923403CE01889627E0DC01A5
:1018B0001D922A95E9F726E0FE01BF96DC01019012
:1018C0000D922A95E1F72CA52223E1F061E00E9418
:1018D0001A0C809177028823A9F08DA5811102C08E
:1018E00087E001C086E0898388A58A8389A58B83E8
:1018F0008EEF8C8340E250E0BE016F5F7F4F82E04D
:101900000E940C1F87E0FE01B896DE0191960190BF
:101910000D928A95E1F7CE0181960E94F91A811104
:101920002CC087E0FE01B196DE01119601900D9268
:101930008A95E1F76DA1662301F12091810230E0E3
:10194000C9010196877099274091BA0250E0841727
:10195000950761F16D8397E0929FD001939FB00D41
:101960001124AE57BD4FFE01319601900D929A950C
:10197000E1F7809381020E94961A17E08091BA02E3
:10198000909181028917F9F0189FC00111248E5798
:101990009D4F0E94F91A8823B1F08091BA0290E01D
:1019A0000196877099278093BA02E8CF0E94181E8B
:1019B000109281021092BA02EAE7F2E087E0DF01BA
:1019C0001D928A95E9F7E496E3E00C94A923279801
:1019D0002F982F98089526982E982E980895259838
:1019E0002D982D980895279A2F9A0895269A2E9A21
:1019F0000895259A2D9A0895A0E2B0E0E2E0FDE076
:101A00000C948C23082F0E94C008182F5E980E9407
:101A1000EF0C0E94EB0C0E94E70C812F90E0FC0180
:101A20003197E730F105A8F4EB56FF4F0C940D24E5
:101A30000E94F90C0EC00E94F90C0E94F60C09C01D
:101A40000E94F90C04C00E94F90C0E94F60C0E943E
:101A5000F30C809177028823D9F08091190218172E
:101A6000B9F0109319028FE39CE90197F1F700C0D8
:101A7000000085E08983809119028A838EEF8B8331
:101A800040E250E0BE016F5F7F4F82E00E940C1F7A
:101A9000802FA096E4E00C94A823A0E2B0E0E3E558
:101AA000FDE00C948E239FEF99838A8340E250E0FF
:101AB000BE016F5F7F4F82E00E940C1FA096E2E0A4
:101AC0000C94AA23A1E0B0E0E8E6FDE00C948C239E
:101AD0008730F8F420910B0130910C01232BD1F5C4
:101AE00021E030E0A90102C0440F551F8A95E2F7BA
:101AF000CA01809589830AE010E0AE014F5F5F4F15
:101B000062E180E40E94832290930C0180930B0198
:101B100021C090E0FC01EF54FE4F208121111AC03A
:101B2000F894FC01ED55FE4F8081E82FE295EF70AF
:101B3000F0E031A1282F2F7081E090E001C0880FE4
:101B40002A95EAF7932F982B91A392A18095892348
:101B500082A378942196E4E00C94A8230F931F931A
:101B6000CF9308EB11E0C7E0F80181918F0181115B
:101B700003C08C2F0E941B09CF5FCE30A9F7CF91F5
:101B80001F910F910895A1E0B0E0E9ECFDE00C9405
:101B90008C23082F8730C8F480910B0190910C01A1
:101BA000892BE9F519820AE010E021E030E0AE016E
:101BB0004F5F5F4F63E180E40E94D12290930C015C
:101BC00080930B01898180952BC00E94620DADE945
:101BD000B1E020E030E010E051E04D91E42FE295DB
:101BE000EF70F0E080A190E04F7002C0959587956E
:101BF0004A95E2F780FD07C0852F022E01C0880FAD
:101C00000A94EAF701C080E0182B2F5F3F4F26307F
:101C1000310519F7802F0E941B09812F01C080E038
:101C20002196E4E00C94A823CF93DF93ADE9B1E0D3
:101C300043EA51E061E070E0F8948D91E82FE2957D
:101C4000EF70F0E021A18F70EB0102C0CC0FDD1F1F
:101C50008A95E2F7CE019C2F9095922391A392A1B1
:101C6000892B82A378944A175B0731F7DF91CF91D4
:101C70000895A2E0B0E0EFE3FEE00C948C2380E254
:101C800090E090930C0180930B01809118028111D8
:101C90000EC00E94062281E0809318022FEF83ED90
:101CA00090E3215080409040E1F700C0000019828D
:101CB0008FE38A830AE010E022E030E0AE014F5F5C
:101CC0005F4F60E080E40E94832290930C01809338
:101CD0000B01892B69F422E030E0AE014F5F5F4FCA
:101CE0006CE080E40E94832290930C0180930B01AE
:101CF00080910B012296E4E00C94A82380913B0292
:101D000087FF11C08091E80082FD05C080913902F3
:101D10008111F8CF11C08091E8008B770BC08091C2
:101D20003902882349F08091E80080FFF8CF809144
:101D3000E8008E778093E8000895982F973068F533
:101D40009093E900981739F07091EC002091ED0024
:101D50005091F00003C0242F762F50E021FD02C0E7
:101D60009F5FECCF3091EB003E7F3093EB003091E2
:101D7000ED003D7F3093ED003091EB00316030930A
:101D8000EB007093EC002093ED005093F000209155
:101D9000EE0027FDE5CF80E008958F708093E90085
:101DA00081E00895209141023091420226173707C1
:101DB00048F06115710539F42091E8002E772093E1
:101DC000E80001C0B901FC0120E06115710579F15D
:101DD000809139028823F1F18530F1F18091E8009A
:101DE00083FD3CC08091E80082FD2EC08091E80018
:101DF00080FFEBCF2091F3008091F20090E0922BD6
:101E00006115710551F08830910538F421912093C6
:101E1000F100615071090196F3CF21E0089709F0B4
:101E200020E08091E8008E778093E800CECF2111EA
:101E3000CFCF0AC080913902882361F0853061F0EC
:101E40008091E80083FD0AC08091E80082FFF2CF14
:101E500080E0089582E0089583E0089581E0089588
:101E6000089543E050E0BC0184E00E940C1F0895F7
:101E700040E250E0BC0184E00E940C1F0895CF9323
:101E8000DF93EC0148E050E0BC0181E00E940C1FB0
:101E900088E0FE01AFE2B2E001900D928A95E1F791
:101EA000DF91CF910895AAE2B0E0E9E5FFE00C945C
:101EB0008D23EBE3F2E083E492E02091F1002193A3
:101EC0008E179F07D1F780913C02833009F463C0DD
:101ED00030F4813071F0823009F49DC0B4C08A3092
:101EE00009F489C08B3009F46EC0893009F0ABC0A9
:101EF00020C080913B02813A09F0A5C08091E800A2
:101F0000877F8093E80080913F0290914002892B67
:101F100021F468E08FE292E003C060E080E090E0AE
:101F200070E00E94D20E8091E8008B778093E800E9
:101F30008AC080913B02813209F085C080913F02C6
:101F400090914002009719F0029709F07CC08091AF
:101F5000E800877F8093E8008091E80082FD05C05B
:101F6000809139028111F8CF6EC02091F3008091E9
:101F7000F20090E0922B029731F48091F1008130D1
:101F800011F0863021F48091F10080932E0280912F
:101F9000E8008B7754C080913B02813A09F053C02E
:101FA00080913F0290914002892B09F04CC08091B2
:101FB000E800877F8093E8008091E80080FFFCCFF5
:101FC0008091000137C080913B028132E1F5809120
:101FD0003F0290914002892BB1F58091E800877F04
:101FE0008093E8000E947E0E80913D028093000164
:101FF0000E94181E28C080913B02813221F58091F9
:10200000E800877F8093E8000E947E0E80913E0268
:1020100080932D0218C080913B02813AA1F48091F7
:10202000E800877F8093E8008091E80080FFFCCF84
:1020300080912D028093F1008091E8008E7780934B
:10204000E8000E947E0E8091E80083FFEBC1809142
:102050003B0290913C02492F50E04A30510508F074
:10206000E1C1FA01E456FF4F0C940D24803821F0B1
:10207000823809F0D7C108C08091370290913802A8
:10208000992389F082600FC080913F028F70873062
:1020900008F0C8C18093E9008091EB0085FB882798
:1020A00080F91092E9009091E800977F9093E80002
:1020B0008093F1001092F1007CC1282F2D7F09F050
:1020C000B1C1882319F0823061F0ACC180913D022A
:1020D000813009F0A7C1933009F080E08093380285
:1020E0002EC080913D0281112AC080913F028F70E5
:1020F0002FEF280F263008F095C18093E90020913A
:10210000EB0020FF1CC0933021F48091EB00806233
:1021100014C09091EB0090619093EB0021E030E0CF
:10212000A90102C0440F551F8A95E2F74093EA00C7
:102130001092EA008091EB0088608093EB0010928F
:10214000E9008091E800877F8093E8000E947E0E7E
:1021500069C1811167C110913D021F778091E30031
:102160008078812B8093E3008091E800877F8093C3
:10217000E8000E947E0E8091E80080FFFCCF8091F5
:10218000E30080688093E300111102C082E001C087
:1021900083E08093390246C18058823008F042C102
:1021A00020913D0230913E022C3D53E0350779F5F8
:1021B00083E08A838AE289834FB7F894DE0113961D
:1021C00020E03EE051E2E32FF0E050935700E4912D
:1021D00020FF03C0E295EF703F5FEF708E2F90E01D
:1021E000EA3010F0C79601C0C0968D939D932F5F83
:1021F000243149F74FBF8091E800877F8093E80042
:102200006AE270E0CE0101960E94D20EC0C08091B9
:102210003F0290914002432F552743305105B1F0C2
:1022200068F44130510509F40CC14230510509F000
:10223000F9C08BE590E0E7EEF2E057C0413251057E
:1022400089F14232510509F43CC0ECC0C90199271B
:1022500081309105B9F070F082309105D9F0039783
:1022600009F0E0C0E4E5F3E0E4918E2F90E0E4E5CE
:10227000F3E038C0E2EBF3E0E4918E2F90E0E2EB84
:10228000F3E030C0E8E8F3E0E4918E2F90E0E8E876
:10229000F3E028C0E0E7F3E0E4918E2F90E0E0E780
:1022A000F3E020C08330910508F0BCC0880F991F6F
:1022B000FC01E853FE4F0190F081E02D89E090E0B1
:1022C00014C08330910508F0ADC0FC01EE0FFF1F74
:1022D000EE53FE4F0190F081E02DDC01A154BE4F82
:1022E0008C9190E0009709F49DC02091E800277F31
:1022F0002093E800209141023091420228173907CB
:1023000008F4C90140E0009789F1209139022223A5
:1023100009F43DC02530D9F12091E80023FD37C0F4
:102320002091E80022FD2FC02091E80020FFEBCF94
:102330004091F3002091F20030E0342B009759F0E7
:102340002830310540F444914093F10031960197D3
:102350002F5F3F4FF3CF41E02830310509F040E0D7
:102360002091E8002E772093E800CDCF4111CDCF0A
:102370000AC080913902882351F0853041F0809164
:10238000E80083FD04C08091E80082FFF2CF8091D5
:10239000E8008B778093E80045C0803809F042C0A0
:1023A0008091E800877F8093E80080913A028093D3
:1023B000F1008091E8008E77C7CE811133C0809103
:1023C0003D0290913E029927029764F58091E800C2
:1023D000877F8093E80010913D0210933A020E949B
:1023E0007E0E111106C08091E30087FD02C081E0DE
:1023F00001C084E08093390242E061EC81E00E94F8
:102400009D0E42E261EC84E00E949D0E42E261EC8E
:1024100082E00E949D0E42E260EC83E00E949D0EED
:10242000809139028091E80083FF10C08091E8001C
:10243000877F8093E8008091EB0080628093EB00BF
:1024400005C082E190E0E2E4F3E04FCFAA96E3E03A
:102450000C94A9231F920F920FB60F9211242F9361
:102460003F934F935F936F937F938F939F93AF931C
:10247000BF93CF93DF93EF93FF93C091E900CF70A9
:102480008091EC00D82FD17080FDD0E81092E90047
:102490008091F000877F8093F00078940E94530F22
:1024A0001092E9008091F00088608093F000CD2BBD
:1024B000CF70C093E900FF91EF91DF91CF91BF9171
:1024C000AF919F918F917F916F915F914F913F91CC
:1024D0002F910F900FBE0F901F901895E8EDF0E030
:1024E00080818E7F80831092E2001092DA00109239
:1024F000E100A0EEB0E08C9181608C9380818F77B9
:10250000808319BCA7EDB0E08C918E7F8C93808185
:102510008F7E808310922C020895A0E0B0E0E3E962
:10252000F2E10C948823C8EDD0E088818F7E888307
:10253000E7EDF0E080818160808384E082BF81E00C
:1025400080932C0288818E7F888302EE10E0F80150
:1025500010821092DA0081EEC82ED12CF601108282
:1025600088818F77888388818068888388818F7D40
:10257000888319BC1092390210923A0210923802E4
:102580001092370290EEE92EF12CF70180818B7FBB
:10259000808388818160888342E060E080E00E94DF
:1025A0009D0EF60180818E7F8083F801808181609D
:1025B0008083808188608083F70180818E7F808323
:1025C000888180618883CDB7DEB7E8E00C94A423CE
:1025D0001F920F920FB60F9211242F933F934F9398
:1025E0005F936F937F938F939F93AF93BF93EF937B
:1025F000FF938091E10082FF09C08091E20082FF99
:1026000005C08091E1008B7F8093E1008091DA002A
:1026100080FF2AC08091D80080FF26C08091DA0018
:102620008E7F8093DA008091D90080FF18C080E10E
:1026300089BD82E189BD09B400FEFDCF81E08093B0
:10264000390280912C0281110FC00E946E120E94EB
:102650008D128091E20084608093E20005C019BC75
:102660001092390210922C028091E10080FF17C075
:102670008091E20080FF13C08091E2008E7F809302
:10268000E2008091E20080618093E2008091D800B6
:1026900080628093D80019BC85E0809339028091D4
:1026A000E10084FF30C08091E20084FF2CC080E113
:1026B00089BD82E189BD09B400FEFDCF8091D800BB
:1026C0008F7D8093D8008091E1008F7E8093E10020
:1026D0008091E2008F7E8093E2008091E200816031
:1026E0008093E20080913A02882311F084E007C0D1
:1026F0008091E30087FD02C081E001C083E0809308
:102700003902809139028091E10083FF27C08091D6
:10271000E20083FF23C08091E100877F8093E10086
:1027200082E08093390210923A028091E1008E7F1C
:102730008093E1008091E2008E7F8093E20080919F
:10274000E20080618093E20042E060E080E00E946D
:102750009D0E8091F00088608093F000FF91EF91D2
:10276000BF91AF919F918F917F916F915F914F91A9
:102770003F912F910F900FBE0F901F9018952091B1
:10278000E4003091E50095E64091EC00842F8170E3
:1027900040FF23C08091E80080FD1DC08091390278
:1027A000882399F0853099F08091EB0085FD11C068
:1027B0004091E4005091E5002417350729F391502A
:1027C00011F09A01E1CF84E0089582E0089583E05A
:1027D000089581E0089580E008954091E80042FF67
:1027E000DDCF0895A6E4B0E0E8EFF3E10C94822396
:1027F00085B7806885BF85B7806885BF84B7877FC8
:1028000084BF0FB6F894A89580916000886180938A
:102810006000109260000FBE90E080E80FB6F89460
:1028200080936100909361000FBE8BE997E19093D4
:102830001502809314020E946E120E948D128091E4
:10284000E20084608093E2007894809139028823CA
:10285000A1F01091E9001F709091EC00892F817018
:1028600090FD80E8182B1092E9008091E80083FD2C
:102870000E94530F1F701093E90082E084BD93E023
:1028800095BD9AEF97BD80936E000E94390E90E03F
:1028900090930C0180930B010E94AE0D0E94140EC8
:1028A000E3E4F2E081E592E0A7E5B2E011921D9247
:1028B0008E179F07D9F780E090E00E94C323853EE2
:1028C0009E4F09F46EC065EE7EEF80E090E00E94BE
:1028D000F72360E082E090E00E94D92381E08093BA
:1028E000510261E083E090E00E94D92360E074E14E
:1028F00084E090E00E94F72360E086E090E00E9490
:10290000D92360E087E090E00E94D92340E050E0C6
:10291000BA0188E090E00E94EB2360E083E290E05F
:102920000E94D92360E08CE090E00E94D92360E00F
:102930008DE090E00E94D92319821A821B821C82AA
:102940001D821E821F82188648E050E067E170E019
:10295000CE0101960E94C92340E050E0BA018FE108
:1029600090E00E94EB2310925302109254021092B6
:1029700055021092560284E0809353024091530214
:102980005091540260915502709156028FE090E090
:102990000E94EB2340E050E0BA0183E190E00E9406
:1029A000EB2382E090E00E94B5238093650284E0EF
:1029B00090E00E94C32390933F0380933E030E94C4
:1029C000A41C8FEF93EFE1E081509040E040E1F7ED
:1029D00000C000000E94A41C8091570280FF08C024
:1029E0006FEF7FEF80E090E00E94F7230E945C1F72
:1029F00083E090E00E94B5230E94F21D8091520274
:102A00000E94FC0C89EA8093800089E08093810019
:102A100024982C983F98479A54985C9A55985D9AB8
:102A20006E98769A569A8FE090E00E94BD2360934C
:102A3000530270935402809355029093560267702C
:102A40001FEF169FB00111247595679575956795D1
:102A50007727709389006093880070938B00609350
:102A60008A0070938D0060938C005E980E94EF0C3A
:102A70000E94EB0C0E94E70C8FEF90E0909389008E
:102A80008093880090938B0080938A0090938D00B0
:102A900080938C000E94F90CFFEF20E782E0F15058
:102AA00020408040E1F700C000000E94F60C9FEF3C
:102AB000E0E7F2E09150E040F040E1F700C00000B4
:102AC0000E94F30C2FEF80E792E02150804090406D
:102AD000E1F700C000000E94EF0CEFEFF0E722E00A
:102AE000E150F0402040E1F700C000000E94EB0CF4
:102AF0008FEF90E7E2E081509040E040E1F700C0C6
:102B000000000E94E70C809153028770189FC0015B
:102B10001124959587959595879599279093890088
:102B20008093880090938B0080938A0090938D000F
:102B300080938C005E980E94EF0C0E94EB0C0E9428
:102B4000E70C81E091E090933B0380933A0308E126
:102B500010E080913902853009F058C050E4B52E5C
:102B600065E6E62E62E0F62E70E1C72EE2E1DE2E8B
:102B700080913902853009F045C080913902843056
:102B800009F1109240030FB6F894A89500936000E5
:102B90000FBEB092600083B7817F846083BF83B72C
:102BA000816083BF7894889583B78E7F83BF0FB68B
:102BB000F894A895809160008861809360001092DD
:102BC00060000FBE80913802882391F20E94390E76
:102BD00090E090930C0180930B010E94AE0D0E9437
:102BE000140EE7E5F2E01192EE16FF06E1F70E94FF
:102BF000A41CE7E5F2E08191811187C1EE16FF0682
:102C0000D1F7B6CF0E94181E0E94A7200E94A41CD4
:102C100046E6C42E42E0D42EA7E5B2E0F60191913B
:102C20008D91892722E0E437F20719F08823B9F360
:102C300005C0811103C00E94801C55C037E5832E5A
:102C400032E0932EF12CF40171904F01F601A08037
:102C5000A724B9F1E12CBB24B394662463948A2D94
:102C60008B2141F12296EFAE22972396FFAE239758
:102C70000E94C31F25969FAF8EAF259726966FAEF5
:102C8000269791E0872D8B2109F490E027969FAF3E
:102C9000279722964FAD229723965FAD23972496D0
:102CA0006FAD249725967FAD259726968FAD2697F5
:102CB0000E94450CE394BB0CF6E0EF12D0CFF60176
:102CC0007082F394FFEFCF1ADF0A2EE0F212BBCF2F
:102CD0008FB7F894409141035091420360914303B0
:102CE000709144038FBF8091360390913703892BF5
:102CF000E9F080917402909175020E94B41F893CA2
:102D00009105A0F08091360390913703992724E034
:102D1000880F991F2A95E1F7FC01EE5EFE4F208196
:102D200022FD04C0835F9E4F0E94D3200E94A720F3
:102D300090917602891769F0809376028FB7F894A4
:102D400040914103509142036091430370914403C9
:102D50008FBF80913902843009F0FBCE83E08093ED
:102D6000E9008091E80082FFF4CE8091E80085FFC1
:102D700024C00E94BF1381111EC080E2E82EF12CF6
:102D80006E0181E2C80ED11C09C08091F100F601EC
:102D900081936F01F1E0EF1AF10869F08091E8008A
:102DA00085FDF3CF8091E8008B778093E8000E9447
:102DB000BF13882399F391E001C090E08091E8006F
:102DC0008B778093E800992309F4C3CE89A18630DC
:102DD00009F479C0B0F4823009F4BBCE60F48823E2
:102DE00029F1813009F08DC08093770284E08983D6
:102DF0008EEF8A837DC0843031F1853009F463C061
:102E000080C0893009F45FC030F4873099F1883090
:102E100009F459C076C08A3009F457C08E3F09F0D2
:102E200070C0898394E09A838B8362C019828DE09D
:102E3000EEECF1E0DE01129601900D928A95E1F739
:102E40008EEF8E8755C080917702882309F481CE5A
:102E50008AA1811104C08BA10E94D91D7ACE81E084
:102E600090E00BA002C0880F991F0A94E2F70E941D
:102E7000D41D6FCE81E0809379028AA18230C1F0A7
:102E800000F5882319F0813051F01BC08BA18823F5
:102E900019F00E94F90C5DCE0E94EF0C5ACE8BA166
:102EA000882319F00E94F60C54CE0E94EB0C51CEF0
:102EB0008BA1882319F00E94F30C4BCE0E94E70CE3
:102EC00048CE85E01FC084E01DC08AA1FF24F39492
:102ED000811101C0F12CF0927902811106C00E948B
:102EE000EF0C0E94EB0C0E94E70C8BE08983FA82C6
:102EF00040E250E0BE016F5F7F4F82E00E940C1FF6
:102F000028CE8FEF0E944D0D24CEC9BCD9BC09B488
:102F100000FEFDCF8091D8008F7D8093D8008091F6
:102F2000E00082608093E0008091E00081FDFCCFB2
:102F30000E94181E1DCE80E0089590913E0392FFDE
:102F400010C041E0282F2471243009F040E031E026
:102F5000282F2871283009F030E0431711F02CE0B9
:102F6000822793FF10C041E0282F2471243109F0FB
:102F700040E031E0282F2871283109F030E0431774
:102F800011F02CE0822730913F0330FF10C051E058
:102F9000282F2171213009F050E041E0282F2871BD
:102FA000283009F040E0541711F029E0822731FF62
:102FB00010C041E0282F2171213109F040E031E0BB
:102FC000282F2871283109F030E0431711F029E04B
:102FD000822794FD877E08958238910569F1B0F4C7
:102FE0008133910509F475C048F48932910509F4DB
:102FF00067C08A32910509F471C00895853391053F
:1030000009F459C089339105B9F00895833E9105BB
:1030100089F138F4803E9105D1F0823E910529F185
:103020000895863E9105C9F1873E9105D9F1843E08
:10303000910509F06CC027C020913E0320FD57C0C8
:1030400021FD55C020913F0323FD5BC00895809171
:103050003E0380FD48C080913F0380FF48C08091BF
:103060003E0384FD46C083EE51C080913E0382FF43
:103070003CC0F5CF80913E0382FD37C080913F0375
:1030800080FD35C0ECCF80913F0381FF36C0809139
:103090003E0384FD2EC087EE39C080913E0383FF3E
:1030A0002AC0F5CF80913E0383FD25C080913F0368
:1030B00081FD23C0ECCF80913E0385FD22C01FC05F
:1030C00080913E0385FD1BC080913F0383FF19C0A3
:1030D0000AC080913E0386FD16C017C080913E0352
:1030E00086FD13C010C089E311C082EE0FC080EED0
:1030F0000DC080E00BC086EE09C084EE07C085E3FA
:1031000005C089E203C08AE201C081E390E008952E
:103110009091350380913403892B9091BC029923BF
:10312000E1F0892B90910001992341F090913E03A9
:1031300097FF04C09EE126E133E003C096E02EE055
:1031400033E0F90120E0915028F031913323D9F395
:103150002F5FF9CF21111092BC0208952091BA027D
:103160009091810257E02917A9F030E0529FF001B9
:10317000539FF00D1124EE57FD4F7181761306C059
:103180007081781303C07581741306C02F5F3F4FA1
:103190002770E9CF80E0089581E008957E30B0F493
:1031A0006630A0F48430A0F494E5899FF0011124E6
:1031B00086E0789FE00DF11D1124E60FF11DEE0F62
:1031C000FF1FEA54FC4F85919491089580E001C05F
:1031D00081E090E008951F93CF93DF930E94EC1756
:1031E000EC01C11580E5D807E8F5C11590E4D907D1
:1031F00008F0A8C0C03ED10530F5CD3CD10508F09F
:1032000094C0C83AD10578F4C53AD10508F083C016
:10321000C130D10509F47CC008F4F2C0C430D10536
:1032200008F0F1C0EDC0C33CD10508F0E9C0C85AB0
:10323000D0E0CC0FDD1FC252DE4F0990D881C02DE7
:10324000CE019464E1C0C11580E2D80708F0CBC07C
:10325000C11591E0D90708F06BC0C83ED10508F44C
:10326000D2C0CEC0C03682E5D80728F5C03492E57A
:10327000D90708F079C0C03282E5D80708F06CC0E1
:10328000C11592E5D90708F481C04C2F46954695A3
:1032900080E2489FA0011124C37021E030E0C90101
:1032A00002C0880F991FCA95E2F7EA01C82BD92BF3
:1032B000CE019D68A9C0C03A82E5D807B8F48C2F2A
:1032C0008F71C03892E5D90708F07BC08695869546
:1032D00090E2899F90011124C37081E090E002C0C8
:1032E000880F991FCA95E2F79A6868C0C03C82E5CA
:1032F000D80708F46DC0C03E92E5D90708F080C039
:10330000CF71DD27DC2FCC27CE01806F906A7CC087
:1033100081E090E079C0C55AD0E0C552DE4F888187
:10332000C82FD0E0CE0190646FC0CE0190656CC014
:103330008D2F0E949D17182FCE0199270E94EC1700
:103340001F715CC0CE0199270E94EC17CC27DF705B
:10335000D06A8C2B9D2B58C0CF71D0E0DC2FCC27AE
:10336000CE01816F906A50C08C2F8F7186958695A3
:1033700090E2899F90011124C37081E090E002C027
:10338000880F991FCA95E2F79C6818C08C2F8F711F
:103390000E949D1795E0D695C7959A95E1F7CF7055
:1033A000D0E0DC2FCC27282F30E084FF05C084E05C
:1033B000220F331F8A95E1F7D069CE01822B932B20
:1033C00023C090E0D82FCC27CE01846F906A1CC018
:1033D0008C2F8F710E949D178F7190E0D82FCC2772
:1033E000CE01906211C08D2F8F710E949D17182FF2
:1033F000CE0199270E94EC171F719062912B04C097
:1034000080E090E001C0CE01DF91CF911F9108953F
:103410008095909134038923809334030895809597
:10342000909135038923809335030895809100019D
:10343000882351F180913E0387FF26C00E9488189F
:103440008093150340E250E06DEB72E084E193E07D
:103450000E941324892BD9F180E2E4E1F3E0ADEB83
:10346000B2E001900D928A95E1F7E0913A03F09174
:103470003B03309761F186E0809314030480F5816B
:10348000E02D84E193E022C00E94881880930C0311
:1034900048E050E06DED72E08CE093E00E94132470
:1034A000892BA9F088E0ECE0F3E0ADEDB2E001900B
:1034B0000D928A95E1F7E0913A03F0913B03309742
:1034C00031F00280F381E02D8CE093E009950895BE
:1034D0009091BB02809589238093BB02282F27708F
:1034E00069F4981759F090913F0392FF07C08695B1
:1034F000869586950E94D91D1092BB0208959091E1
:103500003F0392FB222720F9281779F080FB92F9DC
:1035100090933F0360913E0370913F0384E090E0FD
:103520000E94F72382E00E94681A08958091BA02EF
:1035300090918102891719F08F5F8770FBCF0895F2
:10354000CF93DF938091800282958F7009F04EC0F7
:1035500080917F02882309F449C08091BA0240918A
:10356000810250917B0260917A02C0917C02D091DD
:103570007D0277E08417D1F190E0789FF001799F88
:10358000F00D1124DF01AE57BD4F14962C91149706
:10359000222349F111962C911197251324C02C91C7
:1035A000261321C015962C91159721111CC0129637
:1035B0002D913C9113972C1B3D0B283C310598F421
:1035C000809180028F70806180938002E857FD4F68
:1035D00080818F70806180838AE792E00E94A203DD
:1035E0000E94961A03C001968770C4CFDF91CF91D5
:1035F0000895A4E1B0E0EFEFFAE10C9484238C018C
:1036000086E0F801DE011F9601900D928A95E1F7A0
:10361000F8018481E5809AE7892E92E0992E9091B5
:103620007E02911120C0882309F463C1EE2009F4C1
:1036300042C0C8010E94F51DF82E8823E1F187E001
:10364000F801D40101900D928A95E1F780917E02F4
:10365000813031F480917A0290917B020E945E1D4C
:103660000E94A01A48C1F801D080C180A280B38016
:10367000F0907F0220917C0230917D02FF2009F4BE
:10368000E7C0A501421B530B483C510508F09DC003
:10369000882309F430C180918002282F207F9091E7
:1036A0007B02222361F09C1509F460C0C8010E94CE
:1036B000F51D811163C0C8010E94A2031AC19C11AB
:1036C00013C090917A029D110FC0E1100DC08F7050
:1036D0008061809380028AE792E00E94A203809139
:1036E0008002F801868303C1E1103AC040E06C2DEE
:1036F0008D2D0E94AE1840E06C2D8D2D0E94AE18CD
:10370000E82E8111F4C0DF86C88A8F8598890E94CF
:103710005E1D292F22952F70243020F49F702230B7
:1037200028F009C02A50223080F014C0992349F0B3
:10373000811107C013C0992321F0F8019681907F71
:1037400069F0805E883030F409C0803F38F0815FD6
:10375000833020F0C8010E94A203EF2CFE2CCBC0C6
:1037600080918002816080938002C1C090917A0232
:103770009D119CCFE1109ACFF80198C0EE2009F47A
:103780009ACF20918002822F82958F7090E00297CD
:103790008CF080917A0290917B0299878887BB8612
:1037A000AA8680917E028C871D862E87CE01089680
:1037B0000E94A20387E0F801AAE7B2E001900D920F
:1037C0008A95E1F70E94A01A94C090918002292F57
:1037D000207F51F48AE792E00E94A20387E0F4017F
:1037E00011928A95E9F783C0882309F484C08091F7
:1037F0007B028C110CC080917A028D1108C0E110FF
:1038000006C0F8019683C8010E94A2036AC0C801DD
:103810000E94F51D882309F44ECFEE2009F44BCF0A
:1038200020918002822F82958F7090E0029714F28F
:1038300080917A0290917B029A838983BC82AB82C9
:1038400080917E028D831E822F83CE010196B0CFA0
:10385000A21AB30AF8ECAF16B10408F042C08823EC
:1038600009F447C0FE2CEE2009F425CF80917B029D
:103870008C1129C080917A028D1125C0909180020F
:1038800090FD18C0892F82958F70282F30E0211568
:10389000310581F0F80196832F30310541F08F5FBB
:1038A000982F9295907F86818F70892B8683C8018F
:1038B0000E94A20387E0F801AAE7B2E001900D920E
:1038C0008A95E1F718C0C8010E94F51D811172CFD9
:1038D00080918002816080938002C8010E94A203CF
:1038E0000AC087E0F40111928A95E9F704C0F12C2F
:1038F00002C0FF24F3948F2D6496ECE00C94A02377
:10390000A6E0B0E0E6E8FCE10C948C230E94C31F23
:103910008C018091E5029091E6020817190781F069
:1039200019821A820E94C31F682F49815A81792FF8
:1039300080E090E00E94450C1093E6020093E502BF
:103940002696E4E00C94A823EF92FF920F931F9326
:10395000CF93DF9380910B0190910C01892BD9F0CB
:103960008091E7028F5F8093E702811114C00E946B
:10397000390E90E090930C0180930B01892B59F440
:103980002FEF83EC99E0215080409040E1F700C098
:1039900000000E94511F03E412E0C0E0D0E087E085
:1039A000E82EED0E8D2F0E94620D8E2D0E94620D6D
:1039B0008D2F0E94C30D8F73F8019081891721F01C
:1039C0008083FF24F39401C0F12C8E2D0E94C30D3F
:1039D0008F73F8019781891719F0878381E001C0FF
:1039E00080E0F82ACF290E94AE0DDF5F0F5F1F4FE6
:1039F000D730A9F6CC2359F081E08093EA020E94E7
:103A0000C31F9093E9028093E802C0E022C0809136
:103A1000EA028823F1F08091E8029091E9020E9485
:103A2000B41F4497B0F04EE050E063E472E087E5E5
:103A300092E00E941324892B51F08EE0E3E4F2E03F
:103A4000A7E5B2E001900D928A95E1F7C1E01092EE
:103A5000EA028C2FCDB7DEB7E6E00C94A623CF9216
:103A6000DF92FF920F931F93CF93DF936C0100912E
:103A7000520280915102082BC7E0D0E010E0C8014B
:103A80000C2E02C0959587950A94E2F780FD04C03C
:103A90002197A8F7F12C09C0FC2EB6018C2F0E94AB
:103AA000CE180E94EB18019799F38F2DDF91CF91DB
:103AB0001F910F91FF90DF90CF900895CF93DF93E8
:103AC000EC010E942F1DBE010E94CE180E94EB182F
:103AD000DF91CF910895292F9E3078F5863068F5D3
:103AE00090E036E0239F800D911D1124682F6770B0
:103AF00023E0969587952A95E1F7FC01EE0FFF1FCD
:103B0000E80FF91FE551FD4F40E050E080E02191C2
:103B100030E0062E02C0369527950A94E2F7217010
:103B20003327042E01C0220F0A94EAF7822B4F5F3D
:103B30005F4F4330510559F7089580E00895292FCC
:103B40009E3088F5863078F590E036E0239F800D32
:103B5000911D1124282F277051E001C0550F2A957F
:103B6000EAF723E0969587952A95E1F7FC01EE0F99
:103B7000FF1FE80FF91FE551FD4F20E030E070E036
:103B80004081CB01022E02C0969587950A94E2F7F8
:103B90008170819584278523842781932F5F3F4FF0
:103BA0002330310569F708950E94FC0C809352027E
:103BB000089521E030E001C0220F8A95EAF72095B0
:103BC0008091520282230E94D41D089521E030E0AA
:103BD00001C0220F8A95EAF780915202822B0E943F
:103BE000D41D0895809351020895FC01248122235D
:103BF000D9F0808191810E945E1D92959F709630D0
:103C000079F010F4925001C09A50923068F4803FDD
:103C100069F018F4883E40F409C0843F29F406C0D6
:103C2000883E20F0813F11F080E0089581E0089502
:103C30001092350380910001882341F080913E036A
:103C400087FF04C08EE1E6E1F3E003C086E0EEE02A
:103C5000F3E0DF011D928A95E9F780E090E00E9491
:103C6000822080E090E00E945D20109234030E9448
:103C7000161A0895882321F00E94081A0E94161A25
:103C80000895882339F090913403892B809334036D
:103C90000E94161A0895882321F00E940F1A0E948C
:103CA000161A0895882339F090913503892B809353
:103CB00035030E94161A0895882339F19CEF980F56
:103CC000913A18F40E94F81F0DC090E2980F9830B6
:103CD00060F4877091E001C0990F8A95EAF7892F07
:103CE0000E940F1A0E94161A08959BE5980F9330B0
:103CF00028F480E090E00E9482200895885A8B3159
:103D000020F480E090E00E945D200895CF93882306
:103D100009F465C0C82F8CEF8C0F813AA0F5809113
:103D200000018823E1F080913E0387FF18C0EC2F4B
:103D3000E695E695E695F0E0EC5EFC4F8281282F53
:103D400030E04C2F477081E090E002C0880F991F4F
:103D50004A95E2F782239323892B61F410C0EEE0A9
:103D6000F3E084E193E02191C21721F08E179F07C1
:103D7000D1F705C08C2F0E94F81F0E94161A8C2FB5
:103D80000E94262010C080E28C0F883078F4C77023
:103D900081E090E001C0880FCA95EAF79091350361
:103DA000892B809335030E94161A19C0EBE5EC0F9E
:103DB000E33040F4F0E0E552FE4F808190E00E9455
:103DC00082200DC0C85ACB3150F4EC2FF0E0EE0F3A
:103DD000FF1FE252FE4F808191810E945D20CF91B2
:103DE00008951F93CF93DF93182FEB010E94861E37
:103DF000209741F08FE99FE00197F1F700C00000A4
:103E00002197F6CF812F0E945C1EDF91CF911F91E9
:103E1000089580912E0208950F931F93CF93DF93FF
:103E20008B01EA01909139029430A9F58F7080934B
:103E3000E9008FEF9091E800815095FD06C095ED67
:103E40009A95F1F700008111F5CF8091E80085FF88
:103E500022C00E94BF13811115C0209789F0809164
:103E6000E80085FD06C08091E8008E778093E80029
:103E7000F0CFF80181918F018093F1002197EDCF70
:103E800090E001C0982F8091E8008E778093E80041
:103E900081E0911101C080E0DF91CF911F910F91DE
:103EA00008959AE088E10FB6F894A8958093600091
:103EB0000FBE90936000FFCFF89481E08093E00004
:103EC00080E28093D800E9ECF0E010828FE19EE47C
:103ED0000197F1F700C000001DBA109268001CBCE9
:103EE00010BE1FBA10927A0010926E0010926F00EE
:103EF00010927100109272001082ECEBF0E01082D0
:103F000014B817B81AB81DB810BA108215B818B876
:103F10001BB81EB811BA0C94003F089578941F92F4
:103F20000F920FB60F9211248F939F93AF93BF936D
:103F30008091410390914203A0914303B0914403C7
:103F40000196A11DB11D8093410390934203A0935C
:103F50004303B0934403BF91AF919F918F910F9012
:103F60000FBE0F901F9018959C014FB7F894809149
:103F7000410390914203A0914303B09144034FBF8A
:103F8000821B930B08952FB7F89480914103909171
:103F90004203A0914303B09144032FBF08951F92A1
:103FA0000F920FB60F9211248F939F93AF93BF93ED
:103FB00080914003811113C080914103909142038D
:103FC000A0914303B09144034196A11DB11D80937C
:103FD000410390934203A0934303B0934403BF91E2
:103FE000AF919F918F910F900FBE0F901F901895DA
:103FF00090910001992321F090913E0397FD03C019
:10400000ECE0F3E01DC0E82FE695E695E695EE318D
:10401000E0F4F0E0EC5EFC4F877021E030E0A901B5
:1040200002C0440F551F8A95E2F7CA01809592811C
:10403000892382830895319653E0E231F50729F010
:1040400092818913F8CF1282F6CF089590910001E2
:104050009923D1F090913E0397FF16C0E82FE69583
:10406000E695E695EE3140F5F0E0EC5EFC4F8770AA
:1040700021E030E0A90102C0440F551F8A95E2F704
:10408000CA019281892B16C0AEE0B3E0EFEF90E059
:104090002D91821789F0EF3F19F4211101C0E92F0A
:1040A0009F5F9630A9F7EF3F39F00E2E000CFF0B03
:1040B000E45FFC4F828308950895A3E0B0E0E3E657
:1040C000F0E20C948E2320913C0330913D0328179D
:1040D0003907A1F090933D0380933C03E0913A03AC
:1040E000F0913B03309751F024E029839B838A832E
:1040F0000084F185E02DCE01019609952396E2E03A
:104100000C94AA23A3E0B0E0E8E8F0E20C948E233C
:10411000209138033091390328173907A1F0909383
:10412000390380933803E0913A03F0913B033097D1
:1041300051F023E029839B838A830084F185E02D5D
:10414000CE01019609952396E2E00C94AA23E09112
:104150003A03F0913B03309729F00190F081E02D74
:104160000995089580E008954115510511F0FA016F
:1041700009950895CF93DF93EC014A855B856E85A1
:104180007F850E94B4208B810E94081A8C810E9436
:104190000F1A0E94161A86E0FE0111928A95E9F71D
:1041A000DF91CF910895CF93DF93EC018D8181FD55
:1041B00017C082608D83909134038B81892B80930B
:1041C0003403909135038C81892B809335030E94B1
:1041D000161A488559856E857F85CE010E94B420C8
:1041E00010923703109236038D8180FD03C0CE01FB
:1041F0000E94BA20DF91CF910895A0E0B0E0E3E003
:10420000F1E20C948623EC018AE0A82EFE012491B1
:10421000222309F4A3C0213009F044C031968491CF
:10422000813059F42296FE018491893319F060E0BF
:1042300070E08EC060E570E08BC0823031F4229671
:10424000FE0184910E94861E87C0833031F422963D
:10425000FE0184910E945C1E7FC0843009F07BC007
:104260002296FE01249180E090E030E02053310955
:104270002A30310560F4A89EA001A99E500D11249A
:10428000C901840F951F2196FE012491EECF00975E
:1042900009F462C0EFE9FFE03197F1F700C00000D8
:1042A0000197F5CFE22FF0E0EA57F94FB490822F53
:1042B00086958695869590E0FC01EA58F94FE49042
:1042C0002770F12C022E02C0F594E7940A94E2F7CD
:1042D000F1E0EF22FF24FC01EA59F94FC490D12C00
:1042E000022E02C0D594C7940A94E2F731E0C322AB
:1042F000DD24FC01EA5AF94F049110E002C0159543
:1043000007952A95E2F701701127E114F10419F0DD
:1043100081EE0E94861EC114D10419F086EE0E941F
:10432000861E60E070E08B2D0E94F11EC114D10446
:1043300019F086EE0E945C1EE114F10419F081EE82
:104340000E945C1E0115110539F060E070E08CE2FE
:104350000E94F11E01C0EF01219658CFCDB7DEB704
:10436000EAE00C94A223EF92FF920F931F93CF9356
:10437000DF93182FEB011092BC0084EA8093BC00FD
:104380000E94C31F7C018091BC0087FD0DC0CF3F00
:104390008FEFD807C1F3C7010E94B41FC817D90710
:1043A00090F78EEF9FEF2DC08091B900887F883005
:1043B00041F08091B900887F803119F08FEF9FEF35
:1043C00020C01093BB0084E88093BC000E94C31FF0
:1043D0008C018091BC0087FD0BC0CF3F8FEFD807C9
:1043E000C1F3C8010E94B41FC817D90790F7D9CFED
:1043F0008091B900887F883111F08034F9F680E02F
:1044000090E0CDB7DEB7E6E00C94A6231092B90099
:104410008CE08093B80008950F931F93CF93DF93A0
:10442000EB018093BB0084E88093BC000E94C31F13
:104430008C018091BC0087FD0DC0CF3F8FEFD80766
:10444000C1F3C8010E94B41FC817D90790F78EEFB7
:104450009FEF0CC02091B900287F81E090E02832C6
:1044600011F480E090E0919581959109DF91CF91D1
:104470001F910F9108950F931F93CF93DF93EC013A
:1044800084EC8093BC000E94C31F8C018091BC000F
:1044900087FD0DC0CF3F8FEFD807C1F3C8010E9441
:1044A000B41FC817D90790F78EEF9FEF03C0809114
:1044B000BB0090E0DF91CF911F910F9108950F9372
:1044C0001F93CF93DF93EC0184E88093BC000E949C
:1044D000C31F8C018091BC0087FD0DC0CF3F8FEFC3
:1044E000D807C1F3C8010E94B41FC817D90790F7B5
:1044F0008EEF9FEF03C08091BB0090E0DF91CF91E2
:104500001F910F910895A0E0B0E0E9E8F2E20C9469
:104510008223682E762E5A0169010E94C31F4C0126
:104520000431110558F00F3F8FEF180751F0C80103
:1045300064E170E00E946A23EB0105C0C1E0D0E0B5
:1045400002C0C5E0D0E0BE01862D0E94B3217C01EF
:1045500097FF0BC00F3F8FEF1807A9F3C4010E940C
:10456000B41F0817190778F713C0B801872D0E94E8
:104570000C227C01E501CA0CDB1CCC15DD0541F0E9
:10458000F7FC06C0B80189910E940C227C01F5CF8E
:1045900084E98093BC00C701CDB7DEB7EEE00C9490
:1045A0009E23A0E0B0E0E7EDF2E20C948223782EA7
:1045B000662E7A01E9010E94C31F5C0104311105D6
:1045C00058F00F3F8FEF180759F0C80164E170E011
:1045D0000E946A236B0107C0CC24C394D12C03C072
:1045E00025E0C22ED12CB601872D0E94B3214C01AB
:1045F00097FF0BC00F3FEFEF1E07A9F3C5010E9405
:10460000B41F0817190778F72BC0B801862D0E9430
:104610000C224C0197FD24C0F72DF1607F2E0E94E3
:10462000C31F5C010431110528F10F3F8FEF1807FC
:1046300029F1C80164E170E00E946A236B01B601B0
:10464000872D0E94B3214C0197FD1CC06701219763
:10465000C6018E199F098C179D0758F597FE1DC03E
:1046600084E98093BC00C4011816190674F580E033
:1046700090E02BC0CC24C394D12CE1CF85E0C82E90
:10468000D12CDDCF0F3FEFEF1E07C9F2C5010E940D
:10469000B41F0817190798F6D9CFC8010E943B220A
:1046A0004C0197FD02C0F6018083FFEFCF1ADF0AAD
:1046B000CFCF97FCD5CFC8010E945F224C0197FD58
:1046C000CFCFCE0DDF1D8883CBCFCDB7DEB7EEE0E9
:1046D0000C949E23AA1BBB1B51E107C0AA1FBB1F42
:1046E000A617B70710F0A61BB70B881F991F5A957E
:1046F000A9F780959095BC01CD0108952F923F9226
:104700004F925F926F927F928F929F92AF92BF92E1
:10471000CF92DF92EF92FF920F931F93CF93DF938D
:10472000CDB7DEB7CA1BDB0B0FB6F894DEBF0FBEEA
:10473000CDBF09942A88398848885F846E847D8437
:104740008C849B84AA84B984C884DF80EE80FD8039
:104750000C811B81AA81B981CE0FD11D0FB6F894AF
:10476000DEBF0FBECDBFED010895F999FECF92BD1A
:1047700081BDF89A992780B50895A6E1B0E044E09C
:1047800050E00C94FF23A8E1B0E042E050E00C942C
:10479000FF23DC01A40FB51F4150504048F0CB016E
:1047A000840F951F2E910E94DA2341505040D0F77C
:1047B0000895262FF999FECF92BD81BDF89A0197F1
:1047C00000B4021639F01FBA20BD0FB6F894FA9A59
:1047D000F99A0FBE08950396272F0E94DA230E94AC
:1047E000D923252F0E94DA23242F0C94DA23019653
:1047F000272F0E94DA230C94D923DC01CB01FC0182
:10480000F999FECF06C0F2BDE1BDF89A319600B429
:104810000D9241505040B8F70895EE0FFF1F0590DC
:10482000F491E02D0994FB01DC0104C08D9101900D
:10483000801921F441505040C8F7881B990B089506
:04484000F894FFCF1A
:1048440001091F3F0F380F300F310F200000000007
:104854000000000000100C460900000000000000E9
:10486400000000130BE60B130A0000000000000018
:10487400000000F70AC60BF6090000000000000063
:104884000000000000060C3D0900000000000000CC
:10489400000000DB0AA60BD909000000000000009C
:1048A400000000BF0A860BBC0900000000000000E5
:1048B400000000A30A660B9F09000000000000002E
:1048C400000000870A460B82090000000000000077
:1048D4000000006B0A2F0B690900000000F0F1F4DE
:1048E400F5F6F700000000000000303132339293F7
:1048F4006601010101010101000000000000004403
:10490400226DA30281021402F90212033203596CCC
:104914004D35342F36613033614200818283E200A9
:10492400E900EA00B500B600B700CD008301CC0071
:104934008A01920194012102230224022502260203
:1049440027022A02B300B4006F0070009F01CB015C
:044954009F02A0021C
:00000001FF
