:100000000C94D7030C94F4030C94F4030C94F403B1
:100010000C94F4030C94F4030C94F4030C94F40384
:100020000C94F4030C94F4030C944F130C9491125D
:100030000C9436200C94F4030C94F4030C94F40305
:100040000C94F4030C94F4030C94F4030C94F40354
:100050000C94F4030C94F51F0C94F4030C94F40327
:100060000C94F4030C94F4030C94F4030C94F40334
:100070000C94F4030C94F4030C94F4030C94F40324
:100080000C94F4030C94F4030C94F4030C94F40314
:100090000C94F4030C94F4030C94F4030C94F40304
:1000A0000C94F4030C94F4030C94F4038304890477
:1000B0008F0495049B04A104A704AD04B304B90400
:1000C000BF04C504CB04D104D704DD04E304B005A8
:1000D0002406B80582058605BC058905BF05CA0545
:1000E00094051A069805CE059C05D205FC05A005C9
:1000F000D6050606A605DC05E6058D05C3059005B3
:10010000C605AB05E105F205120614067E05B40529
:100110002D06CC06CC06FB06FB0677078D088D085E
:100120008D08950709081A081A087F0D840D8E0D91
:10013000820D870D8C0D8A0D9D10C4107912C4108C
:100140007912101133117912341244120102E201B2
:1001500001140103E2000102E201011E0103E200B9
:100160000102E201011F0103E2000102E20101219B
:100170000103E2000102E20102E101012C0103E1BD
:100180000103E2000102E10101640103E100010257
:10019000E60101270103E6000102E6010126010351
:1001A000E6000102E60101240103E6000102E60186
:1001B00001300103E601043130307C01012C0001E3
:1001C00002E60101640103E6000102E10102E60129
:1001D00001230103E60103E1000102E601011F0121
:1001E00003E6000102E40101200103E4000102E64C
:1001F00001012D0103E6000102E60101210103E6F0
:10020000000102E10101300103E101043130307CE1
:1002100001012C0005010980A101850319012AB7FC
:1002200000150126B700950175108100C0050C0965
:1002300001A101850419012AA002150126A0029539
:100240000175108100C005010906A1018506050799
:1002500019E029E7150025019508750181020507B8
:10026000190029EF1500250195F075018102050897
:1002700019012905950575019102950175039101F3
:10028000C00660FF0961A1010962150026FF009503
:1002900020750881020963150026FF009520750866
:1002A0009102C005010906A101050719E029E7151A
:1002B00000250195087501810295017508810105E8
:1002C00007190029FF150026FF0095067508810013
:1002D00005081901290515002501950575019102EB
:1002E000950175039101C009025B00030100A0FAAA
:1002F000090400000103010100092111010001228C
:1003000044000705810308000109040100020300FD
:1003100000000921110100012222000705820320AB
:100320000001070503032000010904020001030086
:100330000000092111010001226D0007058403203E
:100340000001120100020000000897327449000108
:10035000010203011A0359006C004D0035003400FE
:100360002F006A005A005800610058003700000052
:1003700016034500720067006F0064006F0078008C
:10038000200045005A00000028035A005300410095
:10039000200054006500630068006E006F006C0070
:1003A0006F006700790020004C006100620073005C
:1003B0000000040309041E00140004001D000100D5
:1003C00000001F001A0016221B000100010020007F
:1003D00008000743060001002C24210015000941F4
:1003E000190001002A21220017000A00054201001D
:1003F00001002800390029004C0000000100010024
:1004000001000000010000000100010001000000E7
:1004100001000000010024522B00370036000000CC
:10042000010023001C000B00114201000100240008
:1004300018000D4110000100283225000C000E4369
:10044000010001002C24260012000F3233000100AD
:100450000100270013002F003400010000003A00C3
:100460002102067E087E010000003B00037E077E1D
:100470002302010001003C00047E2D002702010040
:1004800001003D00200201003802010001003E0091
:10049000057E1E022D0201000100010031002E0226
:1004A0000100000001000100010000000100000047
:1004B00001000100010000000100000001000057E0
:1004C0001F020A7E0100000001003F0024022502F5
:1004D0002602010001004000220201000C7E010002
:1004E0000100410031020B7E0D7E0100010042003F
:1004F000097E64000E7E01000100430044004500B7
:10050000010001000000010001004600010001009F
:10051000000001000100AC00010001000100010029
:10052000BE0001570100010001000100BD0002579B
:1005300001000100010001000100AB000100010009
:100540000100A500A700010001000000010001005A
:100550000100000001000000010001000100000096
:10056000010000000100035701000100010000002C
:100570000100010001000457010001000100010019
:1005800001000557010001000100010001000657AC
:1005900001000100010001000100075701000100F6
:1005A0000100010001000100010001000000010044
:1005B0002304220401000100000001002404107E35
:1005C00001000100010001002504010001000100FB
:1005D000010001002604117E01000100010001005C
:1005E0002704127E0100010001000F7E0857010060
:1005F00001000000010001000100000001000000F6
:100600000100010001000000010000000100095785
:100610000100010001000000010001000100137E43
:1006200001000100010001000100010001000100C2
:1006300001000100010001000100010001000100B2
:1006400001000100010001000100010001000100A2
:100650000100010000000100010001000100010093
:100660000000010001000100010001000100010083
:100670000100010001000100010001000100010072
:100680000100010001000100010001000100010062
:100690000100010001000100010000000100010053
:1006A0000100000001000000010001000100000045
:1006B0000100000001000100010001000100000034
:1006C0000100010001000100010001000100010022
:1006D0000100010001000100010001000100010012
:1006E0000100010001000100010001000100010002
:1006F0000100007C01000100010001000000000079
:1007000000000000000000000000000000000000E9
:1007100000000000000000000000000000000000D9
:1007200000007E0F00D4FFFFFFC70000007800002C
:100730000000000000002A2B28000000000000003C
:1007400000000000000000000029000000002C1E36
:100750003420212224342627252E362D3738271EF3
:100760001F202122232425263333362E37381F0419
:1007700005060708090A0B0C0D0E0F1011121314B1
:1007800015161718191A1B1C1D2F3130232D35046F
:1007900005060708090A0B0C0D0E0F101112131491
:1007A00015161718191A1B1C1D2F3130354C112422
:1007B0001FBECFEFDAE0DEBFCDBF12E0A0E0B1E0B8
:1007C000E2E1F9E402C005900D92A432B107D9F735
:1007D00023E0A4E2B2E001C01D92A735B207E1F721
:1007E0000E9459140C9487240C940000A0E0B0E0FF
:1007F000ECEFF3E00C94EE23DC0114962C91222311
:1008000009F40DC58C0161E00E94810CEC01F80136
:100810008581882309F45EC2809148039091490341
:10082000009709F45EC0C817D90709F45AC0992780
:1008300064E0880F991F6A95E1F7FC01EE5EFE4FB8
:10084000208124602083835F9E4FDC01CD93DC9365
:100850000E943A211092460361E0C8010E94810C77
:10086000EC0181159E4709F040C0F801858188237D
:1008700009F435C29091650281E0890F8770987FF5
:10088000853020F4892B8093650202C09093650225
:10089000809165028770FFEF8F9FC00111249595AD
:1008A00087959595879599279093890080938800DF
:1008B00090938B0080938A0090938D0080938C009E
:1008C00040916502509166026091670270916802E2
:1008D0008FE090E00E945224809164020E94630D98
:1008E000FEC1C115FEE7DF0729F2FE01E350FE4716
:1008F000D80115968C91E131F10508F06CC0EA5AE7
:10090000FF4F0C947424882309F4D7C081E092E04F
:100910005FC0882309F4D1C087EF91E059C08823D4
:1009200009F4CBC08DEE91E053C0882309F4C5C013
:1009300083EE91E04DC0882309F4BFC089ED91E0BA
:1009400047C0882309F4B9C089EC91E041C08823ED
:1009500009F4B3C08FEB91E03BC0882309F4ADC02C
:100960008CEA91E035C0882309F4A7C082EA91E0BF
:100970002FC0882309F4A1C088E991E029C0882309
:1009800009F49BC08EE891E023C0882309F495C048
:1009900084E891E01DC0882309F48FC084E791E0CA
:1009A00017C0882309F489C08AE691E011C0882322
:1009B00009F483C080E691E00BC0882309F47DC070
:1009C00086E591E005C0882309F477C08CE491E0C6
:1009D0000E94642172C09E0137552F3F310511F0EE
:1009E00008F06BC06E01DD24960144E0220F331F36
:1009F0004A95E1F7F901E35FFE4F7F01A9014E5EE1
:100A00005E4F6A01DA019C9180FB90F99C93F8019A
:100A100085818823A1F10E942A20909387028093E8
:100A20008602D70112968C9112978F5F12968C9343
:100A300012979091460380914703892B13968C93CC
:100A400013978091CE0214968C93149716964D911D
:100A50005C9117971E966D917C911F97C7010E941C
:100A60001B21F601808181FF03C090E080E002C07D
:100A70009C2F8D2F90934803809349031EC0D7016C
:100A80001C964D915C911D971E966D917C911F97C0
:100A9000C7010E941B21F601808181FF0EC0C701A2
:100AA0000E94212180914803909149038C179D0752
:100AB00021F41092490310924803D80115968C91A5
:100AC000882309F40FC1CE019057839708F0DBC04B
:100AD00084E090E00E942A24909351038093500375
:100AE000FE01E150F047E232F10520F4E959FF4FF1
:100AF0000C947424809150038160ACC080915103A8
:100B00008860B4C0809150038260A4C0809150037B
:100B100020C08091500388609DC0809151031EC009
:100B2000809151038260A2C080915003806192C085
:100B30008091500380628EC08091500380648AC08F
:100B40000E947F1E80915003806884C08091500372
:100B5000886084607FC0809151038260816086C01C
:100B6000809150038E7F76C080915103877F7EC035
:100B7000809150038D7F6EC08091500320C0809182
:100B80005003877F67C0809151031EC0809151033D
:100B90008D7F6CC0809150038F7E5CC0809150032C
:100BA0008F7D58C0809150038F7B54C00E947F1E60
:100BB000809150038F774EC080915003877F8B7F49
:100BC00049C0809151038D7F8E7F50C0809150032A
:100BD00082FB222720F991E0922790FB82F990FB7B
:100BE00083F938C080915103982F909591708E7F32
:100BF000892B90FB81F93AC08091500386FB222714
:100C000020F991E0922790FB86F924C00E947F1E74
:100C10008091500387FB222720F991E0922790FBD7
:100C200087F918C061E001C060E08EE090E00E94AA
:100C300040241EC08091500384FB222720F991E0BC
:100C4000922790FB84F906C080915003982F9095CD
:100C500090FB80F9809350030BC08091510383FB7C
:100C6000222720F991E0922790FB83F9809351038A
:100C7000609150037091510384E090E00E945E24E3
:100C80000E947F1E14C0C6314CE7D40709F072C21F
:100C9000809147038A7A91E009F490E090932602CC
:100CA0008111BBC289E20E948D200E947D1A809131
:100CB000CD02877009F4B3C2D80115968C918823B0
:100CC00009F4ADC28091510382FFA9C282E00E9463
:100CD000CF1AA5C2C1155EE7D50709F006CEC0E060
:100CE000DEE7EBCEC631DC4709F43AC2F801858174
:100CF000C081D181882349F0CE010E94961DF82E33
:100D0000682FCE010E94061E04C0CE010E94D21D93
:100D1000F82EBE018F2D0E9435190E945219D82F2E
:100D2000C92FC82EF801F580E680E2949FE0E92201
:100D30008091CD02877001F1FF20F1F08C2F807F30
:100D4000803469F080E28D0F8830B0F08C2F807E87
:100D5000803229F4F1E0FD1778F4EE2069F08091FB
:100D6000510382FF09C082E00E94CF1A8091CD0218
:100D70008770DD24D3948111D12CBC2EB2948FE0E6
:100D8000B8228B2D90E08C30910508F0C6C1FC0193
:100D9000E757FF4F0C9474248C2F807FCF708823EB
:100DA00011F0C295C07FFF20B9F0CC2309F4A3C194
:100DB00080E28D0F883010F0C11006C0909147037B
:100DC000C92BC093470305C090914603C92BC0931C
:100DD00046030E947D1A8FC18D2F0E94C31ECC2313
:100DE00009F49BC1D05E8C2FD83068F1CC2059F12A
:100DF0000E946F1A2AC08C2F807FCF70803211F032
:100E0000C295C07FCC2029F021E0C21609F44CC065
:100E100055C08091510382FD1BC0FF2069F0CC2397
:100E200039F090914703C92BC09347030E947D1A64
:100E300080E00E94ED1E71C180E00E94C31ECC23A1
:100E400009F46BC18C2F0E94761A0E947D1A65C12D
:100E5000FF2081F0EE20B1F141E0E4125EC19091FB
:100E6000CE028C2F8923C81709F457C1C92BC09310
:100E7000CE0253C1E11051C18C2F0E94B21E80914D
:100E8000CE029C2F982329F09C2F90958923809344
:100E9000CE02209127028C2F822309F43EC1C095F7
:100EA0002C232093270239C1FF2029F051E05E1541
:100EB00008F433C107C0E11030C115C0FF2031F084
:100EC000E11019C18C2F0E94B91E27C1EE2059F0E4
:100ED000D93309F01FC18FEF97EEA3E08150904006
:100EE000A040E1F715C18C2F0E94B21E16C18C2FB5
:100EF00086958695837019F0813061F00EC1FF20D0
:100F000021F08D2F9C2F937002C080E090E00E9412
:100F1000E92009C1FF2021F08D2F9C2F937002C082
:100F200080E090E00E94C420FEC08C2F8370A9F561
:100F3000F110F7C04D2F429546954770440F440F6E
:100F40008D2F8F7090E09C01042E01C0220F0A9417
:100F5000EAF7D4FF08C08FE090E001C0880F4A95FF
:100F6000EAF7809501C080E0C695C695C370C2308F
:100F700069F088F490916302C13019F0822B8923C3
:100F800002C0922B892B0E94591ECBC0822B9091BC
:100F900063028927F8CF822BF6CFFF2019F08C2F20
:100FA000817001C08695882309F4BBC04D2F4295FE
:100FB00046954770440F440F8D2F8F7090E09C0131
:100FC000042E01C0220F0A94EAF7D4FF08C08FE074
:100FD00090E001C0880F4A95EAF7809501C080E053
:100FE000C695C695C370C23059F078F490916402EA
:100FF000C13019F0822B892309C0922B892B06C09E
:10100000822B90916402892701C0822B0E943B1E93
:1010100088C0CF70FF2039F08C2F0E944D1E8D2F7D
:101020000E94B91E7EC08D2F0E94B21E8C2F0E947E
:10103000401E77C08D2FB2EFCB1669F1BC1538F08A
:10104000E0EFCE1659F0F1EFCF1601F150C023EFCB
:10105000C21641F144EFC416A9F049C0FF2069F05F
:10106000E1105BC0CF7181E090E001C0880FCA95AC
:10107000EAF79091640289271FC051E05E1508F4D9
:101080004CC0F0CF8091510382FD19C0FF2029F0A0
:101090008C2F8F711FC0FF20D9F38C2F8F710E946E
:1010A000401E3BC0FF2039F0CF7181E001C0880FA6
:1010B000CA95EAF701C080E00E943B1E2EC0FF20C7
:1010C00061F08C2F8F7198E0899F9001112423602B
:1010D0002093CD020E944D1E20C081E00E94CF1AB5
:1010E000A1E0AE15D0F482E00E94CF1A16C0FF2016
:1010F00021F0EE2069F28D2F9CCEEE2071F2893323
:1011000049F4BFEFE7EEF3E0B150E040F040E1F723
:1011100000C000008D2F0E94C31E88EF8B0D84300D
:1011200010F40E940E21DD20B1F08091CD0280FDEF
:1011300012C0D80115961C928695869586950E94B8
:101140004D1EC8010E94F6038091CD0286958695BA
:1011500086950E94401E60E0C8010E94810C5FC01D
:1011600080912602811104C089E20E945F209DCDFA
:1011700085E3FBCFC330BCE7DB0779F190F4C11501
:10118000FCE7DF07E1F0C130DC4709F0AFCD0E949A
:101190007F1EEFEFF4E32CE0E150F0402040E1F758
:1011A0002BC0CB354CE7D407A1F1CC355CE7D50794
:1011B00041F1CA35DC4709F099CD81E02BC00E948E
:1011C0007F1E9FEFA4E3BCE09150A040B040E1F748
:1011D00000C000000E94C31F6ACD6FEF7FEF80E068
:1011E00090E00E945E240E947F1E4FEF54E38CE04B
:1011F000415050408040E1F700C000000E94B81FFD
:1012000056CD8091510382FB882780F991E0892790
:1012100001C080E00E94E61A69CD85E344CDCDB7D8
:10122000DEB7E9E00C940A24982F92959F7019F08C
:10123000892F24E001C020E0982F9695969511F013
:101240002E5F892F982F969509F02F5F822F089592
:101250009C013A9521153F4130F5BC01662772701B
:10126000AC01442754709C012227387094FF0FC0B2
:1012700090FF02C080E101C080E0672B09F080622E
:10128000452B09F08064232B79F080680895892F1D
:101290008170672B09F08260452B09F08460232B55
:1012A00019F08860089580E00895FC018281813002
:1012B00039F4958192FD12C090FF10C082E008952C
:1012C000823039F4858182FD06C080FD06C083E04E
:1012D000089586E0089585E0089584E0089590E0FB
:1012E000FC01EF53FE4F208121111AC0F894FC013C
:1012F000ED54FE4F8081E82FE295EF70F0E031A1D0
:10130000282F2F7081E090E001C0880F2A95EAF71E
:10131000982F9095932391A392A1892B82A37894DF
:1013200008958FE39CE90197F1F700C00000109247
:101330003D0208958FE39CE90197F1F700C000009A
:101340001092310208958FE39CE90197F1F700C0F4
:10135000000010922B020895CF93DF93EC010E94BE
:10136000C31ECE01805E9109089710F0209731F4DA
:10137000CE010E9428090E94B21E05C0CE010E9423
:1013800028090E94A11EDF91CF9108958FE39CE967
:101390000197F1F700C0000080913B02833029F0F3
:1013A000853031F0813041F403C089E096E002C01D
:1013B00089E094E00E94AC0910923B0208958FE30B
:1013C0009CE90197F1F700C000008091390282305A
:1013D00049F018F4813049F00CC0833031F0853089
:1013E00021F007C08DE490E002C08FE490E00E94FD
:1013F000AC091092390208958FE39CE90197F1F747
:1014000000C0000080913702823049F018F481302A
:1014100049F00CC0833031F0853021F007C08BE4F7
:1014200090E002C082E590E00E94AC091092370281
:1014300008958FE39CE90197F1F700C000008091C7
:101440003502823049F018F4813049F00CC0833005
:1014500031F0853021F007C08EE490E002C081E5D4
:1014600090E00E94AC091092350208958FE39CE948
:101470000197F1F700C0000080913302823049F0FB
:1014800018F4813049F00CC0833031F0853021F000
:1014900007C08AE490E002C080E590E00E94AC09B9
:1014A0001092330208958FE39CE90197F1F700C091
:1014B000000080912F02833061F018F4813049F0F0
:1014C0000CC0843019F0853021F007C08EEA90E01E
:1014D00002C089EA90E00E94AC0910922F020895A0
:1014E0008FE39CE90197F1F700C0000080912D0285
:1014F000833061F018F4813049F00CC0843019F069
:10150000853021F007C088EA90E002C08AEA90E0C6
:101510000E94AC0910922D020895CF93DF93EC0145
:10152000805E9109089710F0209731F4CE010E9457
:1015300028090E94B91E05C0CE010E9428090E94F8
:10154000A81E8C2F0E94ED1EDF91CF9108950F935E
:101550001F93CF93DF938C01C99719F0C0E0D0E0BF
:1015600002C0C0E5D0E0C8010E948D0A209741F07A
:101570008FE99FE00197F1F700C000002197F6CFB7
:10158000C8010E94AC09DF91CF911F910F9108957E
:10159000CF93DF93EC018A81833061F489E094E09A
:1015A0000E94A70A89E094E00E94A70A89E094E0DB
:1015B0000E94A70A8A81843020F089E094E00E948A
:1015C000A70ADF91CF910895CF93DF93EC018A8131
:1015D000833061F48FE490E00E94A70A8FE490E0EA
:1015E0000E94A70A8FE490E00E94A70A8A818430B3
:1015F00020F08FE490E00E94A70ADF91CF91089538
:10160000CF93DF93EC018A81833061F482E590E02F
:101610000E94A70A82E590E00E94A70A82E590E076
:101620000E94A70A8A81843020F082E590E00E941F
:10163000A70ADF91CF910895CF93DF93EC018A81C0
:10164000833061F481E590E00E94A70A81E590E093
:101650000E94A70A81E590E00E94A70A8A8184304F
:1016600020F081E590E00E94A70ADF91CF910895D4
:10167000CF93DF93EC018A81833061F480E590E0C1
:101680000E94A70A80E590E00E94A70A80E590E00A
:101690000E94A70A8A81843020F080E590E00E94B1
:1016A000A70ADF91CF910895CF93DF93EC018A8150
:1016B000833061F489EA90E00E94A70A89EA90E009
:1016C0000E94A70A89EA90E00E94A70A8A818430D2
:1016D00020F089EA90E00E94A70ADF91CF91089557
:1016E000CF93DF93EC018A81833061F48AEA90E042
:1016F0000E94A70A8AEA90E00E94A70A8AEA90E07C
:101700000E94A70A8A81843020F08AEA90E00E9431
:10171000A70ADF91CF9108950E94550980933B025B
:10172000833029F0853031F0813061F407C089E0E1
:1017300096E006C089E094E00E94A70A89E094E060
:101740000E948D0A08950E945509809339028230C3
:1017500049F018F4813091F00895833031F08530EC
:1017600049F008958DE490E00BC08FE490E00E9472
:101770008D0A04C08FE490E00E94A70A8FE490E0F5
:101780000E948D0A08950E94550980933702823085
:1017900049F018F4813091F00895833031F08530AC
:1017A00049F008958BE490E00BC082E590E00E9440
:1017B0008D0A04C082E590E00E94A70A82E590E0CD
:1017C0000E948D0A08950E94550980933502823047
:1017D00049F018F4813091F00895833031F085306C
:1017E00049F008958EE490E00BC081E590E00E94FE
:1017F0008D0A04C081E590E00E94A70A81E590E08F
:101800000E948D0A08950E94550980933302823008
:1018100049F018F4813091F00895833031F085302B
:1018200049F008958AE490E00BC080E590E00E94C2
:101830008D0A04C080E590E00E94A70A80E590E050
:101840000E948D0A08950E94550980932F028330CB
:1018500049F018F4813091F00895843041F08530DA
:1018600049F0089589EA90E00E948D0A07C08EEA47
:1018700090E006C089EA90E00E94A70A89EA90E019
:101880000E948D0A08950E94550980932D0283308D
:1018900049F018F4813091F00895843041F085309A
:1018A00049F008958AEA90E00E948D0A07C088EA0C
:1018B00090E006C08AEA90E00E94A70A8AEA90E0D7
:1018C0000E948D0A08950E94550980933D0283303D
:1018D00019F481E00E943B1E08950E9455098093EF
:1018E0003102833019F481E00E943B1E08950E946A
:1018F000550980932B02833019F481E00E943B1E2E
:101900000895A6E0B0E0E7E8FCE00C94F42326E0BC
:10191000FC01DE01119601900D922A95E1F7FC0180
:10192000258189819A81222359F0662349F00E94FA
:10193000961D182F682F89819A810E94061E03C068
:101940000E94D21D182F69817A81812F0E9435193A
:101950002696E3E00C941024A4E3B0E0E2EBFCE074
:101960000C94F4234FA758AB69AB7AAB8BAB9CAB11
:10197000911110924603CE01889627E0DC011D925A
:101980002A95E9F726E0FE01BF96DC0101900D9251
:101990002A95E1F72CA52223E1F061E00E94810C59
:1019A000809189028823A9F08DA5811102C087E06A
:1019B00001C086E0898388A58A8389A58B838EEF01
:1019C0008C8340E250E0BE016F5F7F4F82E00E9457
:1019D000731F87E0FE01B896DE01919601900D928B
:1019E0008A95E1F7CE0181960E94601B81112CC07F
:1019F00087E0FE01B196DE01119601900D928A9565
:101A0000E1F76DA1662301F12091930230E0C90155
:101A10000196877099274091CC0250E08417950772
:101A200061F16D8397E0929FD001939FB00D1124D7
:101A3000AC56BD4FFE01319601900D929A95E1F79B
:101A4000809393020E94FD1A17E08091CC0290913E
:101A500093028917F9F0189FC00111248C569D4FED
:101A60000E94601B8823B1F08091CC0290E0019627
:101A7000877099278093CC02E8CF0E947F1E109236
:101A800093021092CC02ECE8F2E087E0DF011D92B5
:101A90008A95E9F7E496E3E00C94102427982F98B0
:101AA0002F98089526982E982E98089525982D9869
:101AB0002D980895279A2F9A0895269A2E9A089578
:101AC000259A2D9A0895A0E2B0E0E9E6FDE00C9495
:101AD000F323082F0E941409182F5E980E94560DB8
:101AE0000E94520D0E944E0D812F90E0FC01319713
:101AF000E730F105A8F4EB56FF4F0C9474240E94D4
:101B0000600D0EC00E94600D0E945D0D09C00E9414
:101B1000600D04C00E94600D0E945D0D0E945A0D70
:101B2000809189028823D9F0809129021817B9F091
:101B3000109329028FE39CE90197F1F700C00000A0
:101B400085E08983809129028A838EEF8B8340E22E
:101B500050E0BE016F5F7F4F82E00E94731F802FB5
:101B6000A096E4E00C940F24A0E2B0E0EAEBFDE0E4
:101B70000C94F5239FEF99838A8340E250E0BE01E5
:101B80006F5F7F4F82E00E94731FA096E2E00C948B
:101B90001124A1E0B0E0EFECFDE00C94F3238730DA
:101BA000F8F420910B0130910C01232BD1F521E0A9
:101BB00030E0A90102C0440F551F8A95E2F7CA011F
:101BC000809589830AE010E0AE014F5F5F4F62E1CC
:101BD00080E40E94EA2290930C0180930B0121C0C3
:101BE00090E0FC01EF53FE4F208121111AC0F894C0
:101BF000FC01ED54FE4F8081E82FE295EF70F0E09C
:101C000031A1282F2F7081E090E001C0880F2A9524
:101C1000EAF7932F982B91A392A18095892382A311
:101C200078942196E4E00C940F240F931F93CF93A4
:101C300008EC11E0C7E0F80181918F01811103C028
:101C40008C2F0E946F09CF5FCE30A9F7CF911F91E3
:101C50000F910895A1E0B0E0E0E3FEE00C94F323DF
:101C6000082F8730C8F480910B0190910C01892BCB
:101C7000E9F519820AE010E021E030E0AE014F5FA3
:101C80005F4F63E180E40E94382390930C018093BE
:101C90000B01898180952BC00E94C90DADEAB1E08E
:101CA00020E030E010E051E04D91E42FE295EF703C
:101CB000F0E080A190E04F7002C0959587954A951D
:101CC000E2F780FD07C0852F022E01C0880F0A941D
:101CD000EAF701C080E0182B2F5F3F4F2630310517
:101CE00019F7802F0E946F09812F01C080E0219693
:101CF000E4E00C940F24CF93DF93ADEAB1E043EB23
:101D000051E061E070E0F8948D91E82FE295EF707A
:101D1000F0E021A18F70EB0102C0CC0FDD1F8A958E
:101D2000E2F7CE019C2F9095922391A392A1892B4B
:101D300082A378944A175B0731F7DF91CF9108951A
:101D4000A2E0B0E0E6EAFEE00C94F32380E290E04B
:101D500090930C0180930B018091280281110EC099
:101D60000E946D2281E0809328022FEF83ED90E3A3
:101D7000215080409040E1F700C0000019828FE3BD
:101D80008A830AE010E022E030E0AE014F5F5F4F4F
:101D900060E080E40E94EA2290930C0180930B01A2
:101DA000892B69F422E030E0AE014F5F5F4F6CE0B9
:101DB00080E40E94EA2290930C0180930B018091B1
:101DC0000B012296E4E00C940F2480914D0287FFD2
:101DD00011C08091E80082FD05C080914B02811105
:101DE000F8CF11C08091E8008B770BC080914B0237
:101DF000882349F08091E80080FFF8CF8091E800C7
:101E00008E778093E8000895982F973068F5909327
:101E1000E900981739F07091EC002091ED00509195
:101E2000F00003C0242F762F50E021FD02C09F5FF9
:101E3000ECCF3091EB003E7F3093EB003091ED0022
:101E40003D7F3093ED003091EB0031603093EB003B
:101E50007093EC002093ED005093F0002091EE0081
:101E600027FDE5CF80E008958F708093E90081E041
:101E7000089520915302309154022617370748F0F5
:101E80006115710539F42091E8002E772093E80060
:101E900001C0B901FC0120E06115710579F1809163
:101EA0004B028823F1F18530F1F18091E80083FD48
:101EB0003CC08091E80082FD2EC08091E80080FF48
:101EC000EBCF2091F3008091F20090E0922B61150E
:101ED000710551F08830910538F421912093F1007B
:101EE000615071090196F3CF21E0089709F020E0D5
:101EF0008091E8008E778093E800CECF2111CFCF7C
:101F00000AC080914B02882361F0853061F0809196
:101F1000E80083FD0AC08091E80082FFF2CF80E0F4
:101F2000089582E0089583E0089581E0089508957A
:101F300043E050E0BC0184E00E94731F089540E23A
:101F400050E0BC0184E00E94731F0895CF93DF939B
:101F5000EC0148E050E0BC0181E00E94731F88E082
:101F6000FE01A1E4B2E001900D928A95E1F7DF91C4
:101F7000CF910895AAE2B0E0E0ECFFE00C94F423E6
:101F8000EDE4F2E085E592E02091F10021938E17D7
:101F90009F07D1F780914E02833009F463C030F47B
:101FA000813071F0823009F49DC0B4C08A3009F4E8
:101FB00089C08B3009F46EC0893009F0ABC020C0F5
:101FC00080914D02813A09F0A5C08091E800877F99
:101FD0008093E8008091510290915202892B21F464
:101FE00068E081E492E003C060E080E090E070E0AF
:101FF0000E94390F8091E8008B778093E8008AC0B7
:1020000080914D02813209F085C0809151029091FA
:102010005202009719F0029709F07CC08091E80005
:10202000877F8093E8008091E80082FD05C0809161
:102030004B028111F8CF6EC02091F3008091F20025
:1020400090E0922B029731F48091F100813011F0F1
:10205000863021F48091F100809340028091E80065
:102060008B7754C080914D02813A09F053C0809122
:10207000510290915202892B09F04CC08091E800E6
:10208000877F8093E8008091E80080FFFCCF8091FB
:10209000000137C080914D028132E1F580915102FB
:1020A00090915202892BB1F58091E800877F80934F
:1020B000E8000E94E50E80914F02809300010E948B
:1020C0007F1E28C080914D02813221F58091E80069
:1020D000877F8093E8000E94E50E809150028093F4
:1020E0003F0218C080914D02813AA1F48091E8002E
:1020F000877F8093E8008091E80080FFFCCF80918B
:102100003F028093F1008091E8008E778093E80091
:102110000E94E50E8091E80083FFEBC180914D02A3
:1021200090914E02492F50E04A30510508F0E1C12C
:10213000FA01E456FF4F0C947424803821F0823861
:1021400009F0D7C108C08091490290914A029923B1
:1021500089F082600FC0809151028F70873008F043
:10216000C8C18093E9008091EB0085FB882780F946
:102170001092E9009091E800977F9093E800809397
:10218000F1001092F1007CC1282F2D7F09F0B1C120
:10219000882319F0823061F0ACC180914F02813008
:1021A00009F0A7C1933009F080E080934A022EC065
:1021B00080914F0281112AC0809151028F702FEFC0
:1021C000280F263008F095C18093E9002091EB009C
:1021D00020FF1CC0933021F48091EB00806214C07A
:1021E0009091EB0090619093EB0021E030E0A90129
:1021F00002C0440F551F8A95E2F74093EA001092FF
:10220000EA008091EB0088608093EB001092E90077
:102210008091E800877F8093E8000E94E50E69C105
:10222000811167C110914F021F778091E300807880
:10223000812B8093E3008091E800877F8093E80002
:102240000E94E50E8091E80080FFFCCF8091E300C2
:1022500080688093E300111102C082E001C083E036
:1022600080934B0246C18058823008F042C12091D1
:102270004F02309150022C3D53E0350779F583E051
:102280008A838AE289834FB7F894DE01139620E0AF
:102290003EE051E2E32FF0E050935700E49120FF3D
:1022A00003C0E295EF703F5FEF708E2F90E0EA3051
:1022B00010F0C79601C0C0968D939D932F5F243177
:1022C00049F74FBF8091E800877F8093E8006AE27A
:1022D00070E0CE0101960E94390FC0C0809151027A
:1022E00090915202432F552743305105B1F068F4C5
:1022F0004130510509F40CC14230510509F0F9C0D3
:102300008BE590E0E7EEF2E057C04132510589F1EC
:102310004232510509F43CC0ECC0C9019927813013
:102320009105B9F070F082309105D9F0039709F06A
:10233000E0C0E4E5F3E0E4918E2F90E0E4E5F3E023
:1023400038C0E2EBF3E0E4918E2F90E0E2EBF3E0B3
:1023500030C0E8E8F3E0E4918E2F90E0E8E8F3E0A5
:1023600028C0E0E7F3E0E4918E2F90E0E0E7F3E0AF
:1023700020C08330910508F0BCC0880F991FFC0174
:10238000E852FE4F0190F081E02D89E090E014C00A
:102390008330910508F0ADC0FC01EE0FFF1FEE5237
:1023A000FE4F0190F081E02DDC01A153BE4F8C91D6
:1023B00090E0009709F49DC02091E800277F2093CA
:1023C000E80020915302309154022817390708F48D
:1023D000C90140E0009789F120914B02222309F4C2
:1023E0003DC02530D9F12091E80023FD37C0209170
:1023F000E80022FD2FC02091E80020FFEBCF4091A4
:10240000F3002091F20030E0342B009759F028308F
:10241000310540F444914093F100319601972F5FCC
:102420003F4FF3CF41E02830310509F040E02091E3
:10243000E8002E772093E800CDCF4111CDCF0AC020
:1024400080914B02882351F0853041F08091E80063
:1024500083FD04C08091E80082FFF2CF8091E80004
:102460008B778093E80045C0803809F042C08091A6
:10247000E800877F8093E80080914C028093F10010
:102480008091E8008E77C7CE811133C080914F02D2
:10249000909150029927029764F58091E800877F18
:1024A0008093E80010914F0210934C020E94E50EB9
:1024B000111106C08091E30087FD02C081E001C0D8
:1024C00084E080934B0242E061EC81E00E94040FC3
:1024D00042E261EC84E00E94040F42E261EC82E09F
:1024E0000E94040F42E260EC83E00E94040F80919E
:1024F0004B028091E80083FF10C08091E800877F45
:102500008093E8008091EB0080628093EB0005C02F
:1025100082E190E0E2E4F3E04FCFAA96E3E00C948E
:1025200010241F920F920FB60F9211242F933F93F6
:102530004F935F936F937F938F939F93AF93BF93CB
:10254000CF93DF93EF93FF93C091E900CF70809119
:10255000EC00D82FD17080FDD0E81092E900809176
:10256000F000877F8093F00078940E94BA0F109259
:10257000E9008091F00088608093F000CD2BCF704F
:10258000C093E900FF91EF91DF91CF91BF91AF919F
:102590009F918F917F916F915F914F913F912F917B
:1025A0000F900FBE0F901F901895E8EDF0E080811E
:1025B0008E7F80831092E2001092DA001092E10088
:1025C000A0EEB0E08C9181608C9380818F778083C6
:1025D00019BCA7EDB0E08C918E7F8C9380818F7EAB
:1025E000808310923E020895A0E0B0E0EAEFF2E1AD
:1025F0000C94EF23C8EDD0E088818F7E8883E7EDCF
:10260000F0E080818160808384E082BF81E08093FC
:102610003E0288818E7F888302EE10E0F8011082EE
:102620001092DA0081EEC82ED12CF601108288813A
:102630008F77888388818068888388818F7D88836D
:1026400019BC10924B0210924C0210924A02109246
:10265000490290EEE92EF12CF70180818B7F808377
:1026600088818160888342E060E080E00E94040FFE
:10267000F60180818E7F8083F80180818160808374
:10268000808188608083F70180818E7F808388814C
:1026900080618883CDB7DEB7E8E00C940B241F92ED
:1026A0000F920FB60F9211242F933F934F935F9386
:1026B0006F937F938F939F93AF93BF93EF93FF930A
:1026C0008091E10082FF09C08091E20082FF05C095
:1026D0008091E1008B7F8093E1008091DA0080FFA0
:1026E0002AC08091D80080FF26C08091DA008E7FBA
:1026F0008093DA008091D90080FF18C080E189BD05
:1027000082E189BD09B400FEFDCF81E080934B02D8
:1027100080913E0281110FC00E94D5120E94F412D6
:102720008091E20084608093E20005C019BC1092A1
:102730004B0210923E028091E10080FF17C0809111
:10274000E20080FF13C08091E2008E7F8093E20060
:102750008091E20080618093E2008091D8008062E5
:102760008093D80019BC85E080934B028091E100F2
:1027700084FF30C08091E20084FF2CC080E189BDDD
:1027800082E189BD09B400FEFDCF8091D8008F7D24
:102790008093D8008091E1008F7E8093E10080914A
:1027A000E2008F7E8093E2008091E200816080935E
:1027B000E20080914C02882311F084E007C08091F0
:1027C000E30087FD02C081E001C083E080934B02FB
:1027D00080914B028091E10083FF27C08091E2004D
:1027E00083FF23C08091E100877F8093E10082E036
:1027F00080934B0210924C028091E1008E7F809377
:10280000E1008091E2008E7F8093E2008091E200FF
:1028100080618093E20042E060E080E00E94040F6B
:102820008091F00088608093F000FF91EF91BF915C
:10283000AF919F918F917F916F915F914F913F9158
:102840002F910F900FBE0F901F9018952091E400CC
:102850003091E50095E64091EC00842F817040FFB7
:1028600023C08091E80080FD1DC080914B02882329
:1028700099F0853099F08091EB0085FD11C0409171
:10288000E4005091E5002417350729F3915011F029
:102890009A01E1CF84E0089582E0089583E00895ED
:1028A00081E0089580E008954091E80042FFDDCF87
:1028B0000895A6E4B0E0EFE5F4E10C94E92385B7D0
:1028C000806885BF85B7806885BF84B7877F84BFF0
:1028D0000FB6F894A895809160008861809360009D
:1028E000109260000FBE90E080E80FB6F8948093DD
:1028F0006100909361000FBE82E098E19093250201
:10290000809324020E94D5120E94F4128091E2006A
:1029100084608093E200789480914B028823A1F038
:102920001091E9001F709091EC00892F817090FD4B
:1029300080E8182B1092E9008091E80083FD0E9446
:10294000BA0F1F701093E90082E084BD93E095BD3B
:102950009AEF97BD80936E000E94A00E90E0909336
:102960000C0180930B010E94150E0E947B0EE5E581
:10297000F2E083E692E0A9E6B2E011921D928E1792
:102980009F07D9F780E090E00E942A24853E9E4F61
:1029900009F46EC065EE7EEF80E090E00E945E2458
:1029A00060E082E090E00E94402481E08093630236
:1029B00061E083E090E00E94402460E074E184E004
:1029C00090E00E945E2460E086E090E00E94402457
:1029D00060E087E090E00E94402440E050E0BA01CF
:1029E00088E090E00E94522460E083E290E00E9440
:1029F000402460E08CE090E00E94402460E08DE0A4
:102A000090E00E94402419821A821B821C821D823F
:102A10001E821F82188648E050E067E170E0CE0118
:102A200001960E94302440E050E0BA018FE190E02E
:102A30000E94522410926502109266021092670260
:102A40001092680284E08093650240916502509183
:102A5000660260916702709168028FE090E00E94C8
:102A6000522440E050E0BA0183E190E00E945224F9
:102A700082E090E00E941C248093770284E090E042
:102A80000E942A2490935103809350030E940B1DAF
:102A90008FEF93EFE1E081509040E040E1F700C01C
:102AA00000000E940B1D8091690280FF08C06FEF3B
:102AB0007FEF80E090E00E945E240E94C31F83E0CD
:102AC00090E00E941C240E94591E809164020E9482
:102AD000630D89EA8093800089E0809381002498C7
:102AE0002C983F98479A54985C9A55985D9A6E989E
:102AF000769A569A8FE090E00E94242460936502B3
:102B000070936602809367029093680267701FEF6C
:102B1000169FB00111247595679575956795772770
:102B2000709389006093880070938B0060938A0093
:102B300070938D0060938C005E980E94560D0E94E9
:102B4000520D0E944E0D8FEF90E09093890080937C
:102B5000880090938B0080938A0090938D008093DF
:102B60008C000E94600DFFEF20E782E0F1502040D2
:102B70008040E1F700C000000E945D0D9FEFE0E79C
:102B8000F2E09150E040F040E1F700C000000E9408
:102B90005A0D2FEF80E792E0215080409040E1F7FE
:102BA00000C000000E94560DEFEFF0E722E0E15078
:102BB000F0402040E1F700C000000E94520D8FEF6E
:102BC00090E7E2E081509040E040E1F700C0000073
:102BD0000E944E0D809165028770189FC0011124DC
:102BE00095958795959587959927909389008093DA
:102BF000880090938B0080938A0090938D0080933F
:102C00008C005E980E94560D0E94520D0E944E0D3F
:102C100081E091E090934D0380934C0308E110E034
:102C200080914B02853009F058C050E4B52E67E71B
:102C3000E62E62E0F62E70E1C72EE2E1DE2E8091F4
:102C40004B02853009F045C080914B02843009F178
:102C5000109252030FB6F894A895009360000FBE2F
:102C6000B092600083B7817F846083BF83B7816047
:102C700083BF7894889583B78E7F83BF0FB6F8940F
:102C8000A895809160008861809360001092600038
:102C90000FBE80914A02882391F20E94A00E90E01C
:102CA00090930C0180930B010E94150E0E947B0EE5
:102CB000E9E6F2E01192EE16FF06E1F70E940B1D25
:102CC000E9E6F2E08191811187C1EE16FF06D1F7A6
:102CD000B6CF0E947F1E0E940E210E940B1D48E766
:102CE000C42E42E0D42EA9E6B2E0F60191918D9176
:102CF000892722E0E638F20719F08823B9F305C0E6
:102D0000811103C00E94E71C55C039E6832E32E0D2
:102D1000932EF12CF40171904F01F601A080A724AD
:102D2000B9F1E12CBB24B394662463948A2D8B21E2
:102D300041F12296EFAE22972396FFAE23970E9491
:102D40002A2025969FAF8EAF259726966FAE2697A1
:102D500091E0872D8B2109F490E027969FAF27976C
:102D600022964FAD229723965FAD239724966FADA1
:102D7000249725967FAD259726968FAD26970E949E
:102D8000AC0CE394BB0CF6E0EF12D0CFF6017082EE
:102D9000F394FFEFCF1ADF0A2EE0F212BBCF8FB70A
:102DA000F8944091530350915403609155037091EE
:102DB00056038FBF8091480390914903892BE9F016
:102DC00080918602909187020E941B20893C910588
:102DD000A0F08091480390914903992724E0880F3F
:102DE000991F2A95E1F7FC01EE5EFE4F208122FD3E
:102DF00004C0835F9E4F0E943A210E940E21909151
:102E00008802891769F0809388028FB7F8944091FF
:102E100053035091540360915503709156038FBF33
:102E200080914B02843009F0FBCE83E08093E9006F
:102E30008091E80082FFF4CE8091E80085FF24C0F5
:102E40000E94261481111EC080E2E82EF12C6E0132
:102E500081E2C80ED11C09C08091F100F601819376
:102E60006F01F1E0EF1AF10869F08091E80085FD4B
:102E7000F3CF8091E8008B778093E8000E942614BE
:102E8000882399F391E001C090E08091E8008B776E
:102E90008093E800992309F4C3CE89A1863009F410
:102EA00079C0B0F4823009F4BBCE60F4882329F1F4
:102EB000813009F08DC08093890284E089838EEF90
:102EC0008A837DC0843031F1853009F463C080C0CD
:102ED000893009F45FC030F4873099F1883009F403
:102EE00059C076C08A3009F457C08E3F09F070C0CF
:102EF000898394E09A838B8362C019828DE0EEED22
:102F0000F1E0DE01129601900D928A95E1F78EEFC5
:102F10008E8755C080918902882309F481CE8AA1C9
:102F2000811104C08BA10E94401E7ACE81E090E006
:102F30000BA002C0880F991F0A94E2F70E943B1E63
:102F40006FCE81E080938B028AA18230C1F000F5C0
:102F5000882319F0813051F01BC08BA1882319F010
:102F60000E94600D5DCE0E94560D5ACE8BA1882323
:102F700019F00E945D0D54CE0E94520D51CE8BA1CE
:102F8000882319F00E945A0D4BCE0E944E0D48CE58
:102F900085E01FC084E01DC08AA1FF24F394811145
:102FA00001C0F12CF0928B02811106C00E94560DD7
:102FB0000E94520D0E944E0D8BE08983FA8240E2FE
:102FC00050E0BE016F5F7F4F82E00E94731F28CEEA
:102FD0008FEF0E94B40D24CEC9BCD9BC09B400FE49
:102FE000FDCF8091D8008F7D8093D8008091E00044
:102FF00082608093E0008091E00081FDFCCF0E9420
:103000007F1E1DCE80E008959091500392FF10C066
:1030100041E0282F2471243009F040E031E0282FCE
:103020002871283009F030E0431711F02CE0822796
:1030300093FF10C041E0282F2471243109F040E0B3
:1030400031E0282F2871283109F030E0431711F0C2
:103050002CE082273091510330FF10C051E0282F1F
:103060002171213009F050E041E0282F28712830EB
:1030700009F040E0541711F029E0822731FF10C019
:1030800041E0282F2171213109F040E031E0282F63
:103090002871283109F030E0431711F029E0822728
:1030A00094FD877E08958238910569F1B0F48133EB
:1030B000910509F475C048F48932910509F467C097
:1030C0008A32910509F471C008958533910509F498
:1030D00059C089339105B9F00895833E910589F16E
:1030E00038F4803E9105D1F0823E910529F1089592
:1030F000863E9105C9F1873E9105D9F1843E91053F
:1031000009F06CC027C02091500320FD57C021FD5D
:1031100055C02091510323FD5BC008958091500359
:1031200080FD48C08091510380FF48C080915003CA
:1031300084FD46C083EE51C08091500382FF3CC0A5
:10314000F5CF8091500382FD37C08091510380FDFF
:1031500035C0ECCF8091510381FF36C08091500380
:1031600084FD2EC087EE39C08091500383FF2AC0B2
:10317000F5CF8091500383FD25C08091510381FDDF
:1031800023C0ECCF8091500385FD22C01FC08091E9
:10319000500385FD1BC08091510383FF19C00AC0F5
:1031A0008091500386FD16C017C08091500386FDA4
:1031B00013C010C089E311C082EE0FC080EE0DC0B5
:1031C00080E00BC086EE09C084EE07C085E305C031
:1031D00089E203C08AE201C081E390E00895909102
:1031E000470380914603892B9091CE029923E1F009
:1031F000892B90910001992341F09091500397FF02
:1032000004C09EE128E233E003C096E020E233E010
:10321000F90120E0915028F031913323D9F32F5F49
:10322000F9CF21111092CE0208952091CC029091F5
:10323000930257E02917A9F030E0529FF001539F05
:10324000F00D1124EC56FD4F7181761306C070818C
:10325000781303C07581741306C02F5F3F4F27702A
:10326000E9CF80E0089581E008957E30B0F46630C3
:10327000A0F48530A0F494E5899FF001112486E044
:10328000789FE00DF11D1124E60FF11DEE0FFF1FD9
:10329000EA54FC4F85919491089580E001C081E04B
:1032A00090E008951F93CF93DF930E945318EC0191
:1032B000C11580E5D807E8F5C11590E4D90708F0F5
:1032C000A8C0C03ED10530F5CD3CD10508F094C072
:1032D000C83AD10578F4C53AD10508F083C0C130A9
:1032E000D10509F47CC008F4F2C0C430D10508F05F
:1032F000F1C0EDC0C33CD10508F0E9C0C85AD0E028
:10330000CC0FDD1FC251DE4F0990D881C02DCE01F8
:103310009464E1C0C11580E2D80708F0CBC0C115A4
:1033200091E0D90708F06BC0C83ED10508F4D2C0BF
:10333000CEC0C03682E5D80728F5C03492E5D9075B
:1033400008F079C0C03282E5D80708F06CC0C1151A
:1033500092E5D90708F481C04C2F4695469580E246
:10336000489FA0011124C37021E030E0C90102C0D0
:10337000880F991FCA95E2F7EA01C82BD92BCE0115
:103380009D68A9C0C03A82E5D807B8F48C2F8F7128
:10339000C03892E5D90708F07BC08695869590E203
:1033A000899F90011124C37081E090E002C0880FD2
:1033B000991FCA95E2F79A6868C0C03C82E5D807B1
:1033C00008F46DC0C03E92E5D90708F080C0CF7107
:1033D000DD27DC2FCC27CE01806F906A7CC081E096
:1033E00090E079C0C55AD0E0C551DE4F8881C82F22
:1033F000D0E0CE0190646FC0CE0190656CC08D2F7F
:103400000E940418182FCE0199270E9453181F718B
:103410005CC0CE0199270E945318CC27DF70D06A78
:103420008C2B9D2B58C0CF71D0E0DC2FCC27CE0148
:10343000816F906A50C08C2F8F718695869590E22F
:10344000899F90011124C37081E090E002C0880F31
:10345000991FCA95E2F79C6818C08C2F8F710E9443
:10346000041895E0D695C7959A95E1F7CF70D0E00E
:10347000DC2FCC27282F30E084FF05C084E0220F0A
:10348000331F8A95E1F7D069CE01822B932B23C09D
:1034900090E0D82FCC27CE01846F906A1CC08C2F6F
:1034A0008F710E9404188F7190E0D82FCC27CE0125
:1034B000906211C08D2F8F710E940418182FCE01B9
:1034C00099270E9453181F719062912B04C080E0CD
:1034D00090E001C0CE01DF91CF911F9108958095BA
:1034E0009091460389238093460308958095909197
:1034F000470389238093470308958091000188231F
:1035000051F18091500387FF26C00E94EF188093ED
:10351000270340E250E06FEC72E086E293E00E9405
:103520007A24892BD9F180E2E6E2F3E0AFECB2E055
:1035300001900D928A95E1F7E0914C03F0914D03D3
:10354000309761F186E0809326030480F581E02DB9
:1035500086E293E022C00E94EF1880931E0348E0A9
:1035600050E06FEE72E08EE193E00E947A24892BA6
:10357000A9F088E0EEE1F3E0AFEEB2E001900D9249
:103580008A95E1F7E0914C03F0914D03309731F0CB
:103590000280F381E02D8EE193E0099508959091EA
:1035A000CD02809589238093CD02282F277069F45E
:1035B000981759F09091510392FF07C08695869510
:1035C00086950E94401E1092CD020895909151035D
:1035D00092FB222720F9281779F080FB92F990932B
:1035E0005103609150037091510384E090E00E9478
:1035F0005E2482E00E94CF1A08958091CC029091BF
:103600009302891719F08F5F8770FBCF0895CF93CE
:10361000DF938091920282958F7009F04EC0809165
:103620009102882309F449C08091CC024091930211
:1036300050918D0260918C02C0918E02D0918F02C8
:1036400077E08417D1F190E0789FF001799FF00D39
:103650001124DF01AC56BD4F14962C9114972223F0
:1036600049F111962C911197251324C02C91261302
:1036700021C015962C91159721111CC012962D91E1
:103680003C9113972C1B3D0B283C310598F48091FD
:1036900092028F70806180939202E656FD4F808186
:1036A0008F70806180838CE892E00E94F6030E9414
:1036B000FD1A03C001968770C4CFDF91CF910895A2
:1036C000A4E1B0E0E6E6FBE10C94EB238C0186E09C
:1036D000F801DE011F9601900D928A95E1F7F8013D
:1036E0008481E5809CE8892E92E0992E9091900249
:1036F000911120C0882309F463C1EE2009F442C06F
:10370000C8010E945C1EF82E8823E1F187E0F801D1
:10371000D40101900D928A95E1F780919002813059
:1037200031F480918C0290918D020E94C51D0E94FF
:10373000071B48C1F801D080C180A280B380F090FF
:10374000910220918E0230918F02FF2009F4E7C090
:10375000A501421B530B483C510508F09DC088232E
:1037600009F430C180919202282F207F90918D0220
:10377000222361F09C1509F460C0C8010E945C1E00
:10378000811163C0C8010E94F6031AC19C1113C0C5
:1037900090918C029D110FC0E1100DC08F7080615F
:1037A000809392028CE892E00E94F603809192024C
:1037B000F801868303C1E1103AC040E06C2D8D2DE5
:1037C0000E94151940E06C2D8D2D0E941519E82ED0
:1037D0008111F4C0DF86C88A8F8598890E94C51D33
:1037E000292F22952F70243020F49F70223028F04A
:1037F00009C02A50223080F014C0992349F0811169
:1038000007C013C0992321F0F8019681907F69F0D9
:10381000805E883030F409C0803F38F0815F8330AB
:1038200020F0C8010E94F603EF2CFE2CCBC0809143
:103830009202816080939202C1C090918C029D118E
:103840009CCFE1109ACFF80198C0EE2009F49ACFEE
:1038500020919202822F82958F7090E002978CF0D7
:1038600080918C0290918D0299878887BB86AA8669
:10387000809190028C871D862E87CE0108960E942B
:10388000F60387E0F801ACE8B2E001900D928A956A
:10389000E1F70E94071B94C090919202292F207F8C
:1038A00051F48CE892E00E94F60387E0F401119253
:1038B0008A95E9F783C0882309F484C080918D023A
:1038C0008C110CC080918C028D1108C0E11006C0D3
:1038D000F8019683C8010E94F6036AC0C8010E94DD
:1038E0005C1E882309F44ECFEE2009F44BCF2091C3
:1038F0009202822F82958F7090E0029714F280914D
:103900008C0290918D029A838983BC82AB828091D4
:1039100090028D831E822F83CE010196B0CFA21A12
:10392000B30AF8ECAF16B10408F042C0882309F4DA
:1039300047C0FE2CEE2009F425CF80918D028C111A
:1039400029C080918C028D1125C09091920290FD2A
:1039500018C0892F82958F70282F30E021153105EE
:1039600081F0F80196832F30310541F08F5F982F59
:103970009295907F86818F70892B8683C8010E94E3
:10398000F60387E0F801ACE8B2E001900D928A9569
:10399000E1F718C0C8010E945C1E811172CF8091AE
:1039A0009202816080939202C8010E94F6030AC0CD
:1039B00087E0F40111928A95E9F704C0F12C02C066
:1039C000FF24F3948F2D6496ECE00C940724A6E07A
:1039D000B0E0EDEEFCE10C94F3230E942A208C0170
:1039E0008091F7029091F8020817190781F0198267
:1039F0001A820E942A20682F49815A81792F80E0FB
:103A000090E00E94AC0C1093F8020093F702269607
:103A1000E4E00C940F24EF92FF920F931F93CF9347
:103A2000DF9380910B0190910C01892BD9F080914B
:103A3000F9028F5F8093F902811114C00E94A00ED9
:103A400090E090930C0180930B01892B59F42FEF98
:103A500083EC99E0215080409040E1F700C00000E5
:103A60000E94B81F05E512E0C0E0D0E087E0E82E34
:103A7000ED0E8D2F0E94C90D8E2D0E94C90D8D2F28
:103A80000E942A0E8F73F8019081891721F080839C
:103A9000FF24F39401C0F12C8E2D0E942A0E8F7307
:103AA000F8019781891719F0878381E001C080E0D0
:103AB000F82ACF290E94150EDF5F0F5F1F4FD73006
:103AC000A9F6CC2359F081E08093FC020E942A20C1
:103AD0009093FB028093FA02C0E022C08091FC0226
:103AE0008823F1F08091FA029091FB020E941B2042
:103AF0004497B0F04EE050E065E572E089E692E070
:103B00000E947A24892B51F08EE0E5E5F2E0A9E6E7
:103B1000B2E001900D928A95E1F7C1E01092FC02AB
:103B20008C2FCDB7DEB7E6E00C940D24CF92DF9258
:103B3000FF920F931F93CF93DF936C010091640268
:103B400080916302082BC7E0D0E010E0C8010C2E82
:103B500002C0959587950A94E2F780FD04C02197ED
:103B6000A8F7F12C09C0FC2EB6018C2F0E94351944
:103B70000E945219019799F38F2DDF91CF911F91D8
:103B80000F91FF90DF90CF900895CF93DF93EC01DA
:103B90000E94961DBE010E9435190E945219DF91A4
:103BA000CF910895292F9E3078F5863068F590E002
:103BB00036E0239F800D911D1124682F677023E04C
:103BC000969587952A95E1F7FC01EE0FFF1FE80F08
:103BD000F91FE350FD4F40E050E080E0219130E0DC
:103BE000062E02C0369527950A94E2F721703327F6
:103BF000042E01C0220F0A94EAF7822B4F5F5F4F19
:103C00004330510559F7089580E00895292F9E30DB
:103C100088F5863078F590E036E0239F800D911D81
:103C20001124282F277051E001C0550F2A95EAF77B
:103C300023E0969587952A95E1F7FC01EE0FFF1F8B
:103C4000E80FF91FE350FD4F20E030E070E04081C5
:103C5000CB01022E02C0969587950A94E2F78170F7
:103C6000819584278523842781932F5F3F4F2330BD
:103C7000310569F708950E94630D809364020895E9
:103C800021E030E001C0220F8A95EAF7209580916B
:103C9000640282230E943B1E089521E030E001C0AF
:103CA000220F8A95EAF780916402822B0E943B1EC4
:103CB0000895809363020895FC0124812223D9F0A2
:103CC000808191810E94C51D92959F70963079F0F8
:103CD00010F4925001C09A50923068F4803F69F01D
:103CE00018F4883E40F409C0843F29F406C0883E99
:103CF00020F0813F11F080E0089581E00895109256
:103D0000470380910001882341F08091500387FF91
:103D100004C08EE1E8E2F3E003C086E0E0E2F3E015
:103D2000DF011D928A95E9F780E090E00E94E9208A
:103D300080E090E00E94C420109246030E947D1A09
:103D40000895882321F00E946F1A0E947D1A089519
:103D5000882339F090914603892B809346030E9473
:103D60007D1A0895882321F00E94761A0E947D1AF8
:103D70000895882339F090914703892B8093470356
:103D80000E947D1A0895882339F19CEF980F913A8B
:103D900018F40E945F200DC090E2980F983060F4F4
:103DA000877091E001C0990F8A95EAF7892F0E94E8
:103DB000761A0E947D1A08959BE5980F933028F497
:103DC00080E090E00E94E9200895885A8B3120F429
:103DD00080E090E00E94C4200895CF93882309F4E6
:103DE00065C0C82F8CEF8C0F813AA0F5809100013F
:103DF0008823E1F08091500387FF18C0EC2FE695EF
:103E0000E695E695F0E0EA5DFC4F8281282F30E0F0
:103E10004C2F477081E090E002C0880F991F4A95AF
:103E2000E2F782239323892B61F410C0E0E2F3E0F0
:103E300086E293E02191C21721F08E179F07D1F7F8
:103E400005C08C2F0E945F200E947D1A8C2F0E943B
:103E50008D2010C080E28C0F883078F4C77081E02C
:103E600090E001C0880FCA95EAF790914703892B2B
:103E7000809347030E947D1A19C0EBE5EC0FE330F5
:103E800040F4F0E0E551FE4F808190E00E94E9208F
:103E90000DC0C85ACB3150F4EC2FF0E0EE0FFF1FED
:103EA000E251FE4F808191810E94C420CF910895FC
:103EB0001F93CF93DF93182FEB010E94ED1E2097E5
:103EC00041F08FE99FE00197F1F700C000002197D2
:103ED000F6CF812F0E94C31EDF91CF911F910895CD
:103EE0008091400208950F931F93CF93DF938B012E
:103EF000EA0190914B029430A9F58F708093E9000C
:103F00008FEF9091E800815095FD06C095ED9A9550
:103F1000F1F700008111F5CF8091E80085FF22C004
:103F20000E942614811115C0209789F08091E80025
:103F300085FD06C08091E8008E778093E800F0CF81
:103F4000F80181918F018093F1002197EDCF90E0EE
:103F500001C0982F8091E8008E778093E80081E07F
:103F6000911101C080E0DF91CF911F910F910895D1
:103F70009AE088E10FB6F894A895809360000FBE90
:103F800090936000FFCFF89481E08093E00080E29E
:103F90008093D800E9ECF0E010828FE19EE4019775
:103FA000F1F700C000001DBA109268001CBC10BEE2
:103FB0001FBA10927A0010926E0010926F00109249
:103FC0007100109272001082ECEBF0E0108214B8D5
:103FD00017B81AB81DB810BA108215B818B81BB89F
:103FE0001EB811BA0C94003F089578941F920F9256
:103FF0000FB60F9211248F939F93AF93BF9380912D
:10400000530390915403A0915503B0915603019628
:10401000A11DB11D8093530390935403A0935503A6
:10402000B0935603BF91AF919F918F910F900FBEA8
:104030000F901F9018959C014FB7F89480915303EF
:1040400090915403A0915503B09156034FBF821B2A
:10405000930B08952FB7F8948091530390915403D4
:10406000A0915503B09156032FBF08951F920F9250
:104070000FB60F9211248F939F93AF93BF938091AC
:104080005203811113C08091530390915403A09166
:104090005503B09156034196A11DB11D8093530362
:1040A00090935403A0935503B0935603BF91AF91DF
:1040B0009F918F910F900FBE0F901F901895909128
:1040C0000001992321F09091500397FD03C0EEE188
:1040D000F3E01DC0E82FE695E695E695EE31E0F4B5
:1040E000F0E0EA5DFC4F877021E030E0A90102C0FA
:1040F000440F551F8A95E2F7CA0180959281892362
:1041000082830895319653E0E432F50729F09281D5
:104110008913F8CF1282F6CF089590910001992368
:10412000D1F09091500397FF16C0E82FE695E695E1
:10413000E695EE3140F5F0E0EA5DFC4F877021E056
:1041400030E0A90102C0440F551F8A95E2F7CA0169
:104150009281892B16C0A0E2B3E0EFEF90E02D91A1
:10416000821789F0EF3F19F4211101C0E92F9F5FF9
:104170009630A9F7EF3F39F00E2E000CFF0BE25EF0
:10418000FC4F828308950895A3E0B0E0EAECF0E2EA
:104190000C94F52320914E0330914F0328173907D3
:1041A000A1F090934F0380934E03E0914C03F09164
:1041B0004D03309751F024E029839B838A83008448
:1041C000F185E02DCE01019609952396E2E00C944D
:1041D0001124A3E0B0E0EFEEF0E20C94F52320917F
:1041E0004A0330914B0328173907A1F090934B03F2
:1041F00080934A03E0914C03F0914D03309751F0C6
:1042000023E029839B838A830084F185E02DCE01FE
:10421000019609952396E2E00C941124E0914C0359
:10422000F0914D03309729F00190F081E02D099530
:10423000089580E008954115510511F0FA0109959E
:104240000895CF93DF93EC014A855B856E857F856A
:104250000E941B218B810E946F1A8C810E94761A0A
:104260000E947D1A86E0FE0111928A95E9F7DF919E
:10427000CF910895CF93DF93EC018D8181FD17C01D
:1042800082608D83909146038B81892B80934603B6
:10429000909147038C81892B809347030E947D1A5C
:1042A000488559856E857F85CE010E941B2110921D
:1042B0004903109248038D8180FD03C0CE010E9406
:1042C0002121DF91CF910895A0E0B0E0EAE6F1E28C
:1042D0000C94ED23EC018AE0A82EFE012491222308
:1042E00009F4A3C0213009F044C031968491813093
:1042F00059F42296FE018491893319F060E070E050
:104300008EC060E570E08BC0823031F42296FE01F1
:1043100084910E94ED1E87C0833031F42296FE0105
:1043200084910E94C31E7FC0843009F07BC0229616
:10433000FE01249180E090E030E0205331092A30E2
:10434000310560F4A89EA001A99E500D1124C90159
:10435000840F951F2196FE012491EECF009709F45A
:1043600062C0EFE9FFE03197F1F700C0000001976C
:10437000F5CFE22FF0E0E25DF84FB490822F869502
:104380008695869590E0FC01E25EF84FE4902770F8
:10439000F12C022E02C0F594E7940A94E2F7F1E0C2
:1043A000EF22FF24FC01E25FF84FC490D12C022ED3
:1043B00002C0D594C7940A94E2F731E0C322DD2409
:1043C000FC01E250F94F049110E002C015950795E9
:1043D0002A95E2F701701127E114F10419F081EE3A
:1043E0000E94ED1EC114D10419F086EE0E94ED1E4C
:1043F00060E070E08B2D0E94581FC114D10419F0A9
:1044000086EE0E94C31EE114F10419F081EE0E94B1
:10441000C31E0115110539F060E070E08CE20E94C6
:10442000581F01C0EF01219658CFCDB7DEB7EAE0A3
:104430000C940924EF92FF920F931F93CF93DF9375
:10444000182FEB011092BC0084EA8093BC000E94FC
:104450002A207C018091BC0087FD0DC0CF3F8FEFEB
:10446000D807C1F3C7010E941B20C817D90790F7CE
:104470008EEF9FEF2DC08091B900887F883041F08A
:104480008091B900887F803119F08FEF9FEF20C0B5
:104490001093BB0084E88093BC000E942A208C010A
:1044A0008091BC0087FD0BC0CF3F8FEFD807C1F3D1
:1044B000C8010E941B20C817D90790F7D9CF809157
:1044C000B900887F883111F08034F9F680E090E0FF
:1044D000CDB7DEB7E6E00C940D241092B9008CE065
:1044E0008093B80008950F931F93CF93DF93EB0150
:1044F0008093BB0084E88093BC000E942A208C013A
:104500008091BC0087FD0DC0CF3F8FEFD807C1F36E
:10451000C8010E941B20C817D90790F78EEF9FEFA4
:104520000CC02091B900287F81E090E0283211F47E
:1045300080E090E0919581959109DF91CF911F9155
:104540000F9108950F931F93CF93DF93EC0184ECA9
:104550008093BC000E942A208C018091BC0087FDC2
:104560000DC0CF3F8FEFD807C1F3C8010E941B20B9
:10457000C817D90790F78EEF9FEF03C08091BB005B
:1045800090E0DF91CF911F910F9108950F931F93AA
:10459000CF93DF93EC0184E88093BC000E942A2033
:1045A0008C018091BC0087FD0DC0CF3F8FEFD807F5
:1045B000C1F3C8010E941B20C817D90790F78EEFDE
:1045C0009FEF03C08091BB0090E0DF91CF911F91DE
:1045D0000F910895A0E0B0E0E0EFF2E20C94E9233F
:1045E000682E762E5A0169010E942A204C0104315E
:1045F000110558F00F3F8FEF180751F0C80164E123
:1046000070E00E94D123EB0105C0C1E0D0E002C000
:10461000C5E0D0E0BE01862D0E941A227C0197FFE2
:104620000BC00F3F8FEF1807A9F3C4010E941B2096
:104630000817190778F713C0B801872D0E94732255
:104640007C01E501CA0CDB1CCC15DD0541F0F7FC53
:1046500006C0B80189910E9473227C01F5CF84E9DC
:104660008093BC00C701CDB7DEB7EEE00C94052403
:10467000A0E0B0E0EEE3F3E20C94E923782E662E9E
:104680007A01E9010E942A205C010431110558F0E9
:104690000F3F8FEF180759F0C80164E170E00E94E6
:1046A000D1236B0107C0CC24C394D12C03C025E0D7
:1046B000C22ED12CB601872D0E941A224C0197FFE1
:1046C0000BC00F3FEFEF1E07A9F3C5010E941B208F
:1046D0000817190778F72BC0B801862D0E9473229E
:1046E0004C0197FD24C0F72DF1607F2E0E942A20F7
:1046F0005C010431110528F10F3F8FEF180729F1F4
:10470000C80164E170E00E94D1236B01B601872DDE
:104710000E941A224C0197FD1CC067012197C60117
:104720008E199F098C179D0758F597FE1DC084E9C7
:104730008093BC00C4011816190674F580E090E05F
:104740002BC0CC24C394D12CE1CF85E0C82ED12C32
:10475000DDCF0F3FEFEF1E07C9F2C5010E941B20FE
:104760000817190798F6D9CFC8010E94A2224C0158
:1047700097FD02C0F6018083FFEFCF1ADF0ACFCF8B
:1047800097FCD5CFC8010E94C6224C0197FDCFCF20
:10479000CE0DDF1D8883CBCFCDB7DEB7EEE00C9416
:1047A0000524AA1BBB1B51E107C0AA1FBB1FA617EC
:1047B000B70710F0A61BB70B881F991F5A95A9F7CA
:1047C00080959095BC01CD0108952F923F924F9214
:1047D0005F926F927F928F929F92AF92BF92CF9291
:1047E000DF92EF92FF920F931F93CF93DF93CDB79A
:1047F000DEB7CA1BDB0B0FB6F894DEBF0FBECDBF12
:1048000009942A88398848885F846E847D848C84E2
:104810009B84AA84B984C884DF80EE80FD800C81EB
:104820001B81AA81B981CE0FD11D0FB6F894DEBFCE
:104830000FBECDBFED010895F999FECF92BD81BDA8
:10484000F89A992780B50895A6E1B0E044E050E0D9
:104850000C946624A8E1B0E042E050E00C94662499
:10486000DC01A40FB51F4150504048F0CB01840F2C
:10487000951F2E910E94412441505040D0F7089539
:10488000262FF999FECF92BD81BDF89A019700B409
:10489000021639F01FBA20BD0FB6F894FA9AF99AA9
:1048A0000FBE08950396272F0E9441240E944024A2
:1048B000252F0E944124242F0C9441240196272F58
:1048C0000E9441240C944024DC01CB01FC01F999A5
:1048D000FECF06C0F2BDE1BDF89A319600B40D924C
:1048E00041505040B8F70895EE0FFF1F0590F49126
:1048F000E02D0994FB01DC0104C08D910190801929
:1049000021F441505040C8F7881B990B0895F89442
:02491000FFCFD7
:1049120001701FA60F9F0F970F980F200000000035
:104922000000000000770CA3090000000000000056
:10493200000000700B430C700A0000000000000031
:10494200000000540B230C530A000000000000007A
:1049520000000000006D0C9A090000000000000039
:10496200000000380B030C360A00000000000000B3
:104972000000001C0BE30B190A00000000000000FD
:10498200000000000BC30BFC090000000000000047
:10499200000000E40AA30BDF090000000000000091
:1049A200000000C80A8C0BC60900000000000000CD
:1049B2000000000000630C910900000000F0F1F417
:1049C200F5F6F70000000000000030313233929318
:1049D2006601010101010101000000000000004424
:1049E200226DA30281021402F90212033203596CEE
:1049F2004D35342F6A5A5861583700818283E2005C
:104A0200E900EA00B500B600B700CD008301CC0092
:104A12008A01920194012102230224022502260224
:104A220027022A02B300B4006F0070009F01CB017D
:044A32009F02A0023D
:00000001FF
