:100000000C9464050C9481050C9481050C94810575
:100010000C9481050C9481050C9481050C94810548
:100020000C9481050C9481050C94A21B0C94E41A89
:100030000C94A4260C9481050C9481050C948105E4
:100040000C9481050C9481050C9481050C94810518
:100050000C9481050C9463260C9481050C94810505
:100060000C9481050C9481050C9481050C948105F8
:100070000C9481050C9481050C9481050C948105E8
:100080000C9481050C9481050C9481050C948105D8
:100090000C9481050C9481050C9481050C948105C8
:1000A0000C9481050C9481050C94810595099A099D
:1000B000A40998099D09A209A009A10DA70DAD0DDC
:1000C000B30DB90DBF0DC50DCB0DD10DD70DDD0D88
:1000D000E30DE90DEF0DF50DFB0D010E070ED40E2E
:1000E000480FDC0EA60EAA0EE00EAD0EE30EEE0ECD
:1000F000B80E3E0FBC0EF20EC00EF60E200FC40E50
:10010000FA0E2A0FCA0E000F0A0FB10EE70EB40E38
:10011000EA0ECF0E050F160F360F380FA20ED80EAF
:10012000510FF60FF60F26102610A110BF10D61192
:10013000D611C410521163116311EA181119CC1AA7
:100140001119CC1A5D198019CC1A821A921A01025F
:10015000E20101140103E2000102E201011E0103B8
:10016000E2000102E201011F0103E2000102E201DB
:1001700002E101012C0103E10103E2000102E101BE
:1001800001640103E1000102E60101270103E60029
:100190000102E60101260103E6000102E601013049
:1001A0000103E601043130307C01012C000102E63C
:1001B0000101240103E6000102E60101250103E635
:1001C000000102E60101640103E6000102E101020F
:1001D000E60101230103E60103E1000102E401015C
:1001E000200103E4000102E601011F0103E6000112
:1001F00002E601012D0103E6000102E601012101F1
:1002000003E6000102E10101300103E101043130A4
:10021000307C01012C000102E301010F0103E30026
:1002200005010980A101850319012AB700150126DE
:10023000B700950175108100C0050C0901A1018569
:100240000419012AA002150126A00295017510814A
:1002500000C005010906A1018506050719E029E787
:10026000150025019508750181020507190029EF80
:100270001500250195F07501810205081901290570
:10028000950575019102950175039101C00501095C
:1002900002A1010901A1000509190129081500257C
:1002A0000195087501810205010930093115812583
:1002B0007F95027508810609381581257F9501759E
:1002C000088106050C0A38021581257F95017508FD
:1002D0008106C0C00660FF0961A101096215002600
:1002E000FF009520750881020963150026FF00951F
:1002F0002075089102C005010906A101050719E052
:1003000029E71500250195087501810295017508F9
:1003100081010507190029FF150026FF00950675C4
:1003200008810005081901290515002501950575A5
:10033000019102950175039101C009027400040145
:1003400000A0FA09040000010301010009211101C4
:10035000000122440007058103080001090401008F
:1003600002030000000921110100012222000705FB
:100370008303200001070504032000010904020093
:1003800001030102000921110100012247000705B4
:100390008203100001090403000103000000092189
:1003A00011010001226D00070585032000011201E3
:1003B00000020000000897327449000101020301A5
:1003C0001A034A007A006E007A0030002F005800AD
:1003D000620045004A0062006F00000016034500FD
:1003E000720067006F0064006F0078002000450015
:1003F0005A00000028035A00530041002000540016
:100400006500630068006E006F006C006F0067009D
:10041000790020004C0061006200730000000403BA
:100420000904025201000100010001000000010066
:1004300001000100010001000100010001000100B4
:100440000100010001000100E400010001000100C1
:10045000E00001000100E1000100010001000100D5
:100460000100010001000000010001000100000086
:100470000100000001000100010000000100000077
:10048000010001000100E200010000000100010084
:1004900001000100E600E700010001000100010089
:1004A0000100010001000100010001000100010044
:1004B0000100010001000100010001000100010034
:1004C0000100010001000100000001000100010025
:1004D0000100010000000100010001000100010015
:1004E0000100010001000100010001000100010004
:1004F00001000100010001000100010001000100F4
:1005000001000100010001000100010001000000E4
:1005100001000100010000000100000001000100D5
:1005200001000000010000000100010001000100C5
:1005300001000000010001000100010001000100B4
:1005400001000100010001000100010001000100A3
:100550000100010001000100010001000100010093
:100560000100010001000100010001000100010083
:10057000000026523900C5522800010000001E006C
:10058000140004001D00010084521F001A001622EE
:100590001B0001002C242000080007480600000F63
:1005A0002A212100150009001900E3004C22220035
:1005B00017000A00050000008852390029000000D9
:1005C00001000000010001002B00000001000000FC
:1005D000010023001C000B0011000000010024009A
:1005E00018000D001000E700E40025000C000E4884
:1005F0003600000F2832260012000F3237000100AB
:100600002C24270013003300010001008352010055
:100610002F0034000100037E0000010001000100F2
:100620000100010000003A0001002102087E097E5D
:1006300001003B00047E077E2302010001003C0014
:10064000057E2D002702010001003D002002380038
:100650003802010001003E00067E1E022D0200004D
:1006600001000100310000002E0200000100010025
:100670001F0200000D7E000001003F002402250241
:10068000260200000100400022020B7E0E7E0100C7
:100690000100410031020C7E0F7E0100010042008A
:1006A0000A7E6400107E0100010043000100010089
:1006B0000100010001000057440045000100010055
:1006C0000000010001000100010001000000010024
:1006D0000100460001000100010001000100AC0022
:1006E0000100010001000100BE00015701000100EE
:1006F00001000100BD0002570100010001000100DE
:100700000100AB00010000000100A500A7000000EF
:1007100001000000010001000100000001000000D4
:100720000100010001000457010000000100010068
:1007300001000557010001000100010001000657FA
:100740000100010001000100010007570100010044
:100750000100010001000100010001000100035738
:100760000100010001000100000001000100010082
:100770000100010000000100010001000100010072
:10078000010001000100DB00010001000100010087
:100790000100DA0001000100010001000100D900A0
:1007A00001000100010001000100DC000100000067
:1007B0000100010001000000010000000100010033
:1007C0000100000001000000010001000100CF0055
:1007D00001000000010001000100CE000100010045
:1007E000010001000100CD0001000100D200010064
:1007F0000100D00001000100D10001000100010052
:100800000100010001000857010001000100010082
:1008100000000100025201000100005200000752D6
:1008200001000100010001000100010001000100C0
:1008300001000100010001000100010001000100B0
:1008400067520100010001000100010001000100E8
:1008500001000100010000000100007C0100000017
:100860000100000001000100010000000100000083
:100870000100010001000100010000000100010071
:100880000100010001000100010001000100010060
:100890000100010001000100010001000100010050
:1008A00001000100010001000100010001000957E1
:1008B0000100010001000100000029002B003900A7
:1008C000E100E00000001E00140004001D00010013
:1008D00001001F001A0016001B00E30001002000A9
:1008E000080007000600E2000100210015000900D1
:1008F00019002C000100220017000A00050000006A
:1009000001000100010000000100000001000100E1
:100910000100000001000000010023001C000B008A
:10092000110000000100240018000D00100001005B
:10093000010025000C000E00360001000100260019
:1009400012000F21370001000100270013003300BF
:100950000100010001000A572F00340001000100CE
:100960000000010001000100010001000000010081
:1009700023042204010001000100010024042104D9
:100980000100010001000100250401000100010037
:10099000010001002604127E010001000100010097
:1009A0002704137E010000000100117E0B57000098
:1009B0000100000001000100010000000100000032
:1009C000010001000100147E01000000010001008F
:1009D000010001000100010001000100010001000F
:1009E00001000100010001000100010001000100FF
:1009F00001000100010001000100010001000100EF
:100A000001000100010001000000E400E100E0003D
:100A1000E600E700E2000000000000000000000027
:100A200000000000000000000000000000000000C6
:100A30000000000000000000000000007E0F00D455
:100A4000FFFFFFC70000007800000000000000006A
:100A50002A2B280000000000000000000000000019
:100A600000000029000000002C1E34202122243424
:100A70002627252E362D3738271E1F2021222324F6
:100A800025263333362E37381F0405060708090A92
:100A90000B0C0D0E0F101112131415161718191A2E
:100AA0001B1C1D2F3130232D350405060708090AAC
:100AB0000B0C0D0E0F101112131415161718191A0E
:100AC0001B1C1D2F3130354C11241FBECFEFDAE037
:100AD000DEBFCDBF12E0A0E0B1E0EEE5F9E502C077
:100AE00005900D92A235B107D9F724E0A2E5B2E056
:100AF00001C01D92AC32B207E1F70E945D120C9466
:100B0000AD2C0C940000292F33272115310519F045
:100B1000C90148E001C040E09C0164E0369527959A
:100B20006A95E1F72115310511F04C5FC9019C016F
:100B300036952795369527952115310511F04E5F8D
:100B4000C9019C0136952795232B09F04F5F842F0F
:100B500008959C013A9521153F4130F5BC01662767
:100B60007270AC01442754709C012227387094FFA6
:100B70000FC090FF02C080E101C080E0672B09F048
:100B80008062452B09F08064232B79F080680895FA
:100B9000892F8170672B09F08260452B09F08460F2
:100BA000232B19F08860089580E00895FC0182816C
:100BB000813039F4958192FD12C090FF10C082E01F
:100BC0000895823039F4858182FD06C080FD06C01B
:100BD00083E0089586E0089585E0089584E008950F
:100BE00090E0FC01E751FE4F208121111AC0F894DA
:100BF000FC01E552FE4F8081E82FE295EF70F0E0B6
:100C000031A1282F2F7081E090E001C0880F2A9534
:100C1000EAF7982F9095932391A392A1892B82A311
:100C2000789408958FE39CE90197F1F700C00000E4
:100C300010926B0208958FE39CE90197F1F700C0D1
:100C400000001092690208958FE39CE90197F1F783
:100C500000C000001092670208958FE39CE901979D
:100C6000F1F700C0000010925D0208958FE39CE947
:100C70000197F1F700C00000109257020895CF933A
:100C8000DF93EC010E941F25CE01805E9109089739
:100C900010F0209731F4CE010E94A9050E94222471
:100CA00005C0CE010E94A9050E941124DF91CF91B9
:100CB00008958FE39CE90197F1F700C0000080914F
:100CC0006D02833029F0853031F0813041F403C06A
:100CD00089E096E002C089E094E00E943F0610920D
:100CE0006D0208958FE39CE90197F1F700C00000C1
:100CF00080916502823049F018F4813049F00CC0CF
:100D0000833031F0853021F007C08DE490E002C0DF
:100D10008FE490E00E943F061092650208958FE3F1
:100D20009CE90197F1F700C00000809163028230D6
:100D300049F018F4813049F00CC0833031F085302F
:100D400021F007C08BE490E002C082E590E00E94B1
:100D50003F061092630208958FE39CE90197F1F733
:100D600000C0000080916102823049F018F48130A7
:100D700049F00CC0833031F0853021F007C08EE49B
:100D800090E002C081E590E00E943F06109261026F
:100D900008958FE39CE90197F1F700C0000080916E
:100DA0005F02823049F018F4813049F00CC0833082
:100DB00031F0853021F007C08AE490E002C080E580
:100DC00090E00E943F0610925F0208958FE39CE935
:100DD0000197F1F700C0000080915B02833061F061
:100DE00018F4813049F00CC0843019F0853021F0BE
:100DF00007C08EEA90E002C089EA90E00E943F06B8
:100E000010925B0208958FE39CE90197F1F700C00F
:100E1000000080915902833061F018F4813049F06C
:100E20000CC0843019F0853021F007C088EA90E0CA
:100E300002C08AEA90E00E943F061092590208958B
:100E4000CF93DF93EC01805E9109089710F0209713
:100E500031F4CE010E94A9050E94292405C0CE01CB
:100E60000E94A9050E9418248C2F0E945225DF9110
:100E7000CF9108950F931F93CF93DF938C01C99760
:100E800019F0C0E0D0E002C0C0E5D0E0C8010E9487
:100E90002007209741F08FE99FE00197F1F700C00C
:100EA00000002197F6CFC8010E943F06DF91CF9145
:100EB0001F910F910895CF93DF93EC018A818330C6
:100EC00061F489E094E00E943A0789E094E00E948E
:100ED0003A0789E094E00E943A078A81843020F042
:100EE00089E094E00E943A07DF91CF910895CF9373
:100EF000DF93EC018A81833061F48FE490E00E94FB
:100F00003A078FE490E00E943A078FE490E00E9455
:100F10003A078A81843020F08FE490E00E943A07FB
:100F2000DF91CF910895CF93DF93EC018A818330D5
:100F300061F482E590E00E943A0782E590E00E9429
:100F40003A0782E590E00E943A078A81843020F0D7
:100F500082E590E00E943A07DF91CF910895CF9308
:100F6000DF93EC018A81833061F481E590E00E9497
:100F70003A0781E590E00E943A0781E590E00E94FF
:100F80003A078A81843020F081E590E00E943A0798
:100F9000DF91CF910895CF93DF93EC018A81833065
:100FA00061F480E590E00E943A0780E590E00E94BD
:100FB0003A0780E590E00E943A078A81843020F069
:100FC00080E590E00E943A07DF91CF910895CF939A
:100FD000DF93EC018A81833061F489EA90E00E941A
:100FE0003A0789EA90E00E943A0789EA90E00E9475
:100FF0003A078A81843020F089EA90E00E943A071B
:10100000DF91CF910895CF93DF93EC018A818330F4
:1010100061F48AEA90E00E943A078AEA90E00E942E
:101020003A078AEA90E00E943A078A81843020F0E9
:101030008AEA90E00E943A07DF91CF9108950E94DA
:10104000D60580936D02833029F0853031F08130F0
:1010500061F407C089E096E006C089E094E00E9450
:101060003A0789E094E00E94200708950E94D6057F
:1010700080936502823049F018F4813091F0089530
:10108000833031F0853049F008958DE490E00BC055
:101090008FE490E00E94200704C08FE490E00E945B
:1010A0003A078FE490E00E94200708950E94D60539
:1010B00080936302823049F018F4813091F00895F2
:1010C000833031F0853049F008958BE490E00BC017
:1010D00082E590E00E94200704C082E590E00E9433
:1010E0003A0782E590E00E94200708950E94D60505
:1010F00080936102823049F018F4813091F00895B4
:10110000833031F0853049F008958EE490E00BC0D3
:1011100081E590E00E94200704C081E590E00E94F4
:101120003A0781E590E00E94200708950E94D605C5
:1011300080935F02823049F018F4813091F0089575
:10114000833031F0853049F008958AE490E00BC097
:1011500080E590E00E94200704C080E590E00E94B6
:101160003A0780E590E00E94200708950E94D60586
:1011700080935B02833049F018F4813091F0089538
:10118000843041F0853049F0089589EA90E00E946A
:10119000200707C08EEA90E006C089EA90E00E942E
:1011A0003A0789EA90E00E94200708950E94D60538
:1011B00080935902833049F018F4813091F00895FA
:1011C000843041F0853049F008958AEA90E00E9429
:1011D000200707C088EA90E006C08AEA90E00E94F3
:1011E0003A078AEA90E00E94200708950E94D605F7
:1011F00080936B02833021F484E090E00E941B23F3
:1012000008950E94D60580936902833021F484E01A
:1012100090E00E941B2308950E94D60580936702E8
:10122000833021F484E090E00E941B2308950E9403
:10123000D60580935D02833021F484E090E00E9423
:101240001B2308950E94D60580935702833021F412
:1012500084E090E00E941B230895A6E0B0E0E3E361
:10126000F9E00C94062CFC0187819085009709F524
:10127000CF0126E0DE01119601900D922A95E1F74B
:10128000FC01258189819A81222359F0662349F046
:101290000E947322182F682F89819A810E94E72269
:1012A00003C00E94B422182F69817A81812F0E9485
:1012B000DF1D2696E3E00C94222C27982F982F9878
:1012C000089526982E982E98089525982D982D9853
:1012D0000895279A2F9A0895269A2E9A0895259A66
:1012E0002D9A0895EF92FF921F93CF93DF93CDB77E
:1012F000DEB7A0970FB6F894DEBF0FBECDBF7C015E
:101300000E948305182F5E980E9465090E9461095A
:101310000E945D09812F90E0FC013197E730F105D3
:10132000A8F4EA5AFF4F0C949A2C0E946F090EC041
:101330000E946F090E946C0909C00E946F0904C0D5
:101340000E946F090E946C090E9469098091A6029F
:101350008823D9F0809155021817B9F010935502DF
:101360008FE39CE90197F1F700C0000085E08983D5
:10137000809155028A838EEF8B8340E250E0BE015C
:101380006F5F7F4F83E00E94E125C701A0960FB6F3
:10139000F894DEBF0FBECDBFDF91CF911F91FF90BC
:1013A000EF900895A0E2B0E0E8EDF9E00C94072C8E
:1013B0009FEF99838A8340E250E0BE016F5F7F4FC9
:1013C00083E00E94E125A096E2E00C94232CA1E0AA
:1013D000B0E0EDEEF9E00C94052C8730F8F42091A4
:1013E0000A0130910B01232BD1F521E030E0A90156
:1013F00002C0440F551F8A95E2F7CA018095898380
:101400000AE010E0AE014F5F5F4F62E180E40E94AE
:10141000FC2A90930B0180930A0121C090E0FC010B
:10142000E751FE4F208121111AC0F894FC01E552CA
:10143000FE4F8081E82FE295EF70F0E031A1282F78
:101440002F7081E090E001C0880F2A95EAF7932F72
:10145000982B91A392A18095892382A378942196B9
:10146000E4E00C94212C0F931F93CF9300EF11E035
:10147000C7E0F80181918F01811103C08C2F0E9478
:10148000F005CF5FCE30A9F7CF911F910F9108954E
:10149000A1E0B0E0EEE4FAE00C94052C082F8730D0
:1014A000C8F480910A0190910B01892BE9F519820A
:1014B0000AE010E021E030E0AE014F5F5F4F63E1F2
:1014C00080E40E944A2B90930B0180930A0189814A
:1014D00080952BC00E94E709A5EDB1E020E030E047
:1014E00010E051E04D91E42FE295EF70F0E080A123
:1014F00090E04F7002C0959587954A95E2F780FD80
:1015000007C0852F022E01C0880F0A94EAF701C098
:1015100080E0182B2F5F3F4F2630310519F7802FC1
:101520000E94F005812F01C080E02196E4E00C9438
:10153000212CCF93DF93A5EDB1E04BED51E061E0BD
:1015400070E0F8948D91E82FE295EF70F0E021A122
:101550008F70EB0102C0CC0FDD1F8A95E2F7CE0140
:101560009C2F9095922391A392A1892B82A378948A
:101570004A175B0731F7DF91CF910895A2E0B0E001
:10158000E4ECFAE00C94052C80E290E090930B01DF
:1015900080930A018091540281110EC00E947F2A1B
:1015A00081E0809354022FEF83ED90E3215080403F
:1015B0009040E1F700C0000019828FE38A830AE0BF
:1015C00010E022E030E0AE014F5F5F4F60E080E46A
:1015D0000E94FC2A90930B0180930A01892B69F4E5
:1015E00022E030E0AE014F5F5F4F6CE080E40E948C
:1015F000FC2A90930B0180930A0180910A012296A4
:10160000E4E00C94212CAFE2B0E0E9E0FBE00C94C4
:10161000FA2B4AA75BA76CA77DA78EA79FA791115E
:1016200010921B04CE01819629E0DC011D922A95BF
:10163000E9F726E0FE01BA96DC0101900D922A95A9
:10164000E1F72DA121110CC009A11AA12BA13CA1E8
:101650004DA15EA16FA178A589A50E94A423DEC13A
:1016600061E00E942D097C018091A6028823A9F0E7
:101670008EA1811102C087E001C086E0898389A123
:101680008A838AA18B838EEF8C8340E250E0BE0177
:101690006F5F7F4F83E00E94E125B0E5EB16BCE76A
:1016A000FB0639F48EA1882309F181E08093D401EF
:1016B00018C0E1E5EE16ECE7FE0631F48EA18823B2
:1016C000A9F00E94CF280DC0F2E5EF16FCE7FF0657
:1016D00069F48EA1882351F08091D401882329F3E5
:1016E000F0CF81E090E080FDAFCF98C16091CD0157
:1016F0007091CE01CC24CA94DC2C90E0492F50E0AC
:10170000FA01EE0FFF1FE60FF71F25913491E21645
:10171000F30609F46A01232B11F09F5FEFCF2FEF3F
:10172000C216D20609F429C14091D101411104C069
:101730001091D401212F02C020E030E0122F11704F
:101740003EA12091D2018091D301332309F4B3C08B
:10175000112309F4B0C0211117C021E030E00C2C96
:1017600001C0220F0A94EAF7822B8093D3012091C3
:101770009703309198032233310530F422E330E0AF
:10178000309398032093970321E030E0A90102C031
:10179000440F551F9A95E2F7CA0101972091D30192
:1017A00030E08217930709F0E9C080910D04909111
:1017B0000E04009729F00E948926C39708F027C1DC
:1017C00080910B0400910C048090CD017090CE01AB
:1017D000982FE0E0F0E067E099249394801709F4F3
:1017E00056C0482F50E0FA01EE0FFF1FED5FFB4F90
:1017F000A081B1816A9FF0016B9FF00D1124E3532A
:10180000FE4F6080518070E020E030E0E62DF52D45
:10181000E30FF11DE30FF11DC590D490C114D10465
:10182000A1F020E0E82DF72DE20FF11DE20FF11DF0
:10183000A590B490A114B10431F0CA14DB0409F4EA
:1018400071E02F5FEFCF3F5FE1CF7723C9F0231720
:1018500008F4DBC06A9FF0016B9FF00D1124E35385
:10186000FE4F309779F09482A1E0ED3CFA0709F43D
:10187000D2C0891307C0CA010196982F937002C085
:10188000E0E0F0E04F5F5F4F842F8370A7CF90932D
:101890000B04ED5CF14009F471C090E0FC01EE0F27
:1018A000FF1FED5FFB4F1182108201968370992715
:1018B00080930C0463C0211116C021E030E002C007
:1018C000220F331F9A95E2F72150310990E0281733
:1018D000390709F043C0442309F441C080E090E097
:1018E0000E944A283BC090E09C01215031092823E6
:1018F00039230C2C02C0959587950A94E2F7232B87
:1019000051F580FF28C08091CF019091D001892BA3
:10191000F1F0FE01319689E0DF011D928A95E9F729
:101920000E949826282F8B839C8384E08D8380914E
:10193000CF019091D001782F8887998709811A81EA
:101940003C8144E05E816F81892F0E94A423109224
:10195000D20111E004C0182F117001C010E081E025
:1019600090E00C2C01C0880F0A94EAF780959091C2
:10197000D30189238093D30101C010E08EA1882375
:1019800079F1112369F10E94982690930E048093B7
:101990000D0480919A038830A0F591E0980F909300
:1019A0009A0399E0FE01B196DE01119601900D9225
:1019B0009A95E1F7BDE08B9FC001112485569C4F9D
:1019C00029E0FE013196DC0101900D922A95E1F7A4
:1019D0002FEF3FEFFC0132872187F486E38611C0A9
:1019E00090910B0480910C04981719F00E94DE2846
:1019F00008C00E94782810920E0410920D040E94D4
:101A0000C22881E01827812F6ECE90930B0481E0CD
:101A10008093D101B3CF90930B04B0CFAF96EFE09A
:101A20000C94162CA0E0B0E0E8E1FDE00C94012C51
:101A3000DC0114962C91222309F43AC58C0161E053
:101A40000E942D09EC01F8018581882309F466C202
:101A500080911D0490911E04009709F460C0C8177E
:101A6000D90709F45CC0992764E0880F991F6A952B
:101A7000E1F7FC01EF5EFE4F208124602083845F4C
:101A80009E4FDC01CD93DC930E94A82710921B048B
:101A900061E0C8010E942D09EC0181159E4709F003
:101AA00042C0F8018581882309F43DC290918202E9
:101AB00081E0890F8770987F853020F4892B80938F
:101AC000820202C090938202809182028770FFEFAF
:101AD0008F9FC00111249595879595958795992796
:101AE000909389008093880090938B0080938A0064
:101AF00090938D0080938C004091820250918302DC
:101B000060918402709185028FE090E00E94642CC5
:101B100080918002909181020E94720904C2C115D5
:101B2000FEE7DF0719F2FE01E350FE47D8011596E4
:101B30008C91E231F10508F072C0E35AFF4F0C942A
:101B40009A2C882309F4DDC086E192E065C08823E1
:101B500009F4D7C083E092E05FC0882309F4D1C0C4
:101B600089EF91E059C0882309F4CBC08FEE91E052
:101B700053C0882309F4C5C085EE91E04DC0882389
:101B800009F4BFC08BED91E047C0882309F4B9C0C8
:101B90008BEC91E041C0882309F4B3C081EC91E063
:101BA0003BC0882309F4ADC087EB91E035C08823A2
:101BB00009F4A7C08DEA91E02FC0882309F4A1C0E1
:101BC0008AE991E029C0882309F49BC080E991E06B
:101BD00023C0882309F495C086E891E01DC08823BE
:101BE00009F48FC08CE791E017C0882309F489C0FD
:101BF0008CE691E011C0882309F483C082E691E06D
:101C00000BC0882309F47DC088E591E005C08823D6
:101C100009F477C08EE491E00E94762972C09E019B
:101C200037552F3F310511F008F06BC06E01DD24F0
:101C3000960144E0220F331F4A95E1F7F901E45F72
:101C4000FE4F7F01A9014F5E5E4F6A01DA019C9150
:101C500080FB90F99C93F80185818823A1F10E9473
:101C600098269093A4028093A302D70112968C9198
:101C700012978F5F12968C93129790911B0480910C
:101C80001C04892B13968C9313978091140314963C
:101C90008C93149716964D915C9117971E966D91A3
:101CA0007C911F97C7010E948927F601808181FFDF
:101CB00003C090E080E002C09C2F8D2F90931D0404
:101CC00080931E041EC0D7011C964D915C911D97F8
:101CD0001E966D917C911F97C7010E948927F6017E
:101CE000808181FF0EC0C7010E948F2780911D0453
:101CF00090911E048C179D0721F410921E041092DF
:101D00001D04D80115968C91882309F40FC1CE01CA
:101D10009057839708F0DBC084E090E00E943C2C51
:101D20009093260480932504FE01E150F047E232AF
:101D3000F10520F4E159FF4F0C949A2C8091250471
:101D40008160ACC0809126048860B4C08091250475
:101D50008260A4C08091250420C080912504886001
:101D60009DC0809126041EC0809126048260A2C07E
:101D700080912504806192C08091250480628EC08C
:101D80008091250480648AC00E9473238091250479
:101D9000806884C080912504886084607FC08091C1
:101DA00026048260816086C0809125048E7F76C083
:101DB00080912604877F7EC0809125048D7F6EC030
:101DC0008091250420C080912504877F67C0809181
:101DD00026041EC0809126048D7F6CC0809125044E
:101DE0008F7E5CC0809125048F7D58C08091250432
:101DF0008F7B54C00E947323809125048F774EC03F
:101E000080912504877F8B7F49C0809126048D7F38
:101E10008E7F50C08091250482FB222720F991E01B
:101E2000922790FB82F990FB83F938C080912604B9
:101E3000982F909591708E7F892B90FB81F93AC0F5
:101E40008091250486FB222720F991E0922790FBC0
:101E500086F924C00E9473238091250487FB2227E2
:101E600020F991E0922790FB87F918C061E001C04A
:101E700060E08EE090E00E94522C1EC0809125040C
:101E800084FB222720F991E0922790FB84F906C079
:101E900080912504982F909590FB80F980932504DC
:101EA0000BC08091260483FB222720F991E0922722
:101EB00090FB83F980932604609125047091260499
:101EC00084E090E00E94702C0E94732314C0C631FD
:101ED0004CE7D40709F097C280911C048A7A91E0FC
:101EE00009F490E090936E028111E0C289E20E94B1
:101EF000FB260E94271F80911303877009F4D8C224
:101F0000D80115968C91882309F4D2C280912604B9
:101F100082FFCEC282E00E94791FCAC2C1155EE76D
:101F2000D50709F000CEC0E0DEE7EBCEC631DC47D6
:101F300009F45FC2F801878190850097B9F4F80130
:101F40008581C081D181882349F0CE010E9473220E
:101F5000F82E682FCE010E94E72204C0CE010E9415
:101F6000B422F82EBE018F2D0E94DF1D0E94FC1DA1
:101F7000D82FC92FD8011596FC9015971696EC907E
:101F8000E2949FE0E922809113038770F9F0FF202B
:101F9000E9F08C2F807F803461F080E28D0F8830F3
:101FA000A8F08C2F807E803221F4D23078F0EE20A1
:101FB00069F08091260482FF09C082E00E94791FA7
:101FC000809113038770DD24D3948111D12CCC2E02
:101FD000C2948FE0C8228C2D90E08C30910508F0DF
:101FE000E5C1FC01EF56FF4F0C949A2C8C2F807F9B
:101FF000CF70882311F0C295C07FFF20B9F0CC23A9
:1020000009F4C2C180E28D0F883010F0D11106C0F2
:1020100090911C04C92BC0931C0405C090911B0413
:10202000C92BC0931B040E94271FAEC18D2F0E9495
:102030001F25CC2309F4BAC180E28D0F883060F1EE
:10204000DD2351F18C2F0E94191F29C08C2F807F16
:10205000CF70803211F0C295C07FDD2321F0D130E6
:1020600009F44CC055C08091260482FD1BC0FF209E
:1020700069F0CC2339F090911C04C92BC0931C0447
:102080000E94271F80E00E94522590C180E00E949C
:102090001F25CC2309F48AC18C2F0E94201F0E9487
:1020A000271F84C1FF2081F0EE20B1F1B1E0EB12D7
:1020B0007DC1909114038C2F8923C81709F476C130
:1020C000C92BC093140372C1E11070C18C2F0E9400
:1020D0002224809114039C2F982329F09C2F909503
:1020E00089238093140390916F028C2F892309F424
:1020F0005DC1C095C923C0936F0258C1FF2029F06C
:10210000E1E0EE1508F452C107C0E1104FC115C05F
:10211000FF2031F0E11038C18C2F0E94292446C1E4
:10212000EE2059F0D93309F03EC1FFEF27EE43E02E
:10213000F15020404040E1F734C18C2F0E9422240E
:1021400035C18C2F86958695837019F0813061F0AA
:102150002DC1FF2021F08D2F9C2F937002C080E0B5
:1021600090E00E94572728C1FF2021F08D2F9C2F3F
:10217000937002C080E090E00E9432271DC16F2D55
:102180008D2F0E94332418C18C2F837009F041C019
:10219000F11010C12D2F229526952770220F220FA6
:1021A0008D2F8F7090E0022E02C0880F991F0A9425
:1021B000E2F7D4FF0BC04FE050E002C0440F551FC0
:1021C0002A95E2F79A012095309502C020E030E090
:1021D000C695C695C370C23099F068F440917E02EE
:1021E00050917F02C13029F0822B932B84239523B9
:1021F00004C0842B952B822B932B0E944423DAC09E
:10220000822B932B20917E0230917F02822793278D
:10221000F4CFFF2019F08C2F817001C086958823A0
:1022200009F4C8C02D2F229526952770220F220F62
:102230008D2F8F7090E0022E02C0880F991F0A9494
:10224000E2F7D4FF0BC04FE050E002C0440F551F2F
:102250002A95E2F79A012095309502C020E030E0FF
:10226000C695C695C370C23079F0B8F4409180022B
:1022700050918102C13029F0822B932B8423952326
:102280000EC0842B952B09C0822B932B20918002AA
:10229000309181028227932702C0822B932B0E94C8
:1022A0001B2388C0CF70FF2039F08C2F0E9434236D
:1022B0008D2F0E9429247EC08D2F0E9422248C2FD6
:1022C0000E94222377C0D23F61F128F4D03F41F031
:1022D000D13F11F155C0D33F59F1D43FC9F050C09F
:1022E000FF2089F0E11062C0CF7181E090E002C070
:1022F000880F991FCA95E2F72091800230918102E0
:10230000822793271FC051E05E1508F44FC0ECCF21
:102310008091260482FD1CC0FF2029F08C2F8F7134
:1023200022C0FF20D9F38C2F8F710E9422233EC040
:10233000FF2059F0CF7181E090E002C0880F991F13
:10234000CA95E2F70E941B2331C080E090E0FACFEB
:10235000FF2061F08C2F8F7198E0899F90011124EC
:102360002360209313030E94342320C081E00E9445
:10237000791FA1E0AE15D0F482E00E94791F16C04B
:10238000FF2021F0EE2051F28D2F7DCEEE2059F26C
:10239000D93349F4BFEFE7EEF3E0B150E040F0404D
:1023A000E1F700C000008D2F0E941F2588EF8C0DE3
:1023B000843010F40E947C27DD20B1F0809113035B
:1023C00080FD12C0D80115961C928695869586953B
:1023D0000E943423C8010E94120D80911303869538
:1023E000869586950E94222360E0C8010E942D09EF
:1023F0005FC080916E02811104C089E20E94CD26E7
:1024000078CD85E3FBCFC330BCE7DB0779F190F4EF
:10241000C115FCE7DF07E1F0C130DC4709F08ACDE8
:102420000E947323EFEFF4E32CE0E150F0402040F2
:10243000E1F72BC0CB354CE7D407A1F1CC355CE7F5
:10244000D50741F1CA35DC4709F074CD81E02BC0D6
:102450000E9473239FEFA4E3BCE09150A040B040E2
:10246000E1F700C000000E94312645CD6FEF7FEFFD
:1024700080E090E00E94702C0E9473234FEF54E3A1
:102480008CE0415050408040E1F700C000000E94C5
:10249000262631CD8091260482FB882780F991E0A1
:1024A000892701C080E00E94901F44CD85E31FCDA5
:1024B000CDB7DEB7E8E00C941D2CA6E4B0E0E3E66F
:1024C000F2E10C94FB2B85B7806885BF85B78068E7
:1024D00085BF84B7877F84BF0FB6F894A895809195
:1024E0006000886180936000109260000FBE90E0F1
:1024F00080E80FB6F89480936100909361000FBE5E
:102500008CEA9CE190935302809352020E94281B14
:102510000E94471B8091E20084608093E2007894DF
:102520008091B6028823A1F01091E9001F7090916C
:10253000EC00892F817090FD80E8182B1092E90043
:102540008091E80083FD0E9408181F701093E90035
:1025500082E084BD93E095BD9AEF97BD80936E00B5
:102560000E94BE0A90E090930B0180930A010E94A2
:10257000330A0E94990AE0E7F2E0A6E8B2E011927D
:102580001D9222E0EE37F207D1F780E090E00E9442
:102590003C2C853E9E4F09F471C065EE7EEF80E0D5
:1025A00090E00E94702C60E082E090E00E94522C4B
:1025B00081E090E090937F0280937E0261E083E06F
:1025C00090E00E94522C60E074E184E090E00E9470
:1025D000702C60E086E090E00E94522C60E087E082
:1025E00090E00E94522C40E050E0BA0188E090E078
:1025F0000E94642C60E083E290E00E94522C60E034
:102600008CE090E00E94522C60E08DE090E00E940F
:10261000522C19821A821B821C821D821E821F82EA
:10262000188648E050E067E170E0CE0101960E9414
:10263000422C40E050E0BA018FE190E00E94642C0F
:1026400010928202109283021092840210928502EC
:1026500084E08093820240918202509183026091D3
:102660008402709185028FE090E00E94642C40E02B
:1026700050E0BA0183E190E00E94642C82E090E097
:102680000E942E2C8093940284E090E00E943C2CC7
:1026900090932604809325040E94E821FFEF23EF06
:1026A00081E0F15020408040E1F700C000000E942E
:1026B000E8218091860280FF08C06FEF7FEF80E005
:1026C00090E00E94702C0E94312683E090E00E94EE
:1026D0002E2C90E00E9444238091800290918102F0
:1026E0000E94720989EA8093800089E080938100CA
:1026F00024982C983F98479A54985C9A55985D9ADC
:102700006E98769A569A8FE090E00E94362C6093ED
:102710008202709383028093840290938502677093
:102720001FEF169FB00111247595679575956795F4
:102730007727709389006093880070938B00609373
:102740008A0070938D0060938C005E980E946509EA
:102750000E9461090E945D098FEF90E090938900CB
:102760008093880090938B0080938A0090938D00D3
:1027700080938C000E946F099FEFE0E7F2E0915098
:10278000E040F040E1F700C000000E946C092FEF2C
:1027900080E792E0215080409040E1F700C00000C7
:1027A0000E946909EFEFF0E722E0E150F04020409D
:1027B000E1F700C000000E9465098FEF90E7E2E0BA
:1027C00081509040E040E1F700C000000E946109A4
:1027D000FFEF20E782E0F15020408040E1F700C0A9
:1027E00000000E945D09809182028770189FC001DD
:1027F00011249595879595958795992790938900AC
:102800008093880090938B0080938A0090938D0032
:1028100080938C005E980E9465090E9461090E9465
:102820005D0980E091E0909322048093210408E107
:1028300010E08091B602853009F058C050E4B52E02
:1028400064E9E62E62E0F62E70E1C72EE2E1DE2EAC
:102850008091B602853009F045C08091B60284307F
:1028600009F1109227040FB6F894A8950093600020
:102870000FBEB092600083B7817F846083BF83B74F
:10288000816083BF7894889583B78E7F83BF0FB6AE
:10289000F894A89580916000886180936000109200
:1028A00060000FBE8091B502882391F20E94BE0A9B
:1028B00090E090930B0180930A010E94330A0E94DA
:1028C000990AE6E8F2E01192EE16FF06E1F70E949F
:1028D000E821E6E8F2E081918111A0C2EE16FF0640
:1028E000D1F7B6CF0E9473230E947C270E94E82173
:1028F00045E9C42E42E0D42EA6E8B2E0F60191915B
:102900008D91892792E0E33AF90719F08823B9F30A
:1029100005C0811103C00E94C42155C036E8832E32
:1029200032E0932EF12CF40171904F01F601A0805A
:10293000A724B9F1E12CBB24B394662463948A2DB7
:102940008B2141F12296EFAE22972396FFAE23977B
:102950000E94982625969FAF8EAF259726966FAE3C
:10296000269791E0872D8B2109F490E027969FAF61
:10297000279722964FAD229723965FAD23972496F3
:102980006FAD249725967FAD259726968FAD269718
:102990000E94030BE394BB0CF6E0EF12D0CFF601DC
:1029A0007082F394FFEFCF1ADF0A2EE0F212BBCF52
:1029B0008FB7F894409128045091290460912A041B
:1029C00070912B048FBF80911D0490911E04892B60
:1029D000E9F08091A3029091A4020E948926893C8B
:1029E0009105A0F080911D0490911E04992724E088
:1029F000880F991F2A95E1F7FC01EF5EFE4F2081B9
:102A000022FD04C0845F9E4F0E94A8278091D401BC
:102A1000882341F180910D0490910E04009711F1EB
:102A20000E9489262091970330919803281739072F
:102A3000C8F490910B0480910C04981759F00E94EF
:102A4000DE28109298031092970310920E041092B1
:102A50000D0408C00E94782810920E0410920D04F4
:102A60000E94C228B0901604C0901704F090180479
:102A7000D0901904E0901A041092170410921804D0
:102A80001092190410921A04C11003C0FF2009F417
:102A900047C080911404909115040E9489269C01DE
:102AA00090910F04992309F4CFC125313105C0F16C
:102AB0009F3F19F09F5F90930F04CC2061F00E941C
:102AC00019281C1414F491E001C09FEF899F802DF8
:102AD000112480931704FF2061F00E9419281F140D
:102AE00014F09FEF01C091E0899F802D1124809305
:102AF000180480911704882399F0A0901804AA2044
:102B000079F00E943C28811101C081E08093170474
:102B10008A2D0E943C28811101C081E08093180415
:102B2000D11003C0EE2009F447C0809112049091A7
:102B300013040E9489269C0190911004992309F4A2
:102B400087C125313105C0F19F3F19F09F5F9093F8
:102B50001004DD2061F00E94F9271D1414F491E0A7
:102B600001C09FEF899F802D112480931904EE20CE
:102B700061F00E94F9271E1414F09FEF01C091E04C
:102B8000899F802D112480931A0480911904882331
:102B900099F0A0901A04AA2079F00E943C28811193
:102BA00001C081E0809319048A2D0E943C28811184
:102BB00001C081E080931A04809116048B111AC021
:102BC00080911704882311F08C1114C0809118048F
:102BD000882311F0F8120EC080911A04882311F096
:102BE000E81208C090911904992331F081E0D912BC
:102BF00004C002C081E001C080E080FD15C080916A
:102C0000170481110FC08091180481110BC08091AD
:102C10001904811107C081E090911A04911103C039
:102C200080E001C081E080FD0E94D227B0921604AE
:102C3000C0921704F0921804D0921904E0921A047A
:102C40000E947C279091A502891769F08093A502C4
:102C50008FB7F894409128045091290460912A0478
:102C600070912B048FBF8091B602843009F0E1CDC2
:102C70008093E9008091E80082FFDBCD8091E8003D
:102C800085FF24C00E94791C81111EC080E2E82EBD
:102C9000F12C6E0181E2C80ED11C09C08091F100B7
:102CA000F60181936F01F1E0EF1AF10869F080916C
:102CB000E80085FDF3CF8091E8008B778093E800F2
:102CC0000E94791C882399F391E001C090E08091E3
:102CD000E8008B778093E800992309F4AACD89A1B5
:102CE000863009F479C0B0F4823009F4A2CD60F4E2
:102CF000882329F1813009F08DC08093A60284E0F9
:102D000089838EEF8A837DC0843031F1853009F468
:102D100063C080C0893009F45FC030F4873099F116
:102D2000883009F459C076C08A3009F457C08E3F04
:102D300009F070C0898394E09A838B8362C0198202
:102D40008DE0E7EFF1E0DE01129601900D928A9599
:102D5000E1F78EEF8E8755C08091A602882309F493
:102D600068CD8AA1811104C08BA10E94222361CD6C
:102D700081E090E00BA002C0880F991F0A94E2F74F
:102D80000E941B2356CD81E08093A8028AA1823045
:102D9000C1F000F5882319F0813051F01BC08BA1E0
:102DA000882319F00E946F0944CD0E94650941CD26
:102DB0008BA1882319F00E946C093BCD0E94610908
:102DC00038CD8BA1882319F00E94690932CD0E9469
:102DD0005D092FCD85E01FC084E01DC08AA1FF24BE
:102DE000F394811101C0F12CF092A802811106C068
:102DF0000E9465090E9461090E945D098BE0898338
:102E0000FA8240E250E0BE016F5F7F4F83E00E9494
:102E1000E1250FCD8FEF0E94D2090BCDC9BCD9BCE3
:102E200009B400FEFDCF8091D8008F7D8093D8003B
:102E30008091E00082608093E0008091E00081FD5D
:102E4000FCCF0E94732304CD232B09F033CE68CE30
:102E50002139314008F07ACEAFCE8091B80287FF99
:102E600011C08091E80082FD05C08091B6028111F9
:102E7000F8CF11C08091E8008B770BC08091B6022B
:102E8000882349F08091E80080FFF8CF8091E80026
:102E90008E778093E8000895982F973068F5909387
:102EA000E900981739F07091EC002091ED005091F5
:102EB000F00003C0242F762F50E021FD02C09F5F59
:102EC000ECCF3091EB003E7F3093EB003091ED0082
:102ED0003D7F3093ED003091EB0031603093EB009B
:102EE0007093EC002093ED005093F0002091EE00E1
:102EF00027FDE5CF80E008958F708093E90081E0A1
:102F000008952091BE023091BF022617370748F07E
:102F10006115710539F42091E8002E772093E800BF
:102F200001C0B901FC0120E06115710579F18091C2
:102F3000B6028823F1F18530F1F18091E80083FD3C
:102F40003CC08091E80082FD2EC08091E80080FFA7
:102F5000EBCF2091F3008091F20090E0922B61156D
:102F6000710551F08830910538F421912093F100DA
:102F7000615071090196F3CF21E0089709F020E034
:102F80008091E8008E778093E800CECF2111CFCFDB
:102F90000AC08091B602882361F0853061F080918B
:102FA000E80083FD0AC08091E80082FFF2CF80E054
:102FB000089582E0089583E0089581E0089543E054
:102FC00050E0BC0185E00E94E125089545E050E015
:102FD000BC0182E00E94E125089540E250E0BC017E
:102FE00085E00E94E1250895CF93DF93EC0148E04E
:102FF00050E0BC0181E00E94E12588E0FE01ACEADE
:10300000B2E001900D928A95E1F7DF91CF9108959A
:10301000AAE2B0E0EEE0F8E10C94062CE8EBF2E076
:103020008091F100819342E0E03CF407C9F7809180
:10303000B902833009F463C030F4813071F082301A
:1030400009F49DC0B4C08A3009F489C08B3009F4FA
:103050006EC0893009F0ABC020C08091B802813ABF
:1030600009F0A5C08091E800877F8093E8008091F7
:10307000BC029091BD02892B21F468E08CEA92E0B9
:1030800003C060E080E090E070E00E9481178091D2
:10309000E8008B778093E8008AC08091B802813283
:1030A00009F085C08091BC029091BD02009719F093
:1030B000039709F07CC08091E800877F8093E80047
:1030C0008091E80082FD05C08091B6028111F8CFA1
:1030D0006EC02091F3008091F20090E0922B029755
:1030E00031F48091F100813011F0863021F480912B
:1030F000F1008093AB028091E8008B7754C08091FF
:10310000B802813A09F053C08091BC029091BD028F
:10311000892B09F04CC08091E800877F8093E800FC
:103120008091E80080FFFCCF8091CC0137C0809176
:10313000B8028132E1F58091BC029091BD02892BE9
:10314000B1F58091E800877F8093E8000E942D17F9
:103150008091BA028093CC010E94732328C0809191
:10316000B802813221F58091E800877F8093E800E2
:103170000E942D178091BB028093AA0218C08091F3
:10318000B802813AA1F48091E800877F8093E8003B
:103190008091E80080FFFCCF8091AA028093F1002B
:1031A0008091E8008E778093E8000E942D1780912F
:1031B000E80083FFF1C18091B8029091B902492FD4
:1031C00050E04A30510508F0E7C1FA01E356FF4FDD
:1031D0000C949A2C803821F0823809F0DDC108C0A7
:1031E0008091B4029091B502992389F082600FC05A
:1031F0008091BC028F70873008F0CEC18093E900C7
:103200008091EB0085FB882780F91092E90090916E
:10321000E800977F9093E8008093F1001092F1000E
:103220007DC1282F2D7F09F0B7C1882319F0823086
:1032300061F0B2C18091BA02813009F0ADC1933022
:1032400009F080E08093B5022EC08091BA0281110E
:103250002AC08091BC028F702FEF280F263008F013
:103260009BC18093E9002091EB0020FF1CC09330AC
:1032700021F48091EB00806214C09091EB0090618A
:103280009093EB0021E030E0A90102C0440F551FEC
:103290008A95E2F74093EA001092EA008091EB00F1
:1032A00088608093EB001092E9008091E800877FAE
:1032B0008093E8000E942D176FC181116DC110919C
:1032C000BA021F778091E3008078812B8093E3001E
:1032D0008091E800877F8093E8000E942D178091FD
:1032E000E80080FFFCCF8091E30080688093E300DA
:1032F000111102C082E001C083E08093B6024CC18C
:103300008058823008F048C12091BA023091BB0247
:103310002C3D53E0350779F583E08A838AE289837F
:103320004FB7F894DE01139620E03EE051E2E32F20
:10333000F0E050935700E49120FF03C0E295EF7056
:103340003F5FEF708E2F90E0EA3010F0C79601C01B
:10335000C0968D939D932F5F243149F74FBF809185
:10336000E800877F8093E8006AE270E0CE01019672
:103370000E948117C1C08091BC029091BD02432F71
:10338000552743305105B1F068F44130510509F437
:1033900012C14230510509F0FFC084E790E0EAE332
:1033A000F3E057C04132510589F14232510509F429
:1033B0003CC0F2C0C901992781309105B9F070F085
:1033C00082309105D9F0039709F0E6C0E0ECF3E014
:1033D000E4918E2F90E0E0ECF3E038C0EEE1F4E011
:1033E000E4918E2F90E0EEE1F4E030C0E4EFF3E002
:1033F000E4918E2F90E0E4EFF3E028C0ECEDF3E0F1
:10340000E4918E2F90E0ECEDF3E020C08430910544
:1034100008F0C2C0880F991FFC01E05FFD4F0190CA
:10342000F081E02D89E090E014C08430910508F02F
:10343000B3C0FC01EE0FFF1FE85FFD4F0190F0816C
:10344000E02DDC01AC5FBD4F8C9190E0009709F45A
:10345000A3C02091E800277F2093E8002091BE02BE
:103460003091BF028217930708F49C0140E02115B8
:10347000310589F18091B602882309F43DC0853079
:10348000D9F18091E80083FD37C08091E80082FD8A
:103490002FC08091E80080FFEACF4091F300809137
:1034A000F20090E0942B2115310559F088309105F8
:1034B00040F444914093F100319621503109019636
:1034C000F2CF41E0089709F040E08091E8008E7764
:1034D0008093E800CCCF4111CDCF0AC08091B602D5
:1034E000882351F0853041F08091E80083FD04C0CD
:1034F0008091E80082FFF2CF8091E8008B77809383
:10350000E8004AC0803809F047C08091E800877F12
:103510008093E8008091B7028093F1008091E800E9
:103520008E77C6CE811138C08091BA029091BB02CD
:10353000992702978CF58091E800877F8093E800B7
:103540001091BA021093B7020E942D17111106C0F4
:103550008091E30087FD02C081E001C084E0809398
:10356000B60242E061EC81E00E944C1742E161EC5E
:1035700082E00E944C1742E261EC85E00E944C1709
:1035800042E261EC83E00E944C1742E260EC84E08E
:103590000E944C178091B6028091E80083FF10C012
:1035A0008091E800877F8093E8008091EB00806243
:1035B0008093EB0005C082E190E0EEEAF3E049CFB2
:1035C000AA96E3E00C94222C1F920F920FB60F9252
:1035D00011242F933F934F935F936F937F938F9318
:1035E0009F93AF93BF93CF93DF93EF93FF93C091DC
:1035F000E900CF708091EC00D82FD17080FDD0E829
:103600001092E9008091F000877F8093F000789419
:103610000E9408181092E9008091F0008860809361
:10362000F000CD2BCF70C093E900FF91EF91DF91B7
:10363000CF91BF91AF919F918F917F916F915F914A
:103640004F913F912F910F900FBE0F901F901895A3
:10365000E8EDF0E080818E7F80831092E20010928E
:10366000DA001092E100A0EEB0E08C9181608C93C2
:1036700080818F77808319BCA7EDB0E08C918E7F1D
:103680008C9380818F7E80831092A9020895A0E0A0
:10369000B0E0EDE4FBE10C94012CC8EDD0E08881B2
:1036A0008F7E8883E7EDF0E080818160808384E015
:1036B00082BF81E08093A90288818E7F888302EE99
:1036C00010E0F80110821092DA0081EEC82ED12CA1
:1036D000F601108288818F7788838881806888834B
:1036E00088818F7D888319BC1092B6021092B70230
:1036F0001092B5021092B40290EEE92EF12CF7016F
:1037000080818B7F808388818160888342E060E054
:1037100080E00E944C17F60180818E7F8083F80143
:10372000808181608083808188608083F7018081CF
:103730008E7F8083888180618883CDB7DEB7E8E0A3
:103740000C941D2C1F920F920FB60F9211242F93E1
:103750003F934F935F936F937F938F939F93AF9319
:10376000BF93EF93FF938091E10082FF09C08091A6
:10377000E20082FF05C08091E1008B7F8093E10031
:103780008091DA0080FF2AC08091D80080FF26C097
:103790008091DA008E7F8093DA008091D90080FFDB
:1037A00018C080E189BD82E189BD09B400FEFDCF6A
:1037B00081E08093B6028091A90281110FC00E941E
:1037C000281B0E94471B8091E20084608093E200E6
:1037D00005C019BC1092B6021092A9028091E100B6
:1037E00080FF17C08091E20080FF13C08091E2004B
:1037F0008E7F8093E2008091E20080618093E200FE
:103800008091D80080628093D80019BC85E08093B5
:10381000B6028091E10084FF30C08091E20084FF15
:103820002CC080E189BD82E189BD09B400FEFDCFD5
:103830008091D8008F7D8093D8008091E1008F7EA9
:103840008093E1008091E2008F7E8093E20080917E
:10385000E20081608093E2008091B702882311F03A
:1038600084E007C08091E30087FD02C081E001C0D1
:1038700083E08093B6028091B6028091E10083FFDD
:1038800027C08091E20083FF23C08091E100877F01
:103890008093E10082E08093B6021092B70280919B
:1038A000E1008E7F8093E1008091E2008E7F809323
:1038B000E2008091E20080618093E20042E060E0FB
:1038C00080E00E944C178091F00088608093F000A7
:1038D000FF91EF91BF91AF919F918F917F916F91E8
:1038E0005F914F913F912F910F900FBE0F901F90BE
:1038F00018952091E4003091E50095E64091EC00A8
:10390000842F817040FF23C08091E80080FD1DC09E
:103910008091B602882399F0853099F08091EB0070
:1039200085FD11C04091E4005091E5002417350752
:1039300029F3915011F09A01E1CF84E0089582E0DB
:10394000089583E0089581E0089580E0089540910E
:10395000E80042FFDDCF089580E0089590912504AE
:1039600092FF10C041E0282F2471243009F040E07C
:1039700031E0282F2871283009F030E0431711F08A
:103980002CE0822793FF10C041E0282F24712431BE
:1039900009F040E031E0282F2871283109F030E0AB
:1039A000431711F02CE082273091260430FF10C01D
:1039B00051E0282F2171213009F050E041E0282FFB
:1039C0002871283009F040E0541711F029E08227CF
:1039D00031FF10C041E0282F2171213109F040E072
:1039E00031E0282F2871283109F030E0431711F019
:1039F00029E0822794FD877E08958238910569F138
:103A0000B0F48133910509F475C048F48932910509
:103A100009F467C08A32910509F471C008958533AD
:103A2000910509F459C089339105B9F00895833E91
:103A3000910589F138F4803E9105D1F0823E9105DF
:103A400029F10895863E9105C9F1873E9105D9F186
:103A5000843E910509F06CC027C02091250420FD0B
:103A600057C021FD55C02091260423FD5BC0089559
:103A70008091250480FD48C08091260480FF48C0C5
:103A80008091250484FD46C083EE51C080912504B9
:103A900082FF3CC0F5CF8091250482FD37C0809124
:103AA000260480FD35C0ECCF8091260481FF36C00E
:103AB0008091250484FD2EC087EE39C080912504B5
:103AC00083FF2AC0F5CF8091250483FD25C0809116
:103AD000260481FD23C0ECCF8091250485FD22C002
:103AE0001FC08091250485FD1BC08091260483FFA3
:103AF00019C00AC08091250486FD16C017C08091A8
:103B0000250486FD13C010C089E311C082EE0FC0EA
:103B100080EE0DC080E00BC086EE09C084EE07C0C9
:103B200085E305C089E203C08AE201C081E390E039
:103B3000089590911C0480911B04892B909114038B
:103B40009923E1F0892B9091CC01992341F0909138
:103B5000250497FF04C09EE129E733E003C096E007
:103B600021E733E0F90120E0915028F0319133232F
:103B7000D9F32F5FF9CF21111092140308952091EA
:103B800012039091C90259E02917A9F030E0529F21
:103B9000F001539FF00D1124E653FD4F7181761310
:103BA00006C07081781303C07581741306C02F5F3F
:103BB0003F4F2770E9CF80E0089581E008957E307F
:103BC000B0F46630A0F48930A0F494E5899FF00148
:103BD000112486E0789FE00DF11D1124E60FF11D00
:103BE000EE0FFF1FEE5DFB4F85919491089580E0ED
:103BF00001C081E090E008951F93CF93DF930E946E
:103C0000FD1CEC01C11580E5D807E8F5C11590E46D
:103C1000D90708F0A8C0C03ED10530F5CD3CD1058C
:103C200008F094C0C83AD10578F4C53AD10508F037
:103C300083C0C130D10509F47CC008F4F2C0C4309F
:103C4000D10508F0F1C0EDC0C33CD10508F0E9C0D2
:103C5000C85AD0E0CC0FDD1FC55EDD4F0990D8817A
:103C6000C02DCE019464E1C0C11580E2D80708F0F0
:103C7000CBC0C11591E0D90708F06BC0C83ED10593
:103C800008F4D2C0CEC0C03682E5D80728F5C034CB
:103C900092E5D90708F079C0C03282E5D80708F06C
:103CA0006CC0C11592E5D90708F481C04C2F469528
:103CB000469580E2489FA0011124C37021E030E0C6
:103CC000C90102C0880F991FCA95E2F7EA01C82B03
:103CD000D92BCE019D68A9C0C03A82E5D807B8F4B7
:103CE0008C2F8F71C03892E5D90708F07BC086957C
:103CF000869590E2899F90011124C37081E090E045
:103D000002C0880F991FCA95E2F79A6868C0C03C44
:103D100082E5D80708F46DC0C03E92E5D90708F0E7
:103D200080C0CF71DD27DC2FCC27CE01806F906A59
:103D30007CC081E090E079C0C55AD0E0C85EDD4F1C
:103D40008881C82FD0E0CE0190646FC0CE0190650D
:103D50006CC08D2F0E94AE1C182FCE0199270E9497
:103D6000FD1C1F715CC0CE0199270E94FD1CCC2751
:103D7000DF70D06A8C2B9D2B58C0CF71D0E0DC2F28
:103D8000CC27CE01816F906A50C08C2F8F718695A1
:103D9000869590E2899F90011124C37081E090E0A4
:103DA00002C0880F991FCA95E2F79C6818C08C2F33
:103DB0008F710E94AE1C95E0D695C7959A95E1F754
:103DC000CF70D0E0DC2FCC27282F30E084FF05C057
:103DD00084E0220F331F8A95E1F7D069CE01822B50
:103DE000932B23C090E0D82FCC27CE01846F906A0C
:103DF0001CC08C2F8F710E94AE1C8F7190E0D82F49
:103E0000CC27CE01906211C08D2F8F710E94AE1C05
:103E1000182FCE0199270E94FD1C1F719062912BD3
:103E200004C080E090E001C0CE01DF91CF911F91EE
:103E30000895809590911B04892380931B04089515
:103E4000809590911C04892380931C04089580918F
:103E5000CC01882351F18091250487FF26C00E9460
:103E6000991D8093780340E250E065E173E087E7B5
:103E700093E00E94A02C892BD9F180E2E7E7F3E0E0
:103E8000A5E1B3E001900D928A95E1F7E09121045C
:103E9000F0912204309761F186E0809377030480EB
:103EA000F581E02D87E793E022C00E94991D809361
:103EB0006F0348E050E065E373E08FE693E00E9413
:103EC000A02C892BA9F088E0EFE6F3E0A5E3B3E0AE
:103ED00001900D928A95E1F7E0912104F09122047E
:103EE000309731F00280F381E02D8FE693E0099561
:103EF0000895909113038095892380931303282FAD
:103F0000277069F4981759F09091260492FF07C022
:103F10008695869586950E94222310921303089514
:103F20009091260492FB222720F9281779F080FB34
:103F300092F990932604609125047091260484E000
:103F400090E00E94702C82E00E94791F0895809179
:103F500012039091C902891719F08F5F8770FBCF08
:103F60000895CF93DF938091C60282958F7009F0F8
:103F70004EC08091C502882309F449C08091120384
:103F80004091C9025091C1026091C002C091C20229
:103F9000D091C30279E08417D1F190E0789FF001CD
:103FA000799FF00D1124DF01A653BD4F14962C917B
:103FB0001497222349F111962C911197251324C0AF
:103FC0002C91261321C015962C91159721111CC0F8
:103FD00012962D913C9113972C1B3D0B283C3105DB
:103FE00098F48091C6028F7080618093C602E0537E
:103FF000FD4F80818F708061808380EC92E00E9411
:10400000120D0E94A71F03C001968770C4CFDF91D5
:10401000CF910895A8E1B0E0E0E1F0E20C94FD2B2F
:104020008C0186E0F801DE01539601900D928A958D
:10403000E1F7F8018481E58090EC892E92E0992ED9
:104040009091C402911120C0882309F496C1EE20FA
:1040500009F442C0C8010E944923F82E8823E1F1E7
:1040600089E0F801D40101900D928A95E1F78091E1
:10407000C402813031F48091C0029091C1020E944B
:10408000A7220E94B11F7BC1F801D080C180A2800D
:10409000B380F090C5022091C2023091C302FF208C
:1040A00009F410C1A501421B530B483C510508F00F
:1040B000B6C0882309F463C18091C602282F207FEF
:1040C0009091C102222361F09C1509F469C0C801D6
:1040D0000E944923811176C0C8010E94120D4DC172
:1040E0009C111CC09091C0029D1118C04091C70244
:1040F0005091C802278130854217530779F4E110A7
:104100000DC08F7080618093C60280EC92E00E94A7
:10411000120D8091C602F80186832DC1E1103AC0CC
:1041200040E06C2D8D2D0E94BF1D40E06C2D8D2D2B
:104130000E94BF1DE82E81111EC1DB8ACC8A8B89AB
:104140009C890E94A722292F22952F70243020F4C9
:104150009F70223028F009C02A50223080F014C00D
:10416000992349F0811107C013C0992321F0F80168
:104170009681907F69F0805E883030F409C0803F7E
:1041800038F0815F833020F0C8010E94120DEF2CBF
:10419000FE2CF5C08091C60281608093C602EBC000
:1041A0009091C0029D1193CF4091C7025091C802D7
:1041B000F801278130854217530709F088CFE110B5
:1041C00086CFB8C0EE2009F487CF2091C602822F97
:1041D00082958F7090E00297BCF08091C002909120
:1041E000C1029B878A87BD86AC868091C4028E8778
:1041F0001F86288B8091C7029091C8029A8B898B69
:10420000CE010A960E94120D89E0F801A0ECB2E0FE
:1042100001900D928A95E1F70E94B11FAEC0909176
:10422000C602292F207F51F480EC92E00E94120DEB
:1042300089E0F40111928A95E9F79DC0882309F479
:104240009EC08091C1028C1115C08091C0028D1159
:1042500011C04091C7025091C802F80127813085F2
:104260004217530739F4E11005C09683C8010E9434
:10427000120D7BC0C8010E944923882309F42CCF6A
:10428000EE2009F429CF2091C602822F82958F70EB
:1042900090E002970CF4B8CF8091C0029091C102D7
:1042A0009A838983BC82AB828091C4028D831E82F3
:1042B0002F838091C7029091C80299878887CE0189
:1042C0000196A0CFA21AB30AF8ECAF16B10408F019
:1042D0004CC0882309F451C0FE2CEE2009F4FCCE1A
:1042E0008091C1028C1133C08091C0028D112FC00A
:1042F0002091C7023091C802F80187819085281764
:10430000390729F58091C60280FD18C082958F700B
:10431000482F50E04115510589F02091C6022683AF
:104320004F30510541F08F5F982F9295907F822FEB
:104330008F70892B8683C8010E94120D89E0F801D5
:10434000A0ECB2E001900D928A95E1F718C0C80187
:104350000E944923811158CF8091C60281608093C9
:10436000C602C8010E94120D0AC089E0F401119230
:104370008A95E9F704C0F12C02C0FF24F3948F2D35
:104380006896ECE00C94192CA6E0B0E0EAECF1E2BF
:104390000C94052C0E9498268C0180913D039091ED
:1043A0003E030817190781F019821A820E94982685
:1043B000682F49815A81792F80E090E00E94030B99
:1043C00010933E0300933D032696E4E00C94212CC9
:1043D000EF92FF920F931F93CF93DF9380910A0187
:1043E00090910B01892BD9F080913F038F5F8093CF
:1043F0003F03811114C00E94BE0A90E090930B010C
:1044000080930A01892B59F42FEF83EC99E0215016
:1044100080409040E1F700C000000E94262600E79F
:1044200012E0C0E0D0E087E0E82EED0E8D2F0E9474
:10443000E7098E2D0E94E7098D2F0E94480A8F738D
:10444000F8019081891721F08083FF24F39401C043
:10445000F12C8E2D0E94480A8F73F80197818917DD
:1044600019F0878381E001C080E0F82ACF290E94FB
:10447000330ADF5F0F5F1F4FD730A9F6CC2359F007
:1044800081E0809342030E94982690934103809399
:104490004003C0E022C0809142038823F1F0809164
:1044A0004003909141030E9489264497B0F04EE06A
:1044B00050E060E772E086E892E00E94A02C892B31
:1044C00051F08EE0E0E7F2E0A6E8B2E001900D9254
:1044D0008A95E1F7C1E0109242038C2FCDB7DEB789
:1044E000E6E00C941F2CA0E0B0E0E9E7F2E20C94C7
:1044F000002C7C01009180021091810280917E024B
:1045000090917F02082B192BCFE0D0E0CC24C394EC
:10451000D12CC6010C2E02C0880F991F0A94E2F715
:1045200080239123892B21F4219798F7B12C09C07E
:10453000BC2EB7018C2F0E94DF1D0E94FC1D01972D
:1045400099F38B2DCDB7DEB7E9E00C941C2CCF93FB
:10455000DF93EC010E947322BE010E94DF1D0E94C6
:10456000FC1DDF91CF9108959E3078F5863068F577
:10457000E82FF0E086E0989FE00DF11D11249E2FBA
:10458000977083E0F695E7958A95E1F7EE0FFF1FA8
:10459000EE0FFF1FED5BFC4F40E050E080E021910B
:1045A00030E0092E02C0369527950A94E2F7217073
:1045B0003327042E01C0220F0A94EAF7822B4F5FA3
:1045C0005F4F4430510559F7089580E008959E30BB
:1045D00088F5863078F5E82FF0E086E0989FE00DCA
:1045E000F11D11248E2F877051E001C0550F8A955F
:1045F000EAF783E0F695E7958A95E1F7EE0FFF1F5E
:10460000EE0FFF1FED5BFC4F20E030E070E04081DB
:10461000CB01022E02C0969587950A94E2F781702D
:10462000819584278523842781932F5F3F4F2430F2
:10463000310569F708950E94720990938102809371
:104640008002089521E030E002C0220F331F8A95D6
:10465000E2F720953095809180029091810282232B
:1046600093230E941B23089521E030E002C0220F13
:10467000331F8A95E2F78091800290918102822B0C
:10468000932B0E941B23089590937F0280937E02B8
:104690000895FC012481222311F1878190850097E0
:1046A00019F00E94FC1D04C0808191810E94A72204
:1046B00092959F70963079F010F4925001C09A5004
:1046C000923068F4803F69F018F4883E40F409C0E5
:1046D000843F29F406C0883E20F0813F11F080E03D
:1046E000089581E0089510921C048091CC018823E4
:1046F00041F08091250487FF04C08EE1E9E7F3E0F3
:1047000003C086E0E1E7F3E0DF011D928A95E9F757
:1047100080E090E00E94572780E090E00E943227DE
:1047200010921B040E94271FE6E1F4E085E0DF0100
:104730001D928A95E9F710920F04109210041092BE
:1047400011040E94D2270895A2E1B0E0EAEAF3E260
:104750000C94052C0A871B872C873D874E875F8723
:10476000688B798B8A8BCE010A960E940A20811170
:104770003BC089E0FE013A96DE01119601900D9250
:104780008A95E1F76E85662379F12091C90230E0C0
:10479000C9010196877099274091120350E0841750
:1047A0009507A1F06D8399E0929FD001939FB00D82
:1047B0001124A653BD4FFE01319601900D929A959A
:1047C000E1F78093C9020E94A71F0EC00E947323C5
:1047D0001092C90210921203E0ECF2E089E0DF01CE
:1047E0001D928A95E9F719C019E080911203909102
:1047F000C902891791F0189FC001112486539D4F5B
:104800000E940A20882349F08091120390E00196CB
:104810008770992780931203E8CF6296E4E00C94A6
:10482000212C882321F00E94191F0E94271F089520
:10483000882339F090911B04892B80931B040E94DC
:10484000271F0895882321F00E94201F0E94271F00
:104850000895882339F090911C04892B80931C04BF
:104860000E94271F089590911704662309F470C0D1
:1048700091110CC090911804911108C090911A04E4
:10488000911104C090911904992331F098E090930C
:104890000F0491E0909310048D3C21F40E9419289C
:1048A000819504C08E3C29F40E9419288093180435
:1048B000C3C08F3C21F40E941928819504C0803D1B
:1048C00029F40E94192880931704B6C0893D19F471
:1048D0000E94F92705C08A3D31F40E94F92781958D
:1048E00080931904A9C08B3D21F40E94F92781957A
:1048F00004C08C3D29F40E94F92780931A049CC0BF
:104900009FE2980F983078F421E030E0A90102C0CE
:10491000440F551F9A95E2F7CA0190911604892B0E
:104920008093160489C08D3D21F48091110481602B
:104930000CC08E3D21F480911104826006C08F3D31
:1049400009F07AC08091110484608093110474C0CE
:104950008D3C39F49091180497FF33C010921804DD
:1049600057C08E3C29F4909118041916BCF329C045
:104970008F3C29F497FF25C01092170449C0803D51
:1049800019F41916CCF31DC090911904893D29F42E
:104990001916BCF4109219043BC08A3D19F497FF14
:1049A00010C0F8CF8B3D39F490911A0497FF09C0DD
:1049B00010921A042DC08C3D21F490911A041916FE
:1049C000BCF39FE2980F983080F421E030E0A90119
:1049D00002C0440F551F9A95E2F7CA018095909145
:1049E000160489238093160413C08D3D21F4809111
:1049F00011048E7F0BC08E3D21F4809111048D7FB8
:104A000005C08F3D29F4809111048B7F80931104A0
:104A100080911704811106C080911804811102C091
:104A200010920F0480911904811106C080911A041C
:104A3000811102C0109210040E94D2270895882389
:104A400081F19CEF980F913A18F40E94CD260DC089
:104A500090E2980F983060F4877091E001C0990F50
:104A60008A95EAF7892F0E94201F0E94271F089528
:104A70009BE5980F933028F480E090E00E94572740
:104A8000089598E5980F9B3128F480E090E00E940B
:104A90003227089593E3980F933118F460E00E9451
:104AA00033240895CF93882309F46EC0C82F8CEF68
:104AB0008C0F813AA0F58091CC018823E1F08091A0
:104AC000250487FF18C0EC2FE695E695E695F0E003
:104AD000E958FC4F8281282F30E04C2F477081E04D
:104AE00090E002C0880F991F4A95E2F78223932332
:104AF000892B61F410C0E1E7F3E087E793E02191AF
:104B0000C21721F08E179F07D1F705C08C2F0E9486
:104B1000CD260E94271F8C2F0E94FB2610C080E20A
:104B20008C0F883078F4C77081E090E001C0880F66
:104B3000CA95EAF790911C04892B80931C040E946B
:104B4000271F22C0EBE5EC0FE33040F4F0E0E85E15
:104B5000FD4F808190E00E94572716C0E8E5EC0FDA
:104B6000EB3150F4F0E0EE0FFF1FE55EFD4F80816A
:104B700091810E94322708C083E38C0F833120F497
:104B800061E08C2F0E943324CF9108951F93CF931F
:104B9000DF93182FEB010E945225209741F08FE9F7
:104BA0009FE00197F1F700C000002197F6CF812F19
:104BB0000E941F25DF91CF911F9108958091AB0234
:104BC00008950F931F93CF93DF938B01EA01909188
:104BD000B6029430A9F58F708093E9008FEF909121
:104BE000E800815095FD06C095ED9A95F1F700001B
:104BF0008111F5CF8091E80085FF22C00E94791CC9
:104C0000811115C0209789F08091E80085FD06C0CC
:104C10008091E8008E778093E800F0CFF8018191D1
:104C20008F018093F1002197EDCF90E001C0982F84
:104C30008091E8008E778093E80081E0911101C0B7
:104C400080E0DF91CF911F910F9108959AE088E164
:104C50000FB6F894A895809360000FBE9093600003
:104C6000FFCFF89481E08093E00080E28093D80049
:104C7000E9ECF0E010828FE19EE40197F1F700C0CB
:104C800000001DBA109268001CBC10BE1FBA109222
:104C90007A0010926E0010926F00109271001092C4
:104CA00072001082ECEBF0E0108214B817B81AB85A
:104CB0001DB810BA108215B818B81BB81EB811BAB2
:104CC0000C94003F089578941F920F920FB60F92A4
:104CD00011248F939F93AF93BF9380912804909159
:104CE0002904A0912A04B0912B040196A11DB11DA5
:104CF0008093280490932904A0932A04B0932B0452
:104D0000BF91AF919F918F910F900FBE0F901F9009
:104D100018959C014FB7F89480912804909129042C
:104D2000A0912A04B0912B044FBF821B930B0895CE
:104D30002FB7F8948091280490912904A0912A0417
:104D4000B0912B042FBF08951F920F920FB60F92B0
:104D500011248F939F93AF93BF9380912704811168
:104D600013C08091280490912904A0912A04B09145
:104D70002B044196A11DB11D809328049093290412
:104D8000A0932A04B0932B04BF91AF919F918F9170
:104D90000F900FBE0F901F9018959091CC01992302
:104DA00021F09091250497FD03C0EFE6F3E01DC0CC
:104DB000E82FE695E695E695EE31E0F4F0E0E95867
:104DC000FC4F877021E030E0A90102C0440F551F5D
:104DD0008A95E2F7CA01809592818923828308959A
:104DE000319653E0E537F50729F092818913F8CF22
:104DF0001282F6CF08959091CC019923D1F0909131
:104E0000250497FF16C0E82FE695E695E695EE3166
:104E100040F5F0E0E958FC4F877021E030E0A9014F
:104E200002C0440F551F8A95E2F7CA019281892B6F
:104E300016C0A1E7B3E0EFEF90E02D91821789F063
:104E4000EF3F19F4211101C0E92F9F5F9630A9F7B8
:104E5000EF3F39F00E2E000CFF0BE159FC4F82831F
:104E600008950895A3E0B0E0E8E3F7E20C94072C7E
:104E7000209123043091240428173907A1F090933E
:104E8000240480932304E0912104F09122043097BC
:104E900051F024E029839B838A830084F185E02DEF
:104EA000CE01019609952396E2E00C94232CA3E011
:104EB000B0E0EDE5F7E20C94072C20911F0430914F
:104EC000200428173907A1F09093200480931F0431
:104ED000E0912104F0912204309751F023E02983DE
:104EE0009B838A830084F185E02DCE01019609958C
:104EF0002396E2E00C94232CE0912104F09122040B
:104F0000309729F00190F081E02D0995089580E017
:104F100008954115510511F0FA0109950895CF93AF
:104F2000DF93EC014A855B856E857F850E9489272A
:104F30008B810E94191F8C810E94201F0E94271FB5
:104F400086E0FE0111928A95E9F7DF91CF910895ED
:104F5000CF93DF93EC018D8181FD17C082608D833B
:104F600090911B048B81892B80931B0490911C04CE
:104F70008C81892B80931C040E94271F48855985AA
:104F80006E857F85CE010E94892710921E041092A3
:104F90001D048D8180FD03C0CE010E948F27DF910B
:104FA000CF9108950E94982620911704211104C0E2
:104FB00020911804222321F0909315048093140467
:104FC00020911904211104C020911A04222321F0F8
:104FD0009093130480931204E0912104F091220431
:104FE000309731F00680F781E02D86E194E0099555
:104FF00008958091110480FD18C081FD14C082FDC8
:1050000016C080911004882381F08C3380F425E051
:10501000829FC00111246CE370E00E94862C862FD1
:10502000672B19F005C082E0089581E0089585E0BE
:1050300008958091110480FD17C081FD17C082FD85
:1050400019C080910F04882399F08C3398F428E2DA
:10505000829FC00111246CE370E00E94862C862F91
:10506000672B49F481E008958AE0089584E108956A
:1050700088E0089588E20895282F35EB2303C001C6
:10508000112497FF03C08058910902C080589F4F98
:10509000892F0895BC0140910B0480910C04942F3A
:1050A000981729F1292F30E0F901EE0FFF1FED5F6E
:1050B000FB4F0190F081E02DE617F70799F487E0A8
:1050C000869FF001879FF00D1124E353FE4F81E08E
:1050D000848394130CC02F5F3F4F2370332720939A
:1050E0000B0408952F5F3F4F922F9370D9CF0895EF
:1050F000EF92FF920F931F93CF93DF9380919A03C8
:105100008823D9F1C09199038DE0F82E80919A03FC
:10511000C81778F5EE24E394EC0EE0929903D0E002
:10512000FC9EF001FD9EF00D1124E556FC4F84819C
:105130008823E9F087819085892B21F481859285E8
:10514000019659F400811181228133814481558176
:105150006681778180850E94A423FC9EF001FD9EDC
:10516000F00D1124E556FC4F148210921B04CE2D35
:10517000CDCF10929A0310929903CDB7DEB7E6E037
:105180000C941F2C10929803109297038091D201D7
:10519000811104C01092D1011092D3010895109290
:1051A0000E0410920D041092D40180910C0480938F
:1051B0000B040E94C2280E9478280895A0E0B0E065
:1051C000E4EEF8E20C94F72BC0910B04E7E0FE2E1E
:1051D00001E010E0FDE02F2EEE24E39480910C041A
:1051E000C81709F47AC0D0E0FE01EE0FFF1FED5F93
:1051F000FB4F80819181F89EF001F99EF00D112402
:10520000E353FE4F2481211165C060909A03ABE9FE
:10521000B3E020E030E0712C5F01261508F058C0A3
:105220001B964D905C901C97F501808091804FEF0C
:105230005FEF312CC32CD12CF601EE0FFF1FE80DD0
:10524000F91D659174914616570609F4A601672B5E
:1052500011F03394EFCF4F3FFFEF5F07A9F1B80193
:1052600002C0660F771F4A95E2F7762AA801032C41
:1052700002C0440F551F0A94E2F741505109672DAF
:1052800070E046175707E9F4229EF001239EF00DC7
:105290001124E556FC4FF89ED001F99EB00D112463
:1052A000A353BE4F12962D913C91139730872783BD
:1052B00074E0748310821182928781871596EC9234
:1052C00007C014961C9214972F5F3F4F1D96A5CFD1
:1052D0000E944A282196C37081CF0E9478280E949C
:1052E000C228CDB7DEB7E2E10C94132CA0E0B0E009
:1052F000ECE7F9E20C94FF2BEC018AE0A82EFE010A
:105300002491222309F4A3C0213009F044C031962E
:105310008491813059F42296FE018491893319F0E9
:1053200060E070E08EC060E570E08BC0823031F4E8
:105330002296FE0184910E94522587C0833031F469
:105340002296FE0184910E941F257FC0843009F0BF
:105350007BC02296FE01249180E090E030E0205353
:1053600031092A30310560F4A89EA001A99E500D94
:105370001124C901840F951F2196FE012491EECFBF
:10538000009709F462C0EFE9FFE03197F1F700C040
:1053900000000197F5CFE22FF0E0E85BF54FB49005
:1053A000822F86958695869590E0FC01E85CF54F06
:1053B000E4902770F12C022E02C0F594E7940A9431
:1053C000E2F7F1E0EF22FF24FC01E85DF54FC49025
:1053D000D12C022E02C0D594C7940A94E2F731E092
:1053E000C322DD24FC01E85EF54F049110E002C009
:1053F000159507952A95E2F701701127E114F1043C
:1054000019F081EE0E945225C114D10419F086EEE4
:105410000E94522560E070E08B2D0E94C625C114C9
:10542000D10419F086EE0E941F25E114F10419F051
:1054300081EE0E941F250115110539F060E070E032
:105440008CE20E94C62501C0EF01219658CFCDB74E
:10545000DEB7EAE00C941B2CEF92FF920F931F93A0
:10546000CF93DF93182FEB011092BC0084EA809356
:10547000BC000E9498267C018091BC0087FD0DC075
:10548000CF3F8FEFD807C1F3C7010E948926C81705
:10549000D90790F78EEF9FEF2DC08091B900887FDC
:1054A000883041F08091B900887F803119F08FEF0A
:1054B0009FEF20C01093BB0084E88093BC000E9443
:1054C00098268C018091BC0087FD0BC0CF3F8FEFE9
:1054D000D807C1F3C8010E948926C817D90790F7D9
:1054E000D9CF8091B900887F883111F08034F9F6E6
:1054F00080E090E0CDB7DEB7E6E00C941F2C109270
:10550000B9008CE08093B80008950F931F93CF9358
:10551000DF93EB018093BB0084E88093BC000E9482
:1055200098268C018091BC0087FD0DC0CF3F8FEF86
:10553000D807C1F3C8010E948926C817D90790F778
:105540008EEF9FEF0CC02091B900287F81E090E0A2
:10555000283211F480E090E0919581959109DF91D6
:10556000CF911F910F9108950F931F93CF93DF93C6
:10557000EC0184EC8093BC000E9498268C01809101
:10558000BC0087FD0DC0CF3F8FEFD807C1F3C80126
:105590000E948926C817D90790F78EEF9FEF03C0A6
:1055A0008091BB0090E0DF91CF911F910F91089502
:1055B0000F931F93CF93DF93EC0184E88093BC009B
:1055C0000E9498268C018091BC0087FD0DC0CF3FC2
:1055D0008FEFD807C1F3C8010E948926C817D907E1
:1055E00090F78EEF9FEF03C08091BB0090E0DF91BA
:1055F000CF911F910F910895A0E0B0E0E2E0FBE2AF
:105600000C94FB2B682E762E5A0169010E94982675
:105610004C010431110558F00F3F8FEF180751F07E
:10562000C80164E170E00E94E32BEB0105C0C1E01A
:10563000D0E002C0C5E0D0E0BE01862D0E942C2A39
:105640007C0197FF0BC00F3F8FEF1807A9F3C40130
:105650000E9489260817190778F713C0B801872D0B
:105660000E94852A7C01E501CA0CDB1CCC15DD05F6
:1056700041F0F7FC06C0B80189910E94852A7C019F
:10568000F5CF84E98093BC00C701CDB7DEB7EEE06B
:105690000C94172CA0E0B0E0E0E5FBE20C94FB2BAF
:1056A000782E662E7A01E9010E9498265C01043169
:1056B000110558F00F3F8FEF180759F0C80164E14A
:1056C00070E00E94E32B6B0107C0CC24C394D12C63
:1056D00003C025E0C22ED12CB601872D0E942C2AB2
:1056E0004C0197FF0BC00F3FEFEF1E07A9F3C50159
:1056F0000E9489260817190778F72BC0B801862D54
:105700000E94852A4C0197FD24C0F72DF1607F2E61
:105710000E9498265C010431110528F10F3F8FEF9C
:10572000180729F1C80164E170E00E94E32B6B01C6
:10573000B601872D0E942C2A4C0197FD1CC06701E1
:105740002197C6018E199F098C179D0758F597FE62
:105750001DC084E98093BC00C4011816190674F5B5
:1057600080E090E02BC0CC24C394D12CE1CF85E025
:10577000C82ED12CDDCF0F3FEFEF1E07C9F2C501B8
:105780000E9489260817190798F6D9CFC8010E94E8
:10579000B42A4C0197FD02C0F6018083FFEFCF1AB7
:1057A000DF0ACFCF97FCD5CFC8010E94D82A4C0181
:1057B00097FDCFCFCE0DDF1D8883CBCFCDB7DEB722
:1057C000EEE00C94172CAA1BBB1B51E107C0AA1FCB
:1057D000BB1FA617B70710F0A61BB70B881F991F92
:1057E0005A95A9F780959095BC01CD0108952F9207
:1057F0003F924F925F926F927F928F929F92AF9261
:10580000BF92CF92DF92EF92FF920F931F93CF93AD
:10581000DF93CDB7DEB7CA1BDB0B0FB6F894DEBF44
:105820000FBECDBF09942A88398848885F846E846A
:105830007D848C849B84AA84B984C884DF80EE80B4
:10584000FD800C811B81AA81B981CE0FD11D0FB6BD
:10585000F894DEBF0FBECDBFED010895F999FECFDC
:1058600092BD81BDF89A992780B50895A6E1B0E070
:1058700044E050E00C94782CA8E1B0E042E050E025
:105880000C94782CDC01A40FB51F4150504048F017
:10589000CB01840F951F2E910E94532C41505040F4
:1058A000D0F70895262FF999FECF92BD81BDF89AC1
:1058B000019700B4021639F01FBA20BD0FB6F89454
:1058C000FA9AF99A0FBE08950396272F0E94532C37
:1058D0000E94522C252F0E94532C242F0C94532CC1
:1058E0000196272F0E94532C0C94522CDC01CB01E3
:1058F000FC01F999FECF06C0F2BDE1BDF89A3196E0
:1059000000B40D9241505040B8F7089597FB072E10
:1059100016F4009407D077FD09D00E94E32B07FC12
:1059200005D03EF4909581959F4F089570956195AF
:105930007F4F0895EE0FFF1F0590F491E02D09941D
:10594000FB01DC0104C08D910190801921F44150CC
:0E5950005040C8F7881B990B0895F894FFCFBC
:10595E00DE25F417ED17E617DF1720000000000014
:10596E0000000000220936060000000000000000C2
:10597E0000000308D6080307000000000000000026
:10598E000000E707B608E606000000000000000071
:10599E000000000017092D060000000000000000A6
:1059AE000000CB079608C9060000000000000000AA
:1059BE000000AF077608AC060000000000000000F3
:1059CE000000930756088F0600000000000000003C
:1059DE000000770736087206000000000000000085
:1059EE00000000000C09240600000000000000006A
:1059FE000000000001091B0600000000000000006E
:105A0E0000000000F6081206000000000000000072
:105A1E0000005B071F08590600000000010A0A0279
:105A2E005200000001F0F1F4F5F6F700000000005E
:105A3E000000303132339293660101010101010100
:105A4E00000000000000004A7A6E7A302F5862453E
:105A5E004A626F004422476DF602D4028D02200284
:105A6E004C03650385039E03818283E200E900EA0D
:105A7E0000B500B600B700CD008301CC008A0192BC
:105A8E000194012102230224022502260227022A62
:105A9E0002B300B4006F0070009F01CB019F02A003
:025AAE000200F4
:00000001FF
